:0400000060EF00F0BD
:10000800FACF8FF0FBCF90F0E9CF91F011EF0AF023
:10001800D8CF37F0E8CF38F0E0CF39F0FACF3AF060
:10002800FBCF3BF0E9CF3CF0EACF3DF0E1CF3EF02B
:10003800E2CF3FF0D9CF40F0DACF41F0F3CF42F032
:10004800F4CF43F0F6CF44F0F7CF45F0F8CF46F0C1
:10005800F5CF47F09EA003D09E9072EC0DF09EAABB
:1000680003D09E9A54EC05F09EB89DA802D0BFEC30
:1000780009F047C0F5FF46C0F8FF45C0F7FF44C088
:10008800F6FF43C0F4FF42C0F3FF41C0DAFF40C0AF
:10009800D9FF3FC0E2FF3EC0E1FF3DC0EAFF3CC0E0
:1000A800E9FF3BC0FBFF3AC0FAFF39C0E0FF38C0A8
:1000B800E8FF37C0D8FF1000BCEF0AF035EC0EF0AF
:1000C800000E00018E6F000E0001896F000E000106
:1000D8008D6F000E00018C6F000E00018A6FC6AC98
:1000E80024D0C69C000120EE21F00001D251D9266F
:1000F8000001D351DA22050EDF6E010E00018A6F6E
:10010800000120EE23F00001D251D9260001D3517D
:10011800DA22DF2A000120EE22F00001D251D9268E
:100128000001D351DA22040EDF6EC7A005D0C9CF73
:100138008BF0010E00018E6F00018A675ED247D2F4
:10014800C7A65BD200018E5105EC09F0000120EE34
:1001580021F00001D251D9260001D351DA22080E2C
:10016800DF624BD2000E00018E6F010E00018C6F12
:1001780044D2C7A82AD0000120EE20F00001D251B5
:10018800D9260001D351DA22DF2A00018E51D8B4D2
:1001980013D2C7BA04D0010E00018D6F0DD2000131
:1001A80020EE23F00001D251D9260001D351DA22E2
:1001B800DF2A000120EE22F00001D251D9260001E9
:1001C800D351DA22060EDF6EF7D100018E51D8B472
:1001D80014D2000120EE20F00001D251D9260001EE
:1001E800D351DA22DF2AC7BA2CD0C7B40BD000010A
:1001F80020EE21F00001D251D9260001D351DA2294
:10020800070E82D02DEC0EF0000120EE21F0000147
:10021800D251D9260001D351DA22080EDF6E010E21
:1002280000018C6F000E00018E6F000120EE1EF0A1
:100238000001D251D9260001D351DA22000EDF6E17
:1002480020D0000120EE23F00001D251D926000170
:10025800D351DA22DF2A000120EE21F00001D25129
:10026800D9260001D351DA22050EDF6E000120EEF7
:1002780022F00001D251D9260001D351DA22060E0C
:1002880043D03DEC0EF0000120EE1EF00001D251EB
:10029800D9260001D351DA22DF500001856F0E0EF6
:1002A8000001855DD8B02DD03DEC0EF0000120EEA8
:1002B8001EF00001D251D9260001D351DA22DF50B5
:1002C8000001856F00018551010D100EF326000E07
:1002D800F422F3500001D225D96EF4500001D32145
:1002E800DA6EDF50C96E000120EE1EF00001D25117
:1002F800D9260001D351DA22DF2A010E0001896FC5
:100308007CD12DEC0EF058D1DF6E77D131EC0EF0A8
:10031800C7A85AD0000120EE20F00001D251D926FA
:100328000001D351DA22DF2A00018E51D8B448D017
:10033800C7AA25D0000120EE0EF00001D251D9261F
:100348000001D351DA22DF500001856F0001855189
:10035800010DF3500001D225D96EF4500001D321CC
:10036800DA6E00018BC0DFFF000120EE0EF0000105
:10037800D251D9260001D351DA22DF2A21D0000137
:1003880020EE23F00001D251D9260001D351DA2200
:10039800DF2A000120EE22F00001D251D926000107
:1003A800D351DA22060EDF6E000120EE21F00001A3
:1003B800D251D9260001D351DA22050EDF6EFCD0C6
:1003C800010E00018D6FF8D000018E51D8B415D1FF
:1003D800000120EE20F00001D251D9260001D351AE
:1003E800DA22DF2AC7AA25D0000120EE0EF000018C
:1003F800D251D9260001D351DA22DF500001856F8E
:1004080000018551010DF3500001D225D96EF45039
:100418000001D321DA6E00018BC0DFFF000120EE5E
:100428000EF00001D251D9260001D351DA22DF2A79
:10043800E4D0C7A4B4D639EC0EF0000120EE21F0C8
:100448000001D251D9260001D351DA22080EDF6EFD
:10045800D2C0D9FFD3C0DAFF000110EE10F00001BE
:10046800D251E1260001D351E222DFCFE7FF00019C
:1004780020EE01F00001D251D9260001D351DA2231
:10048800000110EE11F00001D251E1260001D35114
:10049800E222DFCFE7FF000120EE02F00001D25197
:1004A800D9260001D351DA22000110EE12F0000122
:1004B800D251E1260001D351E222DFCFE7FF00014C
:1004C80020EE03F00001D251D9260001D351DA22DF
:1004D800000110EE13F00001D251E1260001D351C2
:1004E800E222DFCFE7FF000120EE04F00001D25145
:1004F800D9260001D351DA22000110EE14F00001D0
:10050800D251E1260001D351E222DFCFE7FF0001FB
:1005180020EE05F00001D251D9260001D351DA228C
:10052800000110EE15F00001D251E1260001D3516F
:10053800E222DFCFE7FF000120EE1FF00001D251D9
:10054800D9260001D351DA22060EDF6E000120EE13
:100558001EF00001D251D9260001D351DA22000E33
:10056800DF6E010E00018D6F010E00018C6F000E11
:1005780000018E6F000120EE1EF00001D251D92635
:100588000001D351DA22000EDF6E000120EE10F0D8
:100598000001D251D9260001D351DA22DF50C96EA9
:1005A800000120EE1EF00001D251D9260001D351DE
:1005B800DA22DF2AC68821D0000120EE21F00001CE
:1005C800D251D9260001D351DA22050E9DD6000159
:1005D80020EE21F00001D251D9260001D351DA22B0
:1005E800DF50050AD8B4ACD5030AD8B4C2D5010A7D
:1005F800D8B48CD60F0AD8B444D600018E6704D07C
:1006080000018951D8B402D0C6A8C688000120EEDE
:100618000EF00001D251D9260001D351DA220C0E76
:10062800DF6423D000018D6720D0000120EE21F087
:100638000001D251D9260001D351DA22050EDF6E0E
:10064800000120EE23F00001D251D9260001D35138
:10065800DA22DF2A000120EE22F00001D251D92649
:100668000001D351DA22070EDF6E00018D51D8B494
:100678003FD0000120EE20F00001D251D926000120
:10068800D351DA22000110EE0EF00001D251E1261A
:100698000001D351E222E7500001856F0001855126
:1006A800010DF3500001D225E16EF4500001D32171
:1006B800E26EDFCFE7FF280E0001766F0001D3C09E
:1006C80078F00001D2C077F0000120EE0EF00001B2
:1006D800D251D9260001D351DA22DF500001856FAB
:1006E800000185295BEC0DF0000120EE0EF041D0F1
:1006F800000120EE23F00001D251D9260001D35188
:10070800DA22DF50D8B43DD0000120EE23F00001FA
:10071800D251D9260001D351DA22DF500001866F69
:10072800000120EE22F00001D251D9260001D35158
:10073800DA22DF500001876F000120EE20F000016F
:10074800D251D9260001D351DA22DF500001886F37
:10075800290E0001766F0001000E0001786F00017C
:10076800860E0001776F030E5BEC0DF0000120EEA2
:1007780023F00001D251D9260001D351DA22000E0C
:10078800DF6E00018C51D8B40FD02A0E0001766FAD
:100798000001D3C078F00001D2C077F0000E5BEC06
:1007A8000DF0000E00018C6F0001000E00017E6F3D
:1007B8000001C40E00017D6F000E0001806F4F0E16
:1007C80000017F6F0101010E0001826F01018A0E95
:1007D8000001816F8AEC0CF01200010E0201AC6F6F
:1007E800E00ED36E9B8C0201020E0101996F02018B
:1007F800B30E0101986F87EC0AF00201020E0101A5
:10080800996F0201AF0E0101986FE1EC0DF0B1ECA8
:100818000BF0000E936E000E8A6E960E9CEC0DF097
:10082800000E0101986F9B0E6CEC0CF09F909F9A44
:100838009F860201020E0101996F0201AC0E0101AF
:10084800986F9E0EA7EC0CF09D8614EC0EF029EC28
:100858000EF025EC0EF021EC0EF01DEC0EF019EC6C
:100868000EF0C1EC0DF0440E02018B6F440E020134
:100878008C6F0201AC51D8B403D0000E0201AC6FEA
:100888000201020E0101B16F0201B20E0101B06F47
:100898000201020E0101B36F02018D0E0101B26F58
:1008A8000E0EDEEC0CF00201B16F0201B1BF32D0C6
:1008B80025D00201020E0101996F02019C0E01016F
:1008C800986F02010101B2C29AF101019B6B02010A
:1008D800B15101019C6F01019D6B01019CBF9D07F6
:1008E8000201020E01019F6F02018D0E01019E6F30
:1008F8000DEC0EF00FD08DC28AF20CD00201B2516D
:100908000A0AD8B4D6D7220AD8B4F5D7010AD8B477
:10091800F2D7030A0201020E0101B16F0201B20E01
:100928000101B06F0201020E0101B36F02018D0EC9
:100938000101B26F0E0EC3EC0CF00201B16F02019F
:10094800B1BF97D7000E0201AE6F000E0201AD6F66
:100958000201AE51800A800F0E0ED8B4AD5DD8B03A
:1009680084D002019E0E0201AD25D96E0201020E4D
:100978000201AE21DA6E000EDF6E0201AD4BAE2B26
:10098800E7D70201020E0101B36F0201AF0E0101A8
:10099800B26F02010101B2C2B4F10101B56B0201EB
:1009A800B1510101B66F0101B76B0101B6BFB707BD
:1009B8000201020E0101B96F02018D0E0101B86F2B
:1009C80020EC0BF056D7F10E02019E6F8DC29FF2FC
:1009D8000201020E0101B36F02019E0E0101B26F06
:1009E800D1EC0DF046D7F20E02019E6F8DC29FF238
:1009F8008EC2A0F20201020E0101B36F02019E0E27
:100A08000101B26FD1EC0DF034D7F30E02019E6FE5
:100A18008DC29FF20201020E0101B36F02019E0E08
:100A28000101B26FD1EC0DF024D7F40E02019E6FD4
:100A38008DC29FF20201020E0101B36F02019E0EE8
:100A48000101B26FD1EC0DF014D7110E02019E6FA7
:100A58008DC29FF20201020E0101B36F02019E0EC8
:100A68000101B26FD1EC0DF004D70201B2510B0AAB
:100A7800D8B487D7150AD8B4A6D7010AD8B4F9D6F6
:100A88003F0AD8B4A0D7010AD8B4ADD7030AD8B45E
:100A9800BCD7010AD8B4C9D7070AD8B4D6D7E9D67B
:100AA80049663FD04B50010D00019D0EF324D96ECD
:100AB8000001000EF420DA6EAFCFDFFF4B6619D0CD
:100AC80000019D29D8B412D04D660DD0010E4D6E8F
:100AD8004CC030F0220E176E000E196E300E186ED4
:100AE800010EAFEC0DF0000E4B6E1200000E4D6EB5
:100AF80017D0100E4B6414D00001AE51FE0AD8B4C2
:100B08000FD0000E4B6E4CC031F0230E176E000E46
:100B1800196E310E186E010EAFEC0DF0010E4A6E13
:100B28004B2A110E4B641200000E4B6E00019E51B1
:100B38004C18D8B40FD04CC02EF09EC02FF0210E08
:100B4800176E000E196E2E0E186E020EAFEC0DF019
:100B5800010E4A6E000E2D6E000E366E000E356EBA
:100B68003650800A800F0E0ED8B4355CD8B021D02C
:100B7800020E35241B6E000E36201C6E00019D0EE1
:100B88001B24D96E0001000E1C20DA6E1D0E3524C0
:100B9800E16E000E3620E26EDFCFE7FF1D0E352432
:100BA800D96E000E3620DA6EDF502D1A354A362AF5
:100BB800D7D70001AD512D18D8B40DD04CC032F0A4
:100BC800200E176E000E196E320E186E010EAFEC65
:100BD8000DF0010E4A6E4A662CD01DC034F0345018
:100BE800110AD8B41CD03450F10AD8B418D03450F3
:100BF800F20AD8B414D03450F30AD8B410D0345010
:100C0800F40AD8B40CD04CC033F0240E176E000E82
:100C1800196E330E186E010EAFEC0DF02B6E1F0E11
:100C2800176E000E196E1D0E186E0E0EAFEC0DF03D
:100C38002C6E4C2A000E4A6E1200010120EE89F03B
:100C48000101A251D9260101A351DA22DF50010185
:100C5800AB6F0101AB51110DF3500101A225010148
:100C6800AE6FF4500101A3210101AF6F010EAEC1B7
:100C7800D9FFAFC1DAFFDF626DD0010120EE01F0CC
:100C88000101AE51D9260101AF51DA22DF5001012D
:100C9800A45DD8B002D0FD0E1200010120EE01F0D3
:100CA8000101AE51D9260101AF51DA22DF5001010D
:100CB800A96F0101A9510101AC6F0101AD6B0101DF
:100CC800A8C199F10101A7C198F1030E0101AE2550
:100CD8000101A96F000E0101AF210101AA6FA9C18D
:100CE8009AF1AAC19BF1ACC19CF1ADC19DF1DDECBB
:100CF8000BF0010120EE89F00101A251D926010172
:100D0800A351DA22010110EE89F00101A251E12676
:100D18000101A351E222E7500101A96F0101A929AC
:100D2800070BDF6E010120EE02F00101AE51D9265A
:100D38000101AF51DA22A5C1E1FFA6C1E2FFDFCF71
:100D4800E7FFAEC1D9FFAFC1DAFF000EDF6E0101C8
:100D5800AC511200FC0E1200000120EE89F00001D7
:100D68006A51D92600016B51DA22DF500001736FF6
:100D780000017351110DF35000016A250001766FCF
:100D8800F45000016B210001776F010E76C0D9FF86
:100D980077C0DAFFDF626DD0000120EE01F00001BC
:100DA8007651D92600017751DA22DF5000016C5DB7
:100DB800D8B002D0FD0E1200000120EE01F00001B3
:100DC8007651D92600017751DA22DF500001716F80
:100DD800000171510001746F0001756B000170C052
:100DE80061F000016FC060F0030E0001762500017C
:100DF800716F000E000177210001726F71C062F0FF
:100E080072C063F074C064F075C065F005EC0CF056
:100E1800000120EE89F000016A51D92600016B51CA
:100E2800DA22000110EE89F000016A51E126000182
:100E38006B51E222E7500001716F00017129070B25
:100E4800DF6E000120EE02F000017651D926000184
:100E58007751DA226DC0E1FF6EC0E2FFDFCFE7FF16
:100E680076C0D9FF77C0DAFF000EDF6E000174513B
:100E78001200FC0E12000101A4C1A9F10101AA6B24
:100E8800010120EE88F00101A251D9260101A351E8
:100E9800DA22DF500101AB6F0101AB51110DF350A4
:100EA8000101A2250101AC6FF4500101A321010148
:100EB800AD6FACC1D9FFADC1DAFFDF50D8B402D0F5
:100EC800FF0E1200010120EE01F00101AC51D926FC
:100ED8000101AD51DA220101A4C1DFFF010120EEB9
:100EE80002F00101AC51D9260101AD51DA2201010C
:100EF800A5C1DFFF030E0101AC250101986F000EAB
:100F08000101AD210101996F0101A7C19BF1010107
:100F1800A6C19AF1A9C19CF1AAC19DF1DDEC0BF023
:100F2800010120EE88F00101A251D9260101A35147
:100F3800DA22010110EE88F00101A251E126010137
:100F4800A351E222E7500101A86F0101A829070B6C
:100F5800DF6EACC1D9FFADC1DAFF010EDF6E010E45
:100F6800120000016CC071F00001726B000120EEEC
:100F780088F000016A51D92600016B51DA22DF504E
:100F88000001736F00017351110DF35000016A25C0
:100F98000001746FF45000016B210001756F74C07B
:100FA800D9FF75C0DAFFDF50D8B402D0FF0E1200A7
:100FB800000120EE01F000017451D926000175519D
:100FC800DA2200016CC0DFFF000120EE02F0000110
:100FD8007451D92600017551DA2200016DC0DFFF76
:100FE800030E000174250001606F000E00017521D9
:100FF8000001616F00016FC063F000016EC062F014
:1010080071C064F072C065F005EC0CF0000120EED0
:1010180088F000016A51D92600016B51DA220001DB
:1010280010EE88F000016A51E12600016B51E222BE
:10103800E7500001706F00017029070BDF6E74C064
:10104800D9FF75C0DAFF010EDF6E010E120003C072
:10105800D9FF04C0DAFFFF0EDF6E20EE01F0035067
:10106800D9260450DA2248C0DFFF482A20EE11F0C2
:101078000350D9260450DA22FE0EDF6E000E076EEA
:10108800000E086E49D00850010DF3500124D96EA6
:10109800F4500220DA6EDF50FF0AD8B40BD00850A3
:1010A800010DF3500124D96EF4500220DA6EFE0EC1
:1010B800DF6210D00850056E066A020E0526000E83
:1010C800062205500324D96E06500420DA6EFD0E60
:1010D800DF6E17D00850010DF3500124D96EF4507B
:1010E8000220DA6E0850056E066A020E0526000E0A
:1010F800062205500324E16E06500420E26EDFCF7D
:10110800E7FF0850010DF3500124D96EF450022076
:10111800DA6EDF50071A082A0D0E0864B4D720EEDD
:1011280010F00350D9260450DA2207C0DFFF12005E
:1011380020EE89F00B50D9260C50DA22DF50146EBD
:101148001450110DF3500B24176EF4500C20186E28
:10115800010E17C0D9FF18C0DAFFDF6250D020EEA9
:1011680001F01750D9261850DA22DF500D5CD8B09C
:1011780002D0FD0E120020EE01F01750D9261850AB
:10118800DA22DF50126E1250156E166A11C002F084
:1011980010C001F0030E1724126E000E1820136EF3
:1011A80012C003F013C004F015C005F016C006F015
:1011B8002DEC0CF020EE89F00B50D9260C50DA22D9
:1011C80010EE89F00B50E1260C50E222E750126E27
:1011D8001228070BDF6E20EE02F01750D9261850A0
:1011E800DA220EC0E1FF0FC0E2FFDFCFE7FF17C032
:1011F800D9FF18C0DAFF000EDF6E15501200FC0E82
:1012080012000001606F000120EE20F00001D251B1
:10121800D9260001D351DA22010EDF6E000120EE3B
:101228000EF00001D251D9260001D351DA22000E66
:10123800DF6E00016051D8B43DD0C7AA21D00001AB
:1012480020EE21F00001D251D9260001D351DA2233
:10125800050EDF6E000120EE23F00001D251D926E1
:101268000001D351DA22DF2A000120EE22F000012A
:10127800D251D9260001D351DA22050EDF6E1200B1
:10128800C7A40CD0000120EE21F00001D251D926CC
:101298000001D351DA22080EDF6E1200000120EEA1
:1012A80021F00001D251D9260001D351DA22070ECC
:1012B800DF6E1200000120EE21F00001D251D92684
:1012C8000001D351DA22060EDF6E12000DC012F0B3
:1012D800136A20EE88F00B50D9260C50DA22DF5022
:1012E800146E1450110DF3500B24156EF4500C208D
:1012F800166E15C0D9FF16C0DAFFDF50D8B402D079
:10130800FF0E120020EE01F01550D9261650DA22F1
:101318000DC0DFFF20EE02F01550D9261650DA2254
:101328000EC0DFFF030E1524016E000E1620026E9C
:1013380010C004F00FC003F012C005F013C006F08F
:101348002DEC0CF020EE88F00B50D9260C50DA2248
:1013580010EE88F00B50E1260C50E222E750116E97
:101368001128070BDF6E15C0D9FF16C0DAFF010E72
:10137800DF6E010E12001F0E2C6E5D50D8B43AD0ED
:10138800000E1A6E2C0E196E000E1C6E1E0E1B6EB1
:101398000E0E88EC0DF02D6E2D50FC0AD8A402D04C
:1013A8009D9812002D50800A7F0FD8A01200000EC1
:1013B800026E1E0E016E0001000E046E0001B20ED8
:1013C800036E2BEC08F0000E4E6E000E5D6E4E5054
:1013D800010D0001B20EF324D96E0001000EF420B5
:1013E800DA6EDF50AE6E4E2A110E4E641200010EF8
:1013F8005D6E12004E50010D0001B20EF324D96E3D
:101408000001000EF420DA6EDF50AE6E4E2A110E87
:101418004E641200010E5D6E1200EACF92F0E1CF29
:1014280093F0E2CF94F0D9CF95F0DACF96F0F3CFDE
:1014380097F0F4CF98F0F6CF99F0F7CF9AF0F8CF6D
:101448009BF0F5CF9CF09EA603D09E9662EC00F030
:10145800F2A403D0F29450EC0AF081EC0BF09CC09B
:10146800F5FF9BC0F8FF9AC0F7FF99C0F6FF98C038
:10147800F4FF97C0F3FF96C0DAFF95C0D9FF94C078
:10148800E2FF93C0E1FF92C0EAFF91C0E9FF90C07C
:10149800FBFF8FC0FAFF1100000E0001616F000E04
:1014A8000001606FFCEC0DF00001000E0001796F87
:1014B80000017F0E0001786F0001000E00017B6FB4
:1014C8000001810E00017A6F020EF9EC0CF00001A8
:1014D8007D6F00017E6B00017DBF7E0700017D519D
:1014E800020A7E11D8A412000A0E0001766F0001CC
:1014F800000E0001786F0001810E0001776F020E67
:101508005BEC0DF012000101000199C1D3F001015B
:10151800000198C1D2F0000120EE0EF00001D25176
:10152800D9260001D351DA22000EDF6E000120EE29
:1015380020F00001D251D9260001D351DA22000E41
:10154800DF6E000120EE21F00001D251D926000102
:10155800D351DA22050EDF6E000120EE23F00001E0
:10156800D251D9260001D351DA22000EDF6E1200C3
:1015780004EE00F08A0EEE6AE806FDE103EE00F0E4
:101588008A0EEE6AE806FDE102EE00F08A0EEE6AC7
:10159800E806FDE101EE00F0980EEE6AE806FDE1CE
:1015A80000EE9DF0350EEE6AE806FDE100EE48F02B
:1015B800150EEE6AE806FDE18C0EF66E1C0EF76E4F
:1015C800000EF86E0900F5CF5DF0000EF86E000110
:1015D800F1EF03F0010120EE88F001019851D926BE
:1015E80001019951DA22000EDF6E010120EE89F027
:1015F80001019851D92601019951DA22000EDF6EB6
:10160800000E01019A6F070E01019A6501D01200C0
:1016180001019A51110DF35001019825D96EF4502A
:1016280001019921DA6E000EDF6E01019A2B070E77
:1016380001019A65EDD7120044EC0EF0B2C1D9FF52
:10164800B3C1DAFFDE2A000EDD22B2C1D9FFB3C171
:10165800DAFF0101DECF98F10101DDCF99F1000E2B
:1016680001019B6F0A0E01019A6F51EC0BF0010109
:101678009851090A01019911D8A41200140E010108
:10168800AE6F0101B3C1B0F10101B2C1AFF1020EF9
:101698002DEC0DF00101BA6F120001019B519A1156
:1016A800D8B426D0010E01019C6F06D00101D89054
:1016B8009A379B3701019C2B01019BAFF7D701019A
:1016C8009A510101985D01019B5101019959D8A0D6
:1016D80008D001019A510101985F01019B51010154
:1016E800995B0101D8909B339A3301019C2FE7D76E
:1016F80098C198F199C199F112000001B16701D020
:1017080012004DEC0CF00001635100016211D8A4E5
:10171800120005EC0EF00001615100016011D8B40F
:1017280012000201020E0001616F0201000E0001A9
:10173800606F14EC0DF00009D8A412000101010E2D
:101748000001616F0101000E0001606F14EC0DF0E3
:101758000009D8B441EC0EF01200000E0001B16F80
:101768000101010E0101996F0101000E0101986F3D
:10177800EEEC0AF00201020E0101996F0201000E5F
:101788000101986FEEEC0AF00301030E0101996F55
:101798000301000E0101986FEEEC0AF00401040E3B
:1017A8000101996F0401000E0101986FEEEC0AF037
:1017B800120001019BC1A1F101019AC1A0F101012F
:1017C80099C19FF1010198C19EF110D0A0C1D9FF24
:1017D800A1C1DAFF9EC1E1FF9FC1E2FFDFCFE7FFB2
:1017E8000101A04BA12B01019E4B9F2B01019C07DE
:1017F800D8A09D0701019C29D8B49D29D8B412000E
:10180800E5D7000163C069F0000162C068F000011B
:1018180061C067F0000160C066F010D068C0D9FFF1
:1018280069C0DAFF66C0E1FF67C0E2FFDFCFE7FF0C
:101838000001684B692B0001664B672B00016407A8
:10184800D8A0650700016429D8B46529D8B4120066
:10185800E5D704C00AF003C009F002C008F001C0CF
:1018680007F00ED009C0D9FF0AC0DAFF07C0E1FFB0
:1018780008C0E2FFDFCFE7FF094A0A2A074A082A19
:101888000506D8A006060528D8B40628D8B412003C
:10189800E9D7F2AC07D0000E0001636F000E00011B
:1018A800626F120005EC0EF0000161510001601139
:1018B800D8B407D0000E0001636F000E0001626FFC
:1018C8001200000E0001636F010E0001626F12002A
:1018D80001019A6F01019851F30B9A6E9AC199F11F
:1018E8007F0E010199170101D8909935CD6E000E30
:1018F800CF6E000ECE6E9E9001019AAF02D09D80F1
:1019080001D09D909ABE9A86CD801200280E0001C3
:10191800846F0001000E0001796F0001840E000140
:10192800786F00017EC07BF000017DC07AF00E0E5A
:10193800F9EC0CF00001836FAFC0D9FFB0C0DAFF3B
:10194800010EDF6E120001019A6F0101000199C1B9
:10195800B0F00101000198C1AFF09388938A9AC151
:10196800C8FF000EC76E000EC66E000EC56E0E0EC6
:10197800C612C78E8188818AC580C68A1200010175
:10198800B46F0101010E0101A36F0101000E0101F5
:10199800A26FB4C1A4F10101B1C1A6F10101B0C1A6
:1019A800A5F10101B3C1A8F10101B2C1A7F121EC70
:1019B80006F012000101B46F0201020E0101A36FCB
:1019C8000201000E0101A26FB4C1A4F10101B1C16D
:1019D800A6F10101B0C1A5F10101B3C1A8F101014E
:1019E800B2C1A7F121EC06F0120000017C6F0401DE
:1019F800040E00016B6F0401000E00016A6F7CC0C9
:101A08006CF0000179C06EF0000178C06DF0000143
:101A18007BC070F000017AC06FF0B0EC06F01200E5
:101A2800000120EE89F000016051D92600016151C2
:101A3800DA22DF500001626F00016251110DF3508C
:101A480000016025D96EF45000016121DA6EDF5083
:101A580012000101B16F0401040E0101A36F04011A
:101A6800000E0101A26FB1C1A4F1AEC1A5F101013F
:101A7800B0C1A7F10101AFC1A6F13FEC07F0120018
:101A88000101B16F0301030E0101A36F0301000EF1
:101A98000101A26FB1C1A4F1AEC1A5F10101B0C1AC
:101AA800A7F10101AFC1A6F13FEC07F01200000158
:101AB800796F0201020E00016B6F0201000E000136
:101AC8006A6F79C06CF076C06DF0000178C06FF075
:101AD800000177C06EF0B5EC07F01200F3EC0DF0E2
:101AE80001C01BF002C01CF00B0E176E000E196E21
:101AF800000E186E000EAFEC0DF0000E026E000E18
:101B0800016EEAEC0DF012001D6E0301030E0C6E5F
:101B18000301000E0B6E1DC00DF01AC00FF019C0A6
:101B28000EF01CC011F01BC010F09CEC08F0120065
:101B38000101986F010198517F0BD56E000ED76E89
:101B4800000ED66EF294010198AF02D0F28A01D04D
:101B5800F29AD58E12001A6E0101010E0C6E010167
:101B6800000E0B6E1AC00DF017C00EF019C010F061
:101B780018C00FF06AEC09F01200948E949C7E86CF
:101B8800AD84000E7F6ECF0EB06EAD98AC8E9F9870
:101B98009D989D8AAD8AAC8812001F0E0101AE6F18
:101BA8000101B3C1B0F10101B2C1AFF10E0E44ECB5
:101BB8000DF00101B46F9D88120098C1D9FF99C139
:101BC800DAFF000EDE6E000EDD6E120001C003F0BB
:101BD80002C004F004C0CFFF03C0CEFF1200CECF76
:101BE80003F0CFCF04F003C001F004C002F01200EC
:101BF80060C062F061C063F063C0D7FF62C0D6FF07
:101C08001200000EF2AE010E0001606F0001616B60
:101C1800120001019FC1A1F101019EC1A0F11200B2
:101C2800000E956E939093921200D08EF28EF28CE5
:101C380012008C9C8C8C8C9C12008C9A8C8A8C9AAE
:101C480012008C988C888C9812008C948C848C94BC
:101C580012008C9C8C8C8C9C12008C9A8C8A8C9A8E
:101C680012008C988C888C9812008C948C848C949C
:101C780012008C9E8C8E8C9E1200D38E0300120054
:061C88008A701200010049
:08FFF8008AF795FFF2F9FFF111
:00000001FF
