:0400000060EF00F0BD
:10000800FACF95F0FBCF96F0E9CF97F0D7EF09F04C
:10001800D8CF2AF0E8CF2BF0E0CF2CF0FACF2DF094
:10002800FBCF2EF0E9CF2FF0EACF30F0E1CF31F05F
:10003800E2CF32F0D9CF33F0DACF34F0F3CF35F066
:10004800F4CF36F0F6CF37F0F7CF38F0F8CF39F0F5
:10005800F5CF3AF09EA003D09E90F3EC0CF09EAA48
:1000680003D09E9A81EC05F09EB89DA802D03FEC83
:1000780009F03AC0F5FF39C0F8FF38C0F7FF37C0BC
:10008800F6FF36C0F4FF35C0F3FF34C0DAFF33C0E3
:10009800D9FF32C0E2FF31C0E1FF30C0EAFF2FC014
:1000A800E9FF2EC0FBFF2DC0FAFF2CC0E0FF2BC0DC
:1000B800E8FF2AC0D8FF1000C1EF0BF0CFEC0DF01D
:1000C800000E0001926F000E00018D6F000E0001FE
:1000D800916F000E0001906F000E00018E6FC6AC8C
:1000E80024D0C69C000120EE19F00001BB51D9268E
:1000F8000001BC51DA22050EDF6E010E00018E6F81
:10010800000120EE1BF00001BB51D9260001BC51B3
:10011800DA22DF2A000120EE1AF00001BB51D926AD
:100128000001BC51DA22040EDF6EC7A005D0C9CF8A
:100138008FF0010E0001926F00018E6708D3F1D293
:10014800C7A605D30001925185EC08F0000120EE06
:1001580019F00001BB51D9260001BC51DA22080E62
:10016800DF62F5D2000E0001926F010E0001906F60
:10017800EED2C7A82AD0000120EE18F00001BB512A
:10018800D9260001BC51DA22DF2A00019251D8B4E5
:10019800BDD2C7BA04D0010E0001916FB7D20001D9
:1001A80020EE1BF00001BB51D9260001BC51DA2218
:1001B800DF2A000120EE1AF00001BB51D926000108
:1001C800BC51DA22060EDF6EA1D200019251D8B4DA
:1001D800BED2000120EE18F00001BB51D926000163
:1001E800BC51DA22DF2AC7BA2CD0C7B40BD0000121
:1001F80020EE19F00001BB51D9260001BC51DA22CA
:10020800070E82D0C7EC0DF0000120EE19F00001B6
:10021800BB51D9260001BC51DA22080EDF6E010E4F
:100228000001906F000E0001926F000120EE16F0A1
:100238000001BB51D9260001BC51DA22000EDF6E45
:1002480020D0000120EE1BF00001BB51D92600018F
:10025800BC51DA22DF2A000120EE19F00001BB515F
:10026800D9260001BC51DA22050EDF6E000120EE0E
:100278001AF00001BB51D9260001BC51DA22060E42
:1002880043D0D7EC0DF0000120EE16F00001BB5171
:10029800D9260001BC51DA22DF500001886F060E12
:1002A8000001885DD8B02DD0D7EC0DF0000120EE0C
:1002B80016F00001BB51D9260001BC51DA22DF50EB
:1002C8000001886F00018851010D0C0EF326000E05
:1002D800F422F3500001BB25D96EF4500001BC2173
:1002E800DA6EDF50C96E000120EE16F00001BB5136
:1002F800D9260001BC51DA22DF2A010E00018D6FD8
:1003080026D2C7EC0DF002D2DF6E21D2CBEC0DF075
:10031800C7A85AD0000120EE18F00001BB51D92619
:100328000001BC51DA22DF2A00019251D8B448D02A
:10033800C7AA25D0000120EE0AF00001BB51D9263A
:100348000001BC51DA22DF500001886F000188519A
:10035800010DF3500001BB25D96EF4500001BC21FA
:10036800DA6E00018FC0DFFF000120EE0AF0000105
:10037800BB51D9260001BC51DA22DF2A21D0000165
:1003880020EE1BF00001BB51D9260001BC51DA2236
:10039800DF2A000120EE1AF00001BB51D926000126
:1003A800BC51DA22060EDF6E000120EE19F00001C2
:1003B800BB51D9260001BC51DA22050EDF6EA6D149
:1003C800010E0001916FA2D100019251D8B4BFD1A2
:1003D800000120EE18F00001BB51D9260001BC51E4
:1003E800DA22DF2AC7AA25D0000120EE0AF0000190
:1003F800BB51D9260001BC51DA22DF500001886FB9
:1004080000018851010DF3500001BB25D96EF4504D
:100418000001BC21DA6E00018FC0DFFF000120EE71
:100428000AF00001BB51D9260001BC51DA22DF2AAB
:100438008ED1C7A4B4D6D3EC0DF0000120EE19F08C
:100448000001BB51D9260001BC51DA22080EDF6E2B
:100458000DD1000E0001946F000E0001936F000192
:100468009451800A800F060ED8B4935DD8B00DD190
:100478000001AF0E00019325D96E0001000E0001A6
:100488009421DA6E0C0E000193250001886F000E8E
:10049800000194210001896F000188510001BB25EA
:1004A800E16E000189510001BC21E26EDFCFE7FF58
:1004B8000001934B942BD3D7000E0001946F000ECC
:1004C8000001936F00019451800A800F060ED8B482
:1004D800935DD8B0DAD00001A90E00019325D96E3A
:1004E8000001000E00019421DA6E0C0E0001932524
:1004F8000001886F000E000194210001896F00013E
:1005080088510001BB25E16E000189510001BC2121
:10051800E26EDFCFE7FF0001934B942BD3D7000E99
:100528000001946F000E0001936F00019451800A3E
:10053800800F060ED8B4935DD8B0A7D00001B50ED1
:1005480000019325D96E0001000E00019421DA6E96
:100558000C0E000193250001886F000E0001942104
:100568000001896F000188510001BB25E16E00017F
:1005780089510001BC21E26EDFCFE7FF0001934BF8
:10058800942BD3D7BBC0D9FFBCC0DAFF000110EE53
:100598000CF00001BB51E1260001BC51E222DFCF83
:1005A800E7FF000120EE01F00001BB51D926000150
:1005B800BC51DA22000110EE0DF00001BB51E1261A
:1005C8000001BC51E222DFCFE7FF000120EE02F07C
:1005D8000001BB51D9260001BC51DA22000110EEFE
:1005E8000EF00001BB51E1260001BC51E222DFCF31
:1005F800E7FF000120EE03F00001BB51D9260001FE
:10060800BC51DA22000110EE0FF00001BB51E126C7
:100618000001BC51E222DFCFE7FF000120EE04F029
:100628000001BB51D9260001BC51DA22000110EEAD
:1006380010F00001BB51E1260001BC51E222DFCFDE
:10064800E7FF000120EE05F00001BB51D9260001AB
:10065800BC51DA22000110EE11F00001BB51E12675
:100668000001BC51E222DFCFE7FF0FD0BBC0D9FFAA
:10067800BCC0DAFFDF502A0AD8B4EBD6010AD8B4D6
:100688001BD7070AD8B44BD77DD7000120EE17F047
:100698000001BB51D9260001BC51DA22060EDF6EDB
:1006A800000120EE16F00001BB51D9260001BC5113
:1006B800DA22000EDF6E010E0001916F010E0001BB
:1006C800906F000E0001926F000120EE16F00001FD
:1006D800BB51D9260001BC51DA22000EDF6E0001A1
:1006E80020EE0CF00001BB51D9260001BC51DA22E2
:1006F800DF50C96E000120EE16F00001BB51D9266B
:100708000001BC51DA22DF2AC68821D0000120EE80
:1007180019F00001BB51D9260001BC51DA22050E9F
:10072800F3D5000120EE19F00001BB51D9260001D4
:10073800BC51DA22DF50050AD8B402D5030AD8B46E
:1007480018D5010AD8B4E2D50F0AD8B49AD5000151
:10075800926704D000018D51D8B402D0C6A8C688CB
:10076800000120EE0AF00001BB51D9260001BC515E
:10077800DA22080EDF6423D00001916720D000013F
:1007880020EE19F00001BB51D9260001BC51DA2234
:10079800050EDF6E000120EE1BF00001BB51D926CB
:1007A8000001BC51DA22DF2A000120EE1AF0000114
:1007B800BB51D9260001BC51DA22070EDF6E0001B9
:1007C8009151D8B43FD0000120EE18F00001BB5180
:1007D800D9260001BC51DA22000110EE0AF000010E
:1007E800BB51E1260001BC51E222E7500001886FAD
:1007F80000018851010DF3500001BB25E16EF45052
:100808000001BC21E26EDFCFE7FF280E0001766F02
:100818000001BCC078F00001BBC077F0000120EEF9
:100828000AF00001BB51D9260001BC51DA22DF5081
:100838000001886F00018829DCEC0CF0000120EE33
:100848000AF041D0000120EE1BF00001BB51D9266F
:100858000001BC51DA22DF50D8B43DD0000120EEAF
:100868001BF00001BB51D9260001BC51DA22DF5030
:1008780000018A6F000120EE1AF00001BB51D92651
:100888000001BC51DA22DF5000018B6F000120EE1D
:1008980018F00001BB51D9260001BC51DA22DF5003
:1008A80000018C6F290E0001766F0001000E000117
:1008B800786F00018A0E0001776F030EDCEC0CF0F4
:1008C800000120EE1BF00001BB51D9260001BC51EC
:1008D800DA22000EDF6E00019051D8B40FD02A0E34
:1008E8000001766F0001BCC078F00001BBC077F052
:1008F800000EDCEC0CF0000E0001906F0001000E01
:1009080000017E6F0001AF0E00017D6F0001000E37
:100918000001806F0001A90E00017F6F0001000E29
:100928000001826F0001B50E0001816F91EC09F0A2
:100938001200E00ED36E9B8C0101010E0001A46F22
:100948000101D40E0001A36F4DEC0AF00101010E64
:100958000001A46F0101D00E0001A36F7FEC0DF020
:1009680041EC0BF0000E936E000E8A6E960E31EC81
:100978000DF0000E0001A36F9B0E26EC0CF09F906B
:100988009F9A9F869E0E09EC0DF09D86DBEC0DF07C
:10099800BBEC0DF0B7EC0DF0B3EC0DF0AFEC0DF0D7
:1009A800ABEC0DF056EC0DF0440E0101C16F440E96
:1009B8000101C26F0101010E0101B76F0101D30EE0
:1009C8000101B66F0101010E0101B96F0101C30EEA
:1009D8000101B86F0A0E5FEC0CF00101D26F010142
:1009E800D2BF31D024D00101010E0101A36F010152
:1009F800CE0E0101A26F0101D3C1A4F10101A56BC3
:100A08000101D2510101A66F0101A76B0101A6BF27
:100A1800A7070101010E0101A96F0101C30E010120
:100A2800A86F76EC0DF00FD0C3C1C0F10CD0010156
:100A3800D3510A0AD8B4D7D7220AD8B4F5D7010AAD
:100A4800D8B4F2D7030A0101010E0101B76F010101
:100A5800D30E0101B66F0101010E0101B96F010149
:100A6800C30E0101B86F0A0E44EC0CF00101D26FFD
:100A78000101D2BF9FD735D00101010E0101B86F26
:100A88000101D00E0101B76F0101D3C1B9F1010114
:100A9800BA6B0101D2510101BB6F0101BC6B0101AD
:100AA800BBBFBC070101010E0101BE6F0101C30EEE
:100AB8000101BD6F12EC0BF07DD70101010E0101A0
:100AC800B86F0101C30E0101B76F66EC0DF00101AB
:100AD800C351A50AD8B46ED7100AD8B46BD7700A18
:100AE80069D70101D3510B0AD8B4C6D7150AD8B4AF
:100AF800E4D7010AD8B4E1D75DD7BFEC0DF03D6665
:100B08000BD03E50010DF3503B24D96EF4503C20DD
:100B1800DA6EAFCFDFFF3E2A070E3E641200000EEA
:100B28003E6E3F2A3BC0D9FF3CC0DAFFDF503F187A
:100B3800D8B407D03BC0D9FF3CC0DAFFDF503F6EC6
:100B4800120020EE07F03B50D9263C50DA22DF5045
:100B58001B6E20EE06F03B50D9263C50DA22DF50BF
:100B68001C6E20EE05F03B50D9263C50DA22DF50AF
:100B78001D6E20EE04F03B50D9263C50DA22DF509F
:100B88001E6E20EE03F03B50D9263C50DA22DF508F
:100B98001F6E20EE02F03B50D9263C50DA22DF507F
:100BA800206E20EE01F03B50D9263C50DA22DF506F
:100BB80020181F181E181D181C181B18D8A412005E
:100BC800000E296E000E286E2950800A800F060E2E
:100BD800D8B4285CD8B017D0010E28241B6E000E9C
:100BE80029201C6E1B503B24D96E1C503C20DA6E09
:100BF800210E2824E16E000E2920E26EDFCFE7FFE8
:100C0800284A292AE1D71F0E176E000E196E210EE9
:100C1800186E080E44EC0DF0276E1200010120EE4C
:100C280035F00101A851D9260101A951DA22DF5076
:100C38000101B16F0101B1510D0DF3500101A8255A
:100C48000101B46FF4500101A9210101B56F010E32
:100C5800B4C1D9FFB5C1DAFFDF626DD0010120EE62
:100C680001F00101B451D9260101B551DA22DF5052
:100C78000101AA5DD8B002D0FD0E1200010120EEDC
:100C880001F00101B451D9260101B551DA22DF5032
:100C98000101AF6F0101AF510101B26F0101B36BE7
:100CA8000101AEC1A3F10101ADC1A2F1030E010121
:100CB800B4250101AF6F000E0101B5210101B06F2C
:100CC800AFC1A4F1B0C1A5F1B2C1A6F1B3C1A7F1FA
:100CD8006DEC0BF0010120EE35F00101A851D92689
:100CE8000101A951DA22010110EE35F00101A851E4
:100CF800E1260101A951E222E7500101AF6F01018C
:100D0800AF29030BDF6E010120EE02F00101B4519F
:100D1800D9260101B551DA22ABC1E1FFACC1E2FF2E
:100D2800DFCFE7FFB4C1D9FFB5C1DAFF000EDF6E30
:100D38000101B2511200FC0E1200000120EE35F044
:100D480000016A51D92600016B51DA22DF500001F7
:100D5800736F000173510D0DF35000016A250001F6
:100D6800766FF45000016B210001776F010E76C099
:100D7800D9FF77C0DAFFDF626DD0000120EE01F005
:100D880000017651D92600017751DA22DF5000019F
:100D98006C5DD8B002D0FD0E1200000120EE01F00B
:100DA80000017651D92600017751DA22DF5000017F
:100DB800716F000171510001746F0001756B0001C2
:100DC80070C061F000016FC060F0030E000176256D
:100DD8000001716F000E000177210001726F71C070
:100DE80062F072C063F074C064F075C065F099EC8D
:100DF8000BF0000120EE35F000016A51D926000100
:100E08006B51DA22000110EE35F000016A51E1263B
:100E180000016B51E222E7500001716F0001712956
:100E2800030BDF6E000120EE02F000017651D92697
:100E380000017751DA226DC0E1FF6EC0E2FFDFCF1B
:100E4800E7FF76C0D9FF77C0DAFF000EDF6E00013A
:100E580074511200FC0E12000101AAC1AEF1010189
:100E6800AF6B010120EE34F00101A851D926010130
:100E7800A951DA22DF500101B06F0101B0510D0D07
:100E8800F3500101A8250101B16FF4500101A92116
:100E98000101B26FB1C1D9FFB2C1DAFFDF50D8B4D6
:100EA80002D0FF0E1200010120EE01F00101B15144
:100EB800D9260101B251DA220101AAC1DFFF0101DD
:100EC80020EE02F00101B151D9260101B251DA2216
:100ED8000101ABC1DFFF030E0101B1250101A26FC2
:100EE800000E0101B2210101A36F0101ADC1A5F1FD
:100EF8000101ACC1A4F1AEC1A6F1AFC1A7F16DEC7F
:100F08000BF0010120EE34F00101A851D9260101AE
:100F1800A951DA22010110EE34F00101A851E126AD
:100F28000101A951E222E7500001A76F0001A7299A
:100F3800030BDF6EB1C1D9FFB2C1DAFF010EDF6E5C
:100F4800010E120000016CC071F00001726B00010B
:100F580020EE34F000016A51D92600016B51DA22E3
:100F6800DF500001736F000173510D0DF350000144
:100F78006A250001746FF45000016B210001756F40
:100F880074C0D9FF75C0DAFFDF50D8B402D0FF0EA5
:100F98001200000120EE01F000017451D926000171
:100FA8007551DA2200016CC0DFFF000120EE02F06B
:100FB80000017451D92600017551DA2200016DC073
:100FC800DFFF030E000174250001606F000E0001B1
:100FD80075210001616F00016FC063F000016EC0F0
:100FE80062F071C064F072C065F099EC0BF000011A
:100FF80020EE34F000016A51D92600016B51DA2243
:10100800000110EE34F000016A51E12600016B5135
:10101800E222E7500001706F00017029030BDF6EB8
:1010280074C0D9FF75C0DAFF010EDF6E010E120021
:1010380020EE35F00B50D9260C50DA22DF50146E12
:1010480014500D0DF3500B24176EF4500C20186E2D
:10105800010E17C0D9FF18C0DAFFDF6250D020EEAA
:1010680001F01750D9261850DA22DF500D5CD8B09D
:1010780002D0FD0E120020EE01F01750D9261850AC
:10108800DA22DF50126E1250156E166A11C002F085
:1010980010C001F0030E1724126E000E1820136EF4
:1010A80012C003F013C004F015C005F016C006F016
:1010B800E7EC0BF020EE35F00B50D9260C50DA2275
:1010C80010EE35F00B50E1260C50E222E750126E7C
:1010D8001228030BDF6E20EE02F01750D9261850A5
:1010E800DA220EC0E1FF0FC0E2FFDFCFE7FF17C033
:1010F800D9FF18C0DAFF000EDF6E15501200FC0E83
:1011080012000001606F000120EE18F00001BB51D1
:10111800D9260001BC51DA22010EDF6E000120EE53
:101128000AF00001BB51D9260001BC51DA22000E99
:10113800DF6E00016051D8B43DD0C7AA21D00001AC
:1011480020EE19F00001BB51D9260001BC51DA226A
:10115800050EDF6E000120EE1BF00001BB51D92601
:101168000001BC51DA22DF2A000120EE1AF000014A
:10117800BB51D9260001BC51DA22050EDF6E1200E0
:10118800C7A40CD0000120EE19F00001BB51D926EC
:101198000001BC51DA22080EDF6E1200000120EEB9
:1011A80019F00001BB51D9260001BC51DA22070E03
:1011B800DF6E1200000120EE19F00001BB51D926A4
:1011C8000001BC51DA22060EDF6E12000DC012F0CB
:1011D800136A20EE34F00B50D9260C50DA22DF5077
:1011E800146E14500D0DF3500B24156EF4500C2092
:1011F800166E15C0D9FF16C0DAFFDF50D8B402D07A
:10120800FF0E120020EE01F01550D9261650DA22F2
:101218000DC0DFFF20EE02F01550D9261650DA2255
:101228000EC0DFFF030E1524016E000E1620026E9D
:1012380010C004F00FC003F012C005F013C006F090
:10124800E7EC0BF020EE34F00B50D9260C50DA22E4
:1012580010EE34F00B50E1260C50E222E750116EEC
:101268001128030BDF6E15C0D9FF16C0DAFF010E77
:10127800DF6E010E12001F0E246E4F50D8B43CD002
:10128800000E1A6E240E196E21C01CF020C01BF02F
:10129800060E1DEC0DF0256E2550FC0AD8A402D0D0
:1012A8009D9812002550800A7F0FD8A01200412A6D
:1012B800000E236E000E226E2350800A800F060E49
:1012C800D8B4225CD8B003D0224A232AF5D7000E1E
:1012D800406E000E4F6E4050010DF3501E24D96E23
:1012E800F4501F20DA6EDF50AE6E402A070E4064BD
:1012F8001200010E4F6E12004050010DF3502024D1
:10130800D96EF4502120DA6EDF50AE6E402A070EF7
:1013180040641200010E4F6E1200000186C079F081
:10132800000185C078F000017EC07BF000017DC01F
:101338007AF0060E7AEC0CF00001876F000186C087
:1013480079F0000185C078F0000180C07BF00001D1
:101358007FC07AF0060E7AEC0CF00001876F00016E
:1013680086C079F0000185C078F0000182C07BF06A
:10137800000181C07AF0060E7AEC0CF00001876F4C
:10138800000184692A0E0001766F0001000E000139
:10139800786F0001840E0001776F010EDCEC0CF011
:1013A8000001836F1200EACF98F0E1CF99F0E2CF05
:1013B8009AF0D9CF9BF0DACF9CF0F3CF9DF0F4CF21
:1013C8009EF0F6CF9FF0F7CFA0F0F8CFA1F0F5CFC1
:1013D800A2F09EA603D09E9662EC00F0F2A403D081
:1013E800F29416EC0AF0E2EC0AF0A2C0F5FFA1C0F4
:1013F800F8FFA0C0F7FF9FC0F6FF9EC0F4FF9DC096
:10140800F3FF9CC0DAFF9BC0D9FF9AC0E2FF99C0E6
:10141800E1FF98C0EAFF97C0E9FF96C0FBFF95C0BF
:10142800FAFF1100000E0001616F000E0001606FED
:101438009AEC0DF00001000E0001796F00017F0E9B
:101448000001786F0001000E00017B6F0001810E22
:1014580000017A6F020E7AEC0CF000017D6F00013A
:101468007E6B00017DBF7E0700017D51020A7E115F
:10147800D8A412000A0E0001766F0001000E0001C8
:10148800786F0001810E0001776F020EDCEC0CF022
:1014980012000001A4C0BCF00001A3C0BBF0000111
:1014A80020EE0AF00001BB51D9260001BC51DA2216
:1014B800000EDF6E000120EE18F00001BB51D926A6
:1014C8000001BC51DA22000EDF6E000120EE19F097
:1014D8000001BB51D9260001BC51DA22050EDF6E8E
:1014E800000120EE1BF00001BB51D9260001BC51C0
:1014F800DA22000EDF6E1200000120EE34F0000147
:10150800A351D9260001A451DA22000EDF6E000192
:1015180020EE35F00001A351D9260001A451DA22AA
:10152800000EDF6E000E0001A56F030E0001A56519
:1015380001D012000001A5510D0DF3500001A325A3
:10154800D96EF4500001A421DA6E000EDF6E00019E
:10155800A52B030E0001A565EDD712000001A651C9
:10156800A511D8B426D0010E0001A76F06D000013E
:10157800D890A537A6370001A72B0001A6AFF7D74B
:101588000001A5510001A35D0001A6510001A45965
:10159800D8A008D00001A5510001A35F0001A65101
:1015A8000001A45B0001D890A633A5330001A72F42
:1015B800E7D7A3C0A3F0A4C0A4F012000001A86755
:1015C80001D0120007EC0CF0000163510001621118
:1015D800D8A41200A3EC0DF00001615100016011C4
:1015E800D8B412000101010E0001616F0101360E2D
:1015F8000001606F95EC0CF00009D8A412000101FD
:10160800010E0001616F01016C0E0001606F95EC25
:101618000CF00009D8B4DEEC0DF01200B7C1D9FF08
:10162800B8C1DAFFDE2A000EDD22B7C1D9FFB8C182
:10163800DAFF0001DECFA3F00001DDCFA4F0000E39
:101648000001A66F0A0E0001A56FB2EC0AF00001B6
:10165800A351090A0001A411D8A41200140E010113
:10166800B36F0101B8C1B5F10101B7C1B4F1020E00
:10167800AEEC0CF00101BF6F1200000E0001A86F64
:101688000101010E0001A46F01016C0E0001A36F9E
:1016980080EC0AF00101010E0001A46F0101360E71
:1016A8000001A36F80EC0AF00101010E0001A46F94
:1016B8000101000E0001A36F80EC0AF00201020E86
:1016C8000001A46F0201000E0001A36F80EC0AF074
:1016D800120001010001A5C1A6F001010001A4C189
:1016E800A5F001010001A3C1A4F001010001A2C1FC
:1016F800A3F010D0A5C0D9FFA6C0DAFFA3C0E1FFB0
:10170800A4C0E2FFDFCFE7FF0001A54BA62B000135
:10171800A34BA42B0101A607D8A0A7070101A6295E
:10172800D8B4A729D8B41200E5D7000163C069F07E
:10173800000162C068F0000161C067F0000160C08C
:1017480066F010D068C0D9FF69C0DAFF66C0E1FF53
:1017580067C0E2FFDFCFE7FF0001684B692B00019C
:10176800664B672B00016407D8A065070001642950
:10177800D8B46529D8B41200E5D702EE00F0360EC9
:10178800EE6AE806FDE101EE00F0A20EEE6AE80658
:10179800FDE100EEA8F0130EEE6AE806FDE100EEAA
:1017A8003BF0140EEE6AE806FDE1C20EF66E1B0E63
:1017B800F76E000EF86E0900F5CF4FF0000EF86EC8
:1017C80000019DEF04F004C00AF003C009F002C054
:1017D80008F001C007F00ED009C0D9FF0AC0DAFF2F
:1017E80007C0E1FF08C0E2FFDFCFE7FF094A0A2A86
:1017F800074A082A0506D8A006060528D8B40628E8
:10180800D8B41200E9D7F2AC07D0000E0001636F1C
:10181800000E0001626F1200A3EC0DF0000161518F
:1018280000016011D8B407D0000E0001636F000EEC
:101838000001626F1200000E0001636F010E0001CB
:10184800626F12000001A56F0001A351F30B9A6E9D
:10185800A5C0A4F07F0E0001A4170001D890A435FC
:10186800CD6E000ECF6E000ECE6E9E900001A5AF1D
:1018780002D09D8001D09D909ABE9A86CD8012009C
:101888000001A76F0101010E0101A96F01016C0E92
:101898000101A86FA7C0AAF10101B7C1ACF101010C
:1018A800B6C1ABF10101B9C1AEF10101B8C1ADF1E9
:1018B80012EC06F012000001A76F0101010E0101F0
:1018C800A96F0101360E0101A86FA7C0AAF1010195
:1018D800B7C1ACF10101B6C1ABF10101B9C1AEF1BB
:1018E8000101B8C1ADF112EC06F0120000017C6FE5
:1018F8000201020E00016B6F0201000E00016A6F07
:101908007CC06CF0000179C06EF0000178C06DF009
:1019180000017BC070F000017AC06FF0A1EC06F006
:101928001200000120EE35F000016051D9260001B7
:101938006151DA22DF500001626F000162510D0D22
:10194800F35000016025D96EF45000016121DA6E70
:10195800DF5012000101B66F0201020E0101A96FEA
:101968000201000E0101A86FB6C1AAF1B3C1ABF123
:101978000101B5C1ADF10101B4C1ACF130EC07F022
:1019880012000101B66F0101010E0101A96F0101E9
:10199800000E0101A86FB6C1AAF1B3C1ABF10101F4
:1019A800B5C1ADF10101B4C1ACF130EC07F01200E2
:1019B8000001796F0101010E00016B6F0101360E04
:1019C80000016A6F79C06CF076C06DF0000178C0D4
:1019D8006FF0000177C06EF0A6EC07F0120091ECF2
:1019E8000DF001C01BF002C01CF00B0E176E000EAC
:1019F800196E000E186E000E44EC0DF0000E026E0B
:101A0800000E016E88EC0DF012000001A36F9388A0
:101A1800938AA3C0C8FF000EC76E000EC66E000EE4
:101A2800C56E0E0EC612C78E8188818AC580C68A89
:101A380012001D6E0101010E0C6E0101000E0B6EED
:101A48001DC00DF01AC00FF019C00EF01CC011F027
:101A58001BC010F01CEC08F012000001A36F00017D
:101A6800A3517F0BD56E000ED76E000ED66EF29482
:101A78000001A3AF02D0F28A01D0F29AD58E1200EB
:101A88001A6E0101010E0C6E01016C0E0B6E1AC06C
:101A98000DF017C00EF019C010F018C00FF0EAECE6
:101AA80008F01200948E949C7E86AD84000E7F6EA2
:101AB800CF0EB06EAD98AC8E9F989D989D8AAD8ADA
:101AC800AC8812001F0E0101B36F0101B8C1B5F156
:101AD8000101B7C1B4F1060EC5EC0CF00101B96FF4
:101AE8009D88120001010001A9C1A4F001010001B3
:101AF800A8C1A3F01200A3C0D9FFA4C0DAFF000E4A
:101B0800DE6E000EDD6E120001C003F002C004F0AC
:101B180004C0CFFF03C0CEFF1200CECF03F0CFCF5B
:101B280004F003C001F004C002F0120060C062F0CB
:101B380061C063F063C0D7FF62C0D6FF1200000E19
:101B4800F2AE010E0001606F0001616B1200D08ED1
:101B5800F28EF28C12008C9C8C8C8C9C12008C9ACD
:101B68008C8A8C9A12008C988C888C9812008C9491
:101B78008C848C9412008C988C888C9812008C948D
:101B88008C848C9412008C9C8C8C8C9C12008C9A6B
:101B98008C8A8C9A12008C988C888C9812008C9461
:101BA8008C848C9412008C9E8C8E8C9E1200000E5D
:0C1BB800956E1200D38E03001200010095
:08FFF8008AF795FFF2F9FFF111
:00000001FF
