:0400000060EF00F0BD
:10000800FACF8AF0FBCF8BF0E9CF8CF03EEF0BF004
:10001800D8CF37F0E8CF38F0E0CF39F0FACF3AF060
:10002800FBCF3BF0E9CF3CF0EACF3DF0E1CF3EF02B
:10003800E2CF3FF0D9CF40F0DACF41F0F3CF42F032
:10004800F4CF43F0F6CF44F0F7CF45F0F8CF46F0C1
:10005800F5CF47F09EA003D09E9003EC0EF09EAA29
:1000680003D09E9A73EC05F09EB89DA802D066EC6A
:100078000AF047C0F5FF46C0F8FF45C0F7FF44C087
:10008800F6FF43C0F4FF42C0F3FF41C0DAFF40C0AF
:10009800D9FF3FC0E2FF3EC0E1FF3DC0EAFF3CC0E0
:1000A800E9FF3BC0FBFF3AC0FAFF39C0E0FF38C0A8
:1000B800E8FF37C0D8FF1000FCEF0AF0000E00017F
:1000C800896F000E0001826F000E0001886F000E1C
:1000D8000001866F000E0001836F010E0001846F1E
:1000E800C6AC24D0C69C000120EE21F00001CB5103
:1000F800D9260001CC51DA22050EDF6E010E00016F
:10010800836F000120EE23F00001CB51D9260001B6
:10011800CC51DA22DF2A000120EE22F00001CB5177
:10012800D9260001CC51DA22040EDF6EC7A005D013
:10013800C9CF85F0010E0001896F000183674DD298
:1001480036D2C7A64AD200018951ACEC09F00001A9
:1001580020EE21F00001CB51D9260001CC51DA2242
:10016800080EDF623AD2000E0001896F010E00010D
:10017800866F33D2C7A82AD0000120EE20F00001F4
:10018800CB51D9260001CC51DA22DF2A000189514E
:10019800D8B402D2C7BA04D0010E0001886FFCD1CE
:1001A800000120EE23F00001CB51D9260001CC51EB
:1001B800DA22DF2A000120EE22F00001CB51D926F5
:1001C8000001CC51DA22060EDF6EE6D1000189511A
:1001D800D8B403D2000120EE20F00001CB51D9267B
:1001E8000001CC51DA22DF2AC7BA2AD0C7B40BD013
:1001F800000120EE21F00001CB51D9260001CC519D
:10020800DA22070E7DD0000120EE21F00001CB514B
:10021800D9260001CC51DA22080EDF6E010E00014A
:10022800866F000E0001896F000120EE1EF00001AC
:10023800CB51D9260001CC51DA22000EDF6E20D036
:10024800000120EE23F00001CB51D9260001CC514A
:10025800DA22DF2A000120EE21F00001CB51D92655
:100268000001CC51DA22050EDF6E000120EE22F0EB
:100278000001CB51D9260001CC51DA22060E40D01C
:10028800E5EC0EF0000120EE1EF00001CB51D9265E
:100298000001CC51DA22DF5000017D6F0E0E000103
:1002A8007D5DD8B079D1E5EC0EF0000120EE1EF0AE
:1002B8000001CB51D9260001CC51DA22DF500001D0
:1002C8007D6F00017D51010D100EF326000EF42202
:1002D800F3500001CB25D96EF4500001CC21DA6E21
:1002E800DF50C96E000120EE1EF00001CB51D92667
:1002F8000001CC51DA22DF2A010E0001826F6DD194
:10030800DF6E6BD1C7A85AD0000120EE20F00001A3
:10031800CB51D9260001CC51DA22DF2A00018951BC
:10032800D8B448D0C7AA25D0000120EE0EF00001AD
:10033800CB51D9260001CC51DA22DF5000017D6F64
:1003480000017D51010DF3500001CB25D96EF45009
:100358000001CC21DA6E000185C0DFFF000120EE2C
:100368000EF00001CB51D9260001CC51DA22DF2A48
:1003780021D0000120EE23F00001CB51D926000145
:10038800CC51DA22DF2A000120EE22F00001CB5105
:10039800D9260001CC51DA22060EDF6E000120EECC
:1003A80021F00001CB51D9260001CC51DA22050EEB
:1003B800DF6EF2D0010E0001886FEED00001895186
:1003C800D8B40BD1000120EE20F00001CB51D92682
:1003D8000001CC51DA22DF2AC7AA1ED0000120EE84
:1003E8000EF00001CB51D9260001CC51DA22DF50A2
:1003F80000017D6F00017D51010DF3500001CB25F7
:10040800D96EF4500001CC21DA6E000185C0DFFFFF
:10041800000120EE0EF0B8D0C7A4C2D6000120EE2D
:1004280021F00001CB51D9260001CC51DA22080E67
:10043800DF6ECBC0D9FFCCC0DAFF000110EE10F0A0
:100448000001CB51E1260001CC51E222DFCFE7FFCA
:10045800000120EE01F00001CB51D9260001CC515A
:10046800DA22000110EE11F00001CB51E126000163
:10047800CC51E222DFCFE7FF000120EE02F00001BD
:10048800CB51D9260001CC51DA22000110EE12F02E
:100498000001CB51E1260001CC51E222DFCFE7FF7A
:1004A800000120EE03F00001CB51D9260001CC5108
:1004B800DA22000110EE13F00001CB51E126000111
:1004C800CC51E222DFCFE7FF000120EE04F000016B
:1004D800CB51D9260001CC51DA22000110EE14F0DC
:1004E8000001CB51E1260001CC51E222DFCFE7FF2A
:1004F800000120EE05F00001CB51D9260001CC51B6
:10050800DA22000110EE15F00001CB51E1260001BE
:10051800CC51E222DFCFE7FF000120EE1FF00001FF
:10052800CB51D9260001CC51DA22060EDF6E00012C
:1005380020EE1EF00001CB51D9260001CC51DA2261
:10054800000EDF6E010E0001886F010E0001866F3C
:10055800000E0001896F000120EE1EF00001CB5152
:10056800D9260001CC51DA22000EDF6E000120EE00
:1005780010F00001CB51D9260001CC51DA22DF500E
:10058800C96E000120EE1EF00001CB51D9260001F2
:10059800CC51DA22DF2A21D0000120EE21F000011F
:1005A800CB51D9260001CC51DA22050EA9D600017B
:1005B80020EE21F00001CB51D9260001CC51DA22DE
:1005C800DF50050AD8B4BDD5030AD8B4D3D5010A7B
:1005D800D8B498D60F0AD8B453D60001896704D086
:1005E80000018251D8B402D0C6A8C688000120EE06
:1005F8000EF00001CB51D9260001CC51DA220C0EA5
:10060800DF6423D00001886720D0000120EE21F0AC
:100618000001CB51D9260001CC51DA22050EDF6E3C
:10062800000120EE23F00001CB51D9260001CC5166
:10063800DA22DF2A000120EE22F00001CB51D92670
:100648000001CC51DA22070EDF6E00018851D8B4C0
:100658003FD0000120EE20F00001CB51D926000147
:10066800CC51DA22000110EE0EF00001CB51E12648
:100678000001CC51E222E75000017D6F00017D515D
:10068800010DF3500001CB25E16EF4500001CC219F
:10069800E26EDFCFE7FF280E0001766F0001CCC0C5
:1006A80078F00001CBC077F0000120EE0EF00001D9
:1006B800CB51D9260001CC51DA22DF5000017D6FE1
:1006C80000017D29ECEC0DF0000120EE0EF041D088
:1006D800000120EE23F00001CB51D9260001CC51B6
:1006E800DA22DF50D8B43DD0000120EE23F000011B
:1006F800CB51D9260001CC51DA22DF5000017F6F9F
:10070800000120EE22F00001CB51D9260001CC5186
:10071800DA22DF500001806F000120EE20F0000196
:10072800CB51D9260001CC51DA22DF500001816F6C
:10073800290E0001766F0001000E0001786F00019C
:100748007F0E0001776F030EECEC0DF0000120EE38
:1007580023F00001CB51D9260001CC51DA22000E3A
:10076800DF6E00018651D8B41FD0100E0001CB25D2
:100778000001606F000E0001CC210001616F0E0EB8
:1007880064EC07F02A0E0001766F0001CCC078F007
:100798000001CBC077F0000EECEC0DF0010E00016B
:1007A800846F000E0001866F00018451D8B41200D6
:1007B8000001000E0001796F0001870E0001786FBB
:1007C800100E0001CB2500017A6F000E0001CC212C
:1007D80000017B6F0E0E8AEC0DF000017E6F000E9B
:1007E8000001846F1200E00ED36E9B8C0201020E92
:1007F80001018B6F0201C10E01018A6FB4EC0BF08D
:100808000201020E01018B6F0201BD0E01018A6F08
:1008180086EC0EF07BEC0CF0000E936E000E8A6EE8
:10082800960E41EC0EF0000E01018A6F9B0E36EC1D
:100838000DF09F909F9A9F869E0E19EC0EF09D8654
:10084800C0EC0EF0D5EC0EF0D1EC0EF0CDEC0EF0C5
:10085800C9EC0EF0C5EC0EF066EC0EF0440E020189
:10086800996F440E02019A6F000E0201BC6F0FD0FF
:100878000201BC51010D02018A0EF324D96E020156
:10088800020EF420DA6E550EDF6E0201BC2B0D0E3F
:100898000201BC65EDD70201020E0101A36F02013E
:1008A800C00E0101A26F0201020E0101A56F020133
:1008B8009B0E0101A46F0E0E6FEC0DF00201BF6FCD
:1008C8000201BFBF43D034D00201020E01018B6F79
:1008D8000201AA0E01018A6F02010101C0C28CF156
:1008E80001018D6B0201BF5101018E6F01018F6BF8
:1008F80001018EBF8F070201020E0101916F0201F3
:100908009B0E0101906FB9EC0EF020D09BC298F2BB
:100918001DD0280E0101A06F0201020E0101A26F75
:1009280002018A0E0101A16F0E0ED5EC0DF00ED05A
:100938000201C0510A0AD8B4C7D7220AD8B4E6D7E8
:10094800010AD8B4E3D7030AD8B4E3D70201020EE8
:100958000101A36F0201C00E0101A26F0201020E84
:100968000101A56F02019B0E0101A46F0E0E54EC4C
:100978000DF00201BF6F0201BFBF76D7000E020162
:10098800BB6F000E0201BA6F0201BB51800A800FD3
:100998000E0ED8B4BA5DD8B087D00201AC0E0201F1
:1009A800BA25D96E0201020E0201BB21DA6E000ED1
:1009B800DF6E0201BA4BBB2BE7D70201020E010121
:1009C800A86F0201BD0E0101A76F02010101C0C29B
:1009D800A9F10101AA6B0201BF510101AB6F01012D
:1009E800AC6B0101ABBFAC070201020E0101AE6F97
:1009F80002019B0E0101AD6FB8EC0AF035D7F10E7C
:100A08000201AC6F9BC2ADF20201020E0101A56F9B
:100A18000201AC0E0101A46F76EC0EF025D7F20EA0
:100A28000201AC6F9BC2ADF29CC2AEF20201020E93
:100A38000101A56F0201AC0E0101A46F76EC0EF066
:100A480013D7F30E0201AC6F9BC2ADF20201020E86
:100A58000101A56F0201AC0E0101A46F76EC0EF046
:100A680003D7F40E0201AC6F9BC2ADF20201020E75
:100A78000101A56F0201AC0E0101A46F76EC0EF026
:100A8800F3D6110E0201AC6F9BC2ADF20201020E49
:100A98000101A56F0201AC0E0101A46F76EC0EF006
:100AA800E3D6C9EC0EF0E0D60201C0510B0AD8B467
:100AB80084D7150AD8B4A3D7010AD8B4F2D73F0A05
:100AC800D8B49DD7010AD8B4AAD7030AD8B4B9D7DD
:100AD800010AD8B4C6D7070AD8B4D3D7C5D64B6647
:100AE80041D04D50010D0001980EF324D96E00013C
:100AF800000EF420DA6EAFCFDFFF4D6619D000018B
:100B08009829D8B412D04F660DD0010E4F6E4EC042
:100B180030F0220E176E000E196E300E186E010E90
:100B280054EC0EF0000E4D6E1200000E4F6E19D0F0
:100B3800100E4D6416D00001A951FE0AD8B411D088
:100B4800000E4D6E4EC031F0230E176E000E196E5A
:100B5800310E186E010E54EC0EF0010E4C6ED9ECED
:100B68000EF04D2A110E4D641200000E4D6E00015C
:100B780099514E18D8B411D04EC02EF099C02FF00C
:100B8800210E176E000E196E2E0E186E020E54EC02
:100B98000EF0010E4C6EDDEC0EF0000E2D6E000E08
:100BA800366E000E356E3650800A800F0E0ED8B4A1
:100BB800355CD8B021D0020E35241B6E000E3620CD
:100BC8001C6E0001980E1B24D96E0001000E1C201B
:100BD800DA6E1D0E3524E16E000E3620E26EDFCF90
:100BE800E7FF1D0E3524D96E000E3620DA6EDF5071
:100BF8002D1A354A362AD7D70001A8512D18D8B44E
:100C08000FD04EC032F0200E176E000E196E320E45
:100C1800186E010E54EC0EF0010E4C6EE1EC0EF065
:100C28004C662CD01DC034F03450110AD8B41CD0F6
:100C38003450F10AD8B418D03450F20AD8B414D0C9
:100C48003450F30AD8B410D03450F40AD8B40CD0C5
:100C58004EC033F0240E176E000E196E330E186E48
:100C6800010E54EC0EF02B6E1F0E176E000E196E4F
:100C78001D0E186E0E0E54EC0EF02C6E4E2A000E41
:100C88004C6E1200010120EE89F001019451D92621
:100C980001019551DA22DF5001019D6F01019D513B
:100CA800110DF350010194250101A06FF4500101C9
:100CB80095210101A16F010EA0C1D9FFA1C1DAFFE1
:100CC800DF626DD0010120EE01F00101A051D926AB
:100CD8000101A151DA22DF500101965DD8B002D09E
:100CE800FD0E1200010120EE01F00101A051D926EC
:100CF8000101A151DA22DF5001019B6F01019B51D3
:100D080001019E6F01019F6B01019AC18BF10101E5
:100D180099C18AF1030E0101A02501019B6F000E04
:100D28000101A12101019C6F9BC18CF19CC18DF136
:100D38009EC18EF19FC18FF1A7EC0CF0010120EE4E
:100D480089F001019451D92601019551DA22010156
:100D580010EE89F001019451E12601019551E2223A
:100D6800E75001019B6F01019B29070BDF6E010111
:100D780020EE02F00101A051D9260101A151DA2289
:100D880097C1E1FF98C1E2FFDFCFE7FFA0C1D9FF1C
:100D9800A1C1DAFF000EDF6E01019E511200FC0EA8
:100DA8001200000120EE89F000016A51D9260001E5
:100DB8006B51DA22DF500001736F00017351110D7E
:100DC800F35000016A250001766FF45000016B2191
:100DD8000001776F010E76C0D9FF77C0DAFFDF62B6
:100DE8006DD0000120EE01F000017651D9260001F6
:100DF8007751DA22DF5000016C5DD8B002D0FD0EC9
:100E08001200000120EE01F000017651D926000100
:100E18007751DA22DF500001716F00017151000132
:100E2800746F0001756B000170C061F000016FC044
:100E380060F0030E000176250001716F000E0001BD
:100E480077210001726F71C062F072C063F074C0E4
:100E580064F075C065F0CFEC0CF0000120EE89F06D
:100E680000016A51D92600016B51DA22000110EE07
:100E780089F000016A51E12600016B51E222E75036
:100E88000001716F00017129070BDF6E000120EE70
:100E980002F000017651D92600017751DA226DC09F
:100EA800E1FF6EC0E2FFDFCFE7FF76C0D9FF77C072
:100EB800DAFF000EDF6E000174511200FC0E120002
:100EC8000001646F000120EE1FF00001CB51D9260C
:100ED8000001CC51DA22000EDF6E3ED0000120EE78
:100EE8001FF00001CB51D9260001CC51DA22DF5086
:100EF8000001626F00016251010DF350000160258D
:100F0800D96EF45000016121DA6E000110EE1FF075
:100F18000001CB51E1260001CC51E222E75000014B
:100F2800636F00016351010D100EF326000EF422C9
:100F3800F3500001CB25E16EF4500001CC21E26EA4
:100F4800DFCFE7FF000120EE1FF00001CB51D926CB
:100F58000001CC51DA22DF2A000120EE1FF0000147
:100F6800CB51D9260001CC51DA22DF500001626F43
:100F7800000164510001625DD8A0B0D7000120EEE5
:100F88001FF00001CB51D9260001CC51DA22000113
:100F980064C0DFFF000120EE1EF00001CB51D9260E
:100FA8000001CC51DA22010EDF6E000120EE10F0B4
:100FB8000001CB51D9260001CC51DA22DF50C96E8D
:100FC800C6881200010196C19BF101019C6B0101C9
:100FD80020EE88F001019451D92601019551DA22B9
:100FE800DF5001019D6F01019D51110DF350010169
:100FF800942501019E6FF4500101952101019F6F15
:101008009EC1D9FF9FC1DAFFDF50D8B402D0FF0ECE
:101018001200010120EE01F001019E51D9260101C3
:101028009F51DA22010196C1DFFF010120EE02F093
:1010380001019E51D92601019F51DA22010197C170
:10104800DFFF030E01019E2501018A6F000E0101D9
:101058009F2101018B6F010199C18DF1010198C197
:101068008CF19BC18EF19CC18FF1A7EC0CF00101B2
:1010780020EE88F001019451D92601019551DA2218
:10108800010110EE88F001019451E126010195510A
:10109800E222E75001019A6F01019A29070BDF6EDE
:1010A8009EC1D9FF9FC1DAFF010EDF6E010E12004B
:1010B80000016CC071F00001726B000120EE88F035
:1010C80000016A51D92600016B51DA22DF50000174
:1010D800736F00017351110DF35000016A2500016F
:1010E800746FF45000016B210001756F74C0D9FF53
:1010F80075C0DAFFDF50D8B402D0FF0E120000012D
:1011080020EE01F000017451D92600017551DA2250
:1011180000016CC0DFFF000120EE02F000017451F5
:10112800D92600017551DA2200016DC0DFFF030ED8
:10113800000174250001606F000E00017521000197
:10114800616F00016FC063F000016EC062F071C092
:1011580064F072C065F0CFEC0CF0000120EE88F06E
:1011680000016A51D92600016B51DA22000110EE04
:1011780088F000016A51E12600016B51E222E75034
:101188000001706F00017029070BDF6E74C0D9FF72
:1011980075C0DAFF010EDF6E010E120003C0D9FF21
:1011A80004C0DAFFFF0EDF6E20EE01F00350D926EF
:1011B8000450DA224AC0DFFF4A2A20EE11F0035019
:1011C800D9260450DA22FE0EDF6E000E076E000EDE
:1011D800086E49D00850010DF3500124D96EF4501F
:1011E8000220DA6EDF50FF0AD8B40BD00850010D88
:1011F800F3500124D96EF4500220DA6EFE0EDF623D
:1012080010D00850056E066A020E0526000E06224A
:1012180005500324D96E06500420DA6EFD0EDF6EE9
:1012280017D00850010DF3500124D96EF450022054
:10123800DA6E0850056E066A020E0526000E0622B2
:1012480005500324E16E06500420E26EDFCFE7FF6D
:101258000850010DF3500124D96EF4500220DA6EC3
:10126800DF50071A082A0D0E0864B4D720EE10F0D4
:101278000350D9260450DA2207C0DFFF120020EEFF
:1012880089F00B50D9260C50DA22DF50146E145016
:10129800110DF3500B24176EF4500C20186E010E2C
:1012A80017C0D9FF18C0DAFFDF6250D020EE01F076
:1012B8001750D9261850DA22DF500D5CD8B002D06A
:1012C800FD0E120020EE01F01750D9261850DA2230
:1012D800DF50126E1250156E166A11C002F010C05F
:1012E80001F0030E1724126E000E1820136E12C0A0
:1012F80003F013C004F015C005F016C006F0F7ECB3
:101308000CF020EE89F00B50D9260C50DA2210EEA2
:1013180089F00B50E1260C50E222E750126E122899
:10132800070BDF6E20EE02F01750D9261850DA228C
:101338000EC0E1FF0FC0E2FFDFCFE7FF17C0D9FF04
:1013480018C0DAFF000EDF6E15501200FC0E1200F6
:101358000001606F000120EE20F00001CB51D9267A
:101368000001CC51DA22010EDF6E000120EE0EF0F2
:101378000001CB51D9260001CC51DA22000EDF6ED4
:1013880000016051D8B43DD0C7AA21D0000120EE99
:1013980021F00001CB51D9260001CC51DA22050EEB
:1013A800DF6E000120EE23F00001CB51D9260001A9
:1013B800CC51DA22DF2A000120EE22F00001CB51C5
:1013C800D9260001CC51DA22050EDF6E1200C7A41F
:1013D8000CD0000120EE21F00001CB51D9260001EC
:1013E800CC51DA22080EDF6E1200000120EE21F047
:1013F8000001CB51D9260001CC51DA22070EDF6E4D
:101408001200000120EE21F00001CB51D926000185
:10141800CC51DA22060EDF6E12000DC012F0136AEC
:1014280020EE88F00B50D9260C50DA22DF50146ECB
:101438001450110DF3500B24156EF4500C20166E39
:1014480015C0D9FF16C0DAFFDF50D8B402D0FF0E9E
:10145800120020EE01F01550D9261650DA220DC0E0
:10146800DFFF20EE02F01550D9261650DA220EC002
:10147800DFFF030E1524016E000E1620026E10C049
:1014880004F00FC003F012C005F013C006F0F7EC2B
:101498000CF020EE88F00B50D9260C50DA2210EE12
:1014A80088F00B50E1260C50E222E750116E11280B
:1014B800070BDF6E15C0D9FF16C0DAFF010EDF6E0D
:1014C800010E12001F0E2C6E5150D8B43AD0000EE7
:1014D8001A6E2C0E196E000E1C6E1E0E1B6E0E0E52
:1014E8002DEC0EF02D6E2D50FC0AD8A402D09D983C
:1014F80012002D50800A7F0FD8A01200000E026E35
:101508001E0E016E0001000E046E0001AB0E036E8C
:10151800D2EC08F0000E506E000E516E5050010DC6
:101528000001AB0EF324D96E0001000EF420DA6E30
:10153800DF50AE6E502A110E50641200010E516E2B
:1015480012005050010D0001AB0EF324D96E0001BA
:10155800000EF420DA6EDF50AE6E502A110E506481
:101568001200010E516E1200ECEC0EF0A7C1D9FF6B
:10157800A8C1DAFFDE2A000EDD22A7C1D9FFA8C163
:10158800DAFF0101DECF8AF10101DDCF8BF1000E18
:1015980001018D6F0A0E01018C6F1BEC0CF001012B
:1015A8008A51090A01018B11D8A41200140E0101F5
:1015B800A06F0101A8C1A2F10101A7C1A1F1020E0A
:1015C800D5EC0DF00101BD6F20EEBDF011EEAFF0CE
:1015D8000E0EDECFE6FFE82EFCD70101010E010159
:1015E800A56F0101AF0E0101A46F76EC0EF0120099
:1015F80004EE00F08A0EEE6AE806FDE103EE00F064
:101608008A0EEE6AE806FDE102EE00F08A0EEE6A46
:10161800E806FDE101EE00F08A0EEE6AE806FDE15B
:1016280000EE98F0250EEE6AE806FDE100EE48F0BF
:10163800090EEE6AE806FDE1640EF66E1D0EF76E01
:10164800000EF86E00EEBDF010EE0EF00900F5CFBA
:10165800EEFFE550E150FAE1DC0EF66E1D0EF76E76
:10166800000EF86E0900F5CF51F0000EF86E00017B
:10167800F7EF03F0EACF8DF0E1CF8EF0E2CF8FF0F5
:10168800D9CF90F0DACF91F0F3CF92F0F4CF93F076
:10169800F6CF94F0F7CF95F0F8CF96F0F5CF97F016
:1016A8009EA603D09E9662EC00F0F2A403D0F294BA
:1016B8007DEC0BF04BEC0CF097C0F5FF96C0F8FFF3
:1016C80095C0F7FF94C0F6FF93C0F4FF92C0F3FFF4
:1016D80091C0DAFF90C0D9FF8FC0E2FF8EC0E1FF52
:1016E8008DC0EAFF8CC0E9FF8BC0FBFF8AC0FAFF00
:1016F8001100000E0001616F000E0001606FA1EC87
:101708000EF00001000E0001796F00017F0E00014C
:10171800786F0001000E00017B6F0001810E00014F
:101728007A6F020E8AEC0DF000017D6F00017E6B6E
:1017380000017DBF7E0700017D51020A7E11D8A4F9
:1017480012000A0E0001766F0001000E0001786F8A
:101758000001810E0001776F020EECEC0DF0120013
:10176800010100018BC1CCF0010100018AC1CBF05D
:10177800000120EE0EF00001CB51D9260001CC511A
:10178800DA22000EDF6E000120EE20F00001CB51BE
:10179800D9260001CC51DA22000EDF6E000120EEBE
:1017A80021F00001CB51D9260001CC51DA22050ED7
:1017B800DF6E000120EE23F00001CB51D926000195
:1017C800CC51DA22000EDF6E1200010120EE88F003
:1017D80001018A51D92601018B51DA22000EDF6EF0
:1017E800010120EE89F001018A51D92601018B51AE
:1017F800DA22000EDF6E000E01018C6F070E010168
:101808008C6501D0120001018C51110DF3500101BA
:101818008A25D96EF45001018B21DA6E000EDF6E35
:1018280001018C2B070E01018C65EDD71200010117
:101838008D518C11D8B426D0010E01018E6F06D0BF
:101848000101D8908C378D3701018E2B01018DAFA6
:10185800F7D701018C5101018A5D01018D51010108
:101868008B59D8A008D001018C5101018A5F010170
:101878008D5101018B5B0101D8908D338C330101AF
:101888008E2FE7D78AC18AF18BC18BF11200000134
:10189800AA6701D0120017EC0DF000016351000196
:1018A8006211D8A41200AAEC0EF0000161510001E7
:1018B8006011D8B412000201020E0001616F02012A
:1018C800000E0001606FA5EC0DF00009D8A412000D
:1018D8000101010E0001616F0101000E0001606F3E
:1018E800A5EC0DF00009D8B4E9EC0EF01200000EDA
:1018F8000001AA6F0101010E01018B6F0101000EA9
:1019080001018A6FE9EC0BF00201020E01018B6FF5
:101918000201000E01018A6FE9EC0BF00301030ECE
:1019280001018B6F0301000E01018A6FE9EC0BF0D6
:101938000401040E01018B6F0401000E01018A6F7E
:10194800E9EC0BF0120001018DC193F101018CC18A
:1019580092F101018BC191F101018AC190F110D07E
:1019680092C1D9FF93C1DAFF90C1E1FF91C1E2FFB3
:10197800DFCFE7FF0101924B932B0101904B912B95
:1019880001018E07D8A08F0701018E29D8B48F29AD
:10199800D8B41200E5D7000163C069F0000162C045
:1019A80068F0000161C067F0000160C066F010D007
:1019B80068C0D9FF69C0DAFF66C0E1FF67C0E2FF0F
:1019C800DFCFE7FF0001684B692B0001664B672BEF
:1019D80000016407D8A0650700016429D8B4652907
:1019E800D8B41200E5D704C00AF003C009F002C059
:1019F80008F001C007F00ED009C0D9FF0AC0DAFF0D
:101A080007C0E1FF08C0E2FFDFCFE7FF094A0A2A63
:101A1800074A082A0506D8A006060528D8B40628C5
:101A2800D8B41200E9D7F2AC07D0000E0001636FFA
:101A3800000E0001626F1200AAEC0EF00001615165
:101A480000016011D8B407D0000E0001636F000ECA
:101A58000001626F1200000E0001636F010E0001A9
:101A6800626F120001018C6F01018A51F30B9A6EAB
:101A78008CC18BF17F0E01018B170101D8908B353A
:101A8800CD6E000ECF6E000ECE6E9E9001018CAF13
:101A980002D09D8001D09D909ABE9A86CD8012007A
:101AA8000101A66F0101010E0101956F0101000EF0
:101AB8000101946FA6C196F10101A3C198F101013A
:101AC800A2C197F10101A5C19AF10101A4C199F13F
:101AD80046EC06F012000101A66F0201020E010198
:101AE800956F0201000E0101946FA6C196F10101E4
:101AF800A3C198F10101A2C197F10101A5C19AF111
:101B08000101A4C199F146EC06F0120000017C6FB6
:101B18000401040E00016B6F0401000E00016A6FDE
:101B28007CC06CF0000179C06EF0000178C06DF0E7
:101B380000017BC070F000017AC06FF0D5EC06F0B0
:101B48001200000120EE89F000016051D926000141
:101B58006151DA22DF500001626F00016251110DFC
:101B6800F35000016025D96EF45000016121DA6E4E
:101B7800DF5012000101A36F0301030E0101956FED
:101B88000301000E0101946FA3C196F1A0C197F162
:101B98000101A2C199F10101A1C198F1E6EC07F098
:101BA80012000101A36F0401040E0101956F0401E5
:101BB800000E0101946FA3C196F1A0C197F1010134
:101BC800A2C199F10101A1C198F1E6EC07F0120058
:101BD8000001796F0201020E00016B6F0201000E15
:101BE80000016A6F79C06CF076C06DF0000178C0B2
:101BF8006FF0000177C06EF05CEC08F0120098EC12
:101C08000EF001C01BF002C01CF00B0E176E000E88
:101C1800196E000E186E000E54EC0EF0000E026ED7
:101C2800000E016E8FEC0EF0120001018A6F93888E
:101C3800938A8AC1C8FF000EC76E000EC66E000EDA
:101C4800C56E0E0EC612C78E8188818AC580C68A67
:101C580012001D6E0301030E0C6E0301000E0B6EC5
:101C68001DC00DF01AC00FF019C00EF01CC011F005
:101C78001BC010F043EC09F0120001018A6F01014A
:101C88008A517F0BD56E000ED76E000ED66EF29479
:101C980001018AAF02D0F28A01D0F29AD58E1200E1
:101CA8001A6E0101010E0C6E0101000E0B6E1AC0B6
:101CB8000DF017C00EF019C010F018C00FF011EC9D
:101CC8000AF01200948E949C7E86AD84000E7F6E7E
:101CD800CF0EB06EAD98AC8E9F989D989D8AAD8AB8
:101CE800AC8812001F0E0101A06F0101A5C1A2F16D
:101CF8000101A4C1A1F10E0EBEEC0DF00101A66F09
:101D08009D8812008AC1D9FF8BC1DAFF000EDE6EF2
:101D1800000EDD6E120001C003F002C004F004C022
:101D2800CFFF03C0CEFF1200CECF03F0CFCF04F019
:101D380003C001F004C002F0120060C062F061C08C
:101D480063F063C0D7FF62C0D6FF1200000EF2AE88
:101D5800010E0001606F0001616B120002000000BB
:101D680000000000000000000000010191C193F193
:101D7800010190C192F11200000E956E939093921A
:101D88001200D08EF28EF28C12008C9C8C8C8C9C63
:101D980012008C9A8C8A8C9A12008C988C888C9859
:101DA80012008C948C848C9412008C9A8C8A8C9A55
:101DB80012008C988C888C9812008C948C848C944B
:101DC80012008C9E8C8E8C9E1200D38E0300120003
:061DD8008A7012000100F8
:08FFF8008AF795FFF2F9FFF111
:00000001FF
