:0400000060EF00F0BD
:10000800FACFBBF0FBCFBCF0E9CFBDF06DEF06F047
:10001800D8CF20F0E8CF21F0E0CF22F0FACF23F0BC
:10002800FBCF24F0E9CF25F0EACF26F0E1CF27F087
:10003800E2CF28F0D9CF29F0DACF2AF0F3CF2BF08E
:10004800F4CF2CF0F6CF2DF0F7CF2EF0F8CF2FF01D
:10005800F5CF30F09EA003D09E9000EC0AF09EAA47
:1000680003D09E9A5EEC0AF09EB89DA802D02DECB3
:1000780006F030C0F5FF2FC0F8FF2EC0F7FF2DC0E7
:10008800F6FF2CC0F4FF2BC0F3FF2AC0DAFF29C00B
:10009800D9FF28C0E2FF27C0E1FF26C0EAFF25C03C
:1000A800E9FF24C0FBFF23C0FAFF22C0E0FF21C004
:1000B800E8FF20C0D8FF100053EF07F0E00ED36E22
:1000C8009B8C0201020E0001CA6F0201220E000180
:1000D800C96FACEC06F00201020E0001CA6F020102
:1000E8001E0E0001C96F74EC0AF042EC08F0000E15
:1000F800936E000E8A6E960E16EC0AF0000E000142
:10010800C96F9B0E01EC09F09F909F9A9F86660E1F
:10011800B3EC07F09D86BAEC0AF0A6EC0AF04EECB8
:100128000AF0C6C100F2C7C101F2C8C102F2020159
:10013800020E0101B96F0201000E0101B86F020E33
:10014800D5EC02F0C9C112F2CAC113F2CBC114F244
:100158000201020E0101B96F0201120E0101B86F0E
:10016800020ED5EC02F0CCC115F2CDC116F2CEC10B
:1001780017F20201020E0101B96F0201150E010109
:10018800B86F020ED5EC02F0CFC118F2D0C119F247
:10019800D1C11AF20201020E0101B96F0201180E53
:1001A8000101B86F020ED5EC02F00201020E010146
:1001B800B96F0201120E0101B86F030E89EC09F044
:1001C8000201020E0101B96F0201150E0101B86F9B
:1001D800030E89EC09F00201020E0101B96F020158
:1001E800180E0101B86F030E89EC09F0DED7020181
:1001F800020E0101B76F0201210E0101B66F020163
:10020800020E0101B96F0201030E0101B86F0A0E57
:100218003AEC09F00201206F020120BF54D045D00A
:100228000201020E0101A36F0201100E0101A26F6B
:100238000201010121C2A4F10101A56B02012051B3
:100248000101A66F0101A76B0101A6BFA707020163
:10025800020E0101A96F0201030E0101A86F6BECE8
:100268000AF031D003C21BF22ED0020E0201206F19
:100278001CC203F21DC204F226D0010E0201206F37
:100288003A0E04D0010E0201206F550E0201036FD1
:100298001AD002011B51A80AD8B4EFD7010AD8B462
:1002A800F1D7030AD8B4E1D70ED0020121510A0AC6
:1002B800D8B4B6D7220AD8B4D5D7010AD8B4D2D779
:1002C800030AD8B4E6D70201020E0101B76F020192
:1002D800210E0101B66F0201020E0101B96F020180
:1002E800030E0101B86F0A0E1FEC09F00201206F1E
:1002F800020120BF7CD744D00201020E0101B96F70
:1003080002011E0E0101B86F0201010121C2BAF1FA
:100318000101BB6B020120510101BC6F0101BD6BE2
:100328000101BCBFBD070201020E0101BF6F02013E
:10033800030E0101BE6F13EC08F059D70201020E3B
:100348000101A36F02010E0E0101A26F020101015A
:1003580021C2A4F10101A56B020120510101A66F80
:100368000101A76B0101A6BFA7070201020E010147
:10037800A96F0201030E0101A86F70EC09F037D7CD
:10038800020121510B0AD8B4B7D7150AD8B4D6D769
:10039800010AD8B4D3D72BD7B6EC0AF0280E00013F
:1003A800B76F000E0001B66FE5D00001000E000126
:1003B800B16F0001B70E0001B06F0B0E0001CD2523
:1003C8000001B26F000E0001CE210001B36F0001E1
:1003D80020EE16F00001CD51D9260001CE51DA22C7
:1003E800DF5055EC09F00001B86F0001B851FC0A64
:1003F800D8B412000001B851FD0AD8B412000001A7
:1004080020EE16F00001CD51D9260001CE51DA2296
:100418000001B8C0DFFFC7A60CD0000120EE18F01D
:100428000001CD51D9260001CE51DA22060EDF6E29
:100438000DD0C580000120EE18F00001CD51D9265D
:100448000001CE51DA22060EDF6E1200B2EC0AF07D
:10045800000120EE1CF00001CD51D9260001CE513B
:10046800DA22DF500001B56F0001D890B5350001E0
:10047800B611C96E000120EE18F00001CD51D92641
:100488000001CE51DA220A0EDF6E000120EE15F0CF
:100498000001CD51D9260001CE51DA22000EDF6EBF
:1004A8001200AEEC0AF0000120EE15F00001CD516B
:1004B800D9260001CE51DA22DF500001B56F0001C4
:1004C800B551010D0B0EF326000EF422F350000176
:1004D800CD25D96EF4500001CE21DA6EDF50C96EF9
:1004E800000120EE15F00001CD51D9260001CE51B2
:1004F800DA22DF2A000120EE15F00001CD51D926BD
:100508000001CE51DA22DF500001B56F000120EE64
:1005180016F00001CD51D9260001CE51DA22DF5064
:100528000001B55DD8A01200000120EE18F000010E
:10053800CD51D9260001CE51DA220B0EDF6E120002
:10054800AAEC0AF0C584000120EE15F00001CD5197
:10055800D9260001CE51DA22000EDF6E000120EE0E
:1005680018F00001CD51D9260001CE51DA22050E2E
:10057800DF6E1200000120EE18F00001CD51D926DF
:100588000001CE51DA22DF50050AD8B40ED7030A8B
:10059800D8B45CD70C0AD8B484D7010AD8A41200FE
:1005A800CFD70101C36F0101C3510101BA6FBB6B02
:1005B800020E0101BA27000EBB230101BB51800ABC
:1005C800800F050ED8B4BA5DD8A002D0010E120073
:1005D80061C0BEF10001612B000E0101C26F000E67
:1005E8000101C56F000E0101C46F32D00101C45171
:1005F8000101B825D96E0101C5510101B921DA6E91
:10060800010E0101C4250101BA6F000E0101C521C7
:100618000101BB6F0101BE0E0101BA25E16E0101A6
:10062800010E0101BB21E26EDFCFE7FF0101C451DA
:100638000101B825D96E0101C5510101B921DA6E50
:10064800DF500101C2190101C26F0101C44BC52B62
:100658000101C3510101BA6FBB6B0101C551800A89
:100668000101BC6FBA510101C45D0101BB51800A8F
:100678000101BC59D8A0BAD70101C44BC52B01014F
:10068800BE0E0101C425D96E0101010E0101C5216B
:10069800DA6E0101C2C1DFFF1F0E0101B46F010153
:1006A800010E0101B66F0101BE0E0101B56F010116
:1006B800C351020FBBEC09F00101BD6F9D88000E0C
:1006C8001200010120EE35F00101A851D9260101DF
:1006D800A951DA22DF500101B16F0101B1510D0DAD
:1006E800F3500101A8250101B46FF4500101A921BB
:1006F8000101B56F010EB4C1D9FFB5C1DAFFDF62E0
:100708006DD0010120EE01F00101B451D92601019B
:10071800B551DA22DF500101AA5DD8B002D0FD0E32
:100728001200010120EE01F00101B451D9260101A6
:10073800B551DA22DF500101AF6F0101AF5101015C
:10074800B26F0101B36B0101AEC1A3F10101ADC1EB
:10075800A2F1030E0101B4250101AF6F000E0101E2
:10076800B5210101B06FAFC1A4F1B0C1A5F1B2C10B
:10077800A6F1B3C1A7F16EEC08F0010120EE35F047
:100788000101A851D9260101A951DA22010110EE6F
:1007980035F00101A851E1260101A951E222E750F3
:1007A8000101AF6F0101AF29030BDF6E010120EEDC
:1007B80002F00101B451D9260101B551DA22ABC1C9
:1007C800E1FFACC1E2FFDFCFE7FFB4C1D9FFB5C19C
:1007D800DAFF000EDF6E0101B2511200FC0E1200AA
:1007E800000120EE35F00001A251D9260001A351E5
:1007F800DA22DF500001AB6F0001AB510D0DF35051
:100808000001A2250001AE6FF4500001A3210001F0
:10081800AF6F010EAEC0D9FFAFC0DAFFDF626DD097
:10082800000120EE01F00001AE51D9260001AF51C0
:10083800DA22DF500001A45DD8B002D0FD0E12000C
:10084800000120EE01F00001AE51D9260001AF51A0
:10085800DA22DF500001A96F0001A9510001AC6F35
:100868000001AD6B0001A8C099F00001A7C098F085
:10087800030E0001AE250001A96F000E0001AF2193
:100888000001AA6FA9C09AF0AAC09BF0ACC09CF066
:10089800ADC09DF09AEC08F0000120EE35F00001A3
:1008A800A251D9260001A351DA22000110EE35F039
:1008B8000001A251E1260001A351E222E750000104
:1008C800A96F0001A929030BDF6E000120EE02F0D9
:1008D8000001AE51D9260001AF51DA22A5C0E1FFCF
:1008E800A6C0E2FFDFCFE7FFAEC0D9FFAFC0DAFF97
:1008F800000EDF6E0001AC511200FC0E1200010167
:10090800AAC1AFF10101B06B010120EE34F0010181
:10091800A851D9260101A951DA22DF500101B16F8E
:100928000101B1510D0DF3500101A8250101B26F6C
:10093800F4500101A9210101B36FB2C1D9FFB3C1BC
:10094800DAFFDF50D8B402D0FF0E1200010120EE0A
:1009580001F00101B251D9260101B351DA22010196
:10096800AAC1DFFF010120EE02F00101B251D92630
:100978000101B351DA220101ABC1DFFF030E01010E
:10098800B2250101A26F000E0101B3210101A36F7D
:100998000101ADC1A5F10101ACC1A4F1AFC1A6F13E
:1009A800B0C1A7F16EEC08F0010120EE34F00101AE
:1009B800A851D9260101A951DA22010110EE34F01B
:1009C8000101A851E1260101A951E222E7500101E4
:1009D800AE6F0101AE29030BDF6EB2C1D9FFB3C1FF
:1009E800DAFF010EDF6E010E12000001A4C0A9F0AB
:1009F8000001AA6B000120EE34F00001A251D926B3
:100A08000001A351DA22DF500001AB6F0001AB51A6
:100A18000D0DF3500001A2250001AC6FF450000148
:100A2800A3210001AD6FACC0D9FFADC0DAFFDF5024
:100A3800D8B402D0FF0E1200000120EE01F0000130
:100A4800AC51D9260001AD51DA220001A4C0DFFF64
:100A5800000120EE02F00001AC51D9260001AD5191
:100A6800DA220001A5C0DFFF030E0001AC2500015A
:100A7800986F000E0001AD210001996F0001A7C019
:100A88009BF00001A6C09AF0A9C09CF0AAC09DF0F6
:100A98009AEC08F0000120EE34F00001A251D926AA
:100AA8000001A351DA22000110EE34F00001A25136
:100AB800E1260001A351E222E7500001A86F0001DE
:100AC800A829030BDF6EACC0D9FFADC0DAFF010E59
:100AD800DF6E010E120020EE35F00B50D9260C50B7
:100AE800DA22DF50146E14500D0DF3500B24176EDC
:100AF800F4500C20186E010E17C0D9FF18C0DAFF89
:100B0800DF6250D020EE01F01750D9261850DA22B3
:100B1800DF500D5CD8B002D0FD0E120020EE01F0BF
:100B28001750D9261850DA22DF50126E1250156E5F
:100B3800166A11C002F010C001F0030E1724126EDD
:100B4800000E1820136E12C003F013C004F015C075
:100B580005F016C006F0C2EC08F020EE35F00B5098
:100B6800D9260C50DA2210EE35F00B50E1260C5045
:100B7800E222E750126E1228030BDF6E20EE02F01D
:100B88001750D9261850DA220EC0E1FF0FC0E2FF35
:100B9800DFCFE7FF17C0D9FF18C0DAFF000EDF6EFE
:100BA80015501200FC0E12000DC012F0136A20EE50
:100BB80034F00B50D9260C50DA22DF50146E145042
:100BC8000D0DF3500B24156EF4500C20166E15C045
:100BD800D9FF16C0DAFFDF50D8B402D0FF0E1200DA
:100BE80020EE01F01550D9261650DA220DC0DFFF8D
:100BF80020EE02F01550D9261650DA220EC0DFFF7B
:100C0800030E1524016E000E1620026E10C004F0AB
:100C18000FC003F012C005F013C006F0C2EC08F0D4
:100C280020EE34F00B50D9260C50DA2210EE34F0B6
:100C38000B50E1260C50E222E750116E1128030BED
:100C4800DF6E15C0D9FF16C0DAFF010EDF6E010E88
:100C580012003D50D8B42CD0000E1A6E1E0E196E1C
:100C680032C01CF031C01BF0040E29EC0AF01F6ED4
:100C78001F50FC0AD8A402D09D9812001F50800A69
:100C88007F0FD8A01200000E336E000E3D6E335059
:100C9800010DF3503124D96EF4503220DA6EDF5052
:100CA800AE6E332A030E33641200010E3D6E12003D
:100CB8003350010DF3503124D96EF4503220DA6EDE
:100CC800DF50AE6E332A030E33641200010E3D6E00
:100CD8001200EACFBEF0E1CFBFF0E2CFC0F0D9CF2B
:100CE800C1F0DACFC2F0F3CFC3F0F4CFC4F0F6CF3F
:100CF800C5F0F7CFC6F0F8CFC7F0F5CFC8F09EA67D
:100D080003D09E96D0EC01F0F2A403D0F294EAEC62
:100D180006F0E3EC07F0C8C0F5FFC7C0F8FFC6C08F
:100D2800F7FFC5C0F6FFC4C0F4FFC3C0F3FFC2C0DD
:100D3800DAFFC1C0D9FFC0C0E2FFBFC0E1FFBEC03B
:100D4800EAFFBDC0E9FFBCC0FBFFBBC0FAFF110052
:100D58000001CAC0CEF00001C9C0CDF0000120EEEC
:100D68000AF00001CD51D9260001CE51DA22000E39
:100D7800DF6E000120EE16F00001CD51D9260001EA
:100D8800CE51DA22000EDF6E000120EE17F00001CE
:100D9800CD51D9260001CE51DA22000EDF6E0001B6
:100DA80020EE18F00001CD51D9260001CE51DA22EB
:100DB800050EDF6E000120EE1AF00001CD51D92694
:100DC8000001CE51DA22000EDF6E1200000E000183
:100DD800996F000E0001986F8FEC0AF00001000E69
:100DE8000001B16F0001B70E0001B06F0001000EE5
:100DF8000001B36F0001B90E0001B26F020E55EC8D
:100E080009F00001B56F0001B66B0001B5BFB60768
:100E18000001B551020AB611D8A412000A0E000149
:100E2800AE6F0001000E0001B06F0001B90E0001A5
:100E3800AF6F020EE9EC09F01200000120EE34F069
:100E48000001C951D9260001CA51DA22000EDF6E0D
:100E5800000120EE35F00001C951D9260001CA5120
:100E6800DA22000EDF6E000E0001CB6F030E0001C8
:100E7800CB6501D012000001CB510D0DF3500001DC
:100E8800C925D96EF4500001CA21DA6E000EDF6E52
:100E98000001CB2B030E0001CB65EDD7120001EE4C
:100EA80000F0A20EEE6AE806FDE100EE60F0380EF2
:100EB800EE6AE806FDE100EE31F00C0EEE6AE80697
:100EC800FDE1400EF66E150EF76E000EF86E01EE9F
:100ED800C6F010EE0CF00900F5CFEEFFE550E1503A
:100EE800FAE1800EF66E150EF76E000EF86E090028
:100EF800F5CF3DF0000EF86E000162EF00F0000142
:100F0800CC51CB11D8B426D0010E0101A26F06D066
:100F18000001D890CB37CC370101A22B0001CCAF10
:100F2800F7D70001CB510001C95D0001CC51000188
:100F3800CA59D8A008D00001CB510001C95F0001EF
:100F4800CC510001CA5B0001D890CC33CB330101EE
:100F5800A22FE7D7C9C0C9F0CAC0CAF01200000161
:100F6800C96FC650F00B0809C66EC78EC79C770EAE
:100F7800C86E9388938A000120EE1CF00001CD51C1
:100F8800D9260001CE51DA220001C9C0DFFF0001D5
:100F980020EE16F00001CD51D9260001CE51DA22FB
:100FA800040EDF6E000120EE18F00001CD51D926A5
:100FB8000001CE51DA22050EDF6EC68A120000014A
:100FC800606701D01200E2EC08F000019B510001BB
:100FD8009A11D8A4120098EC0AF000019951000166
:100FE8009811D8B412000101010E0001996F010196
:100FF8006C0E0001986FA2EC09F00009D8A4120049
:101008000001000E0001996F0001620E0001986F47
:10101800A2EC09F00009D8B4BDEC0AF01200B8C17E
:10102800D9FFB9C1DAFFDE2A000EDD22B8C1D9FF27
:10103800B9C1DAFF0001DECFC9F00001DDCFCAF087
:10104800000E0001CC6F0A0E0001CB6F83EC07F095
:101058000001C951090A0001CA11D8A41200140ECE
:101068000101B46F0101B9C1B6F10101B8C1B5F10F
:10107800020ED2EC09F00101C06F1200000E00014F
:10108800606F0001000E0001CA6F0001620E0001CE
:10109800C96F21EC07F00101010E0001CA6F0101BF
:1010A8006C0E0001C96F21EC07F00101010E00016F
:1010B800CA6F0101360E0001C96F21EC07F001016A
:1010C800010E0001CA6F0101000E0001C96F21EC79
:1010D80007F0120001010001A5C1CCF001010001D7
:1010E800A4C1CBF001010001A3C1CAF001010001B4
:1010F800A2C1C9F010D0CBC0D9FFCCC0DAFFC9C09B
:10110800E1FFCAC0E2FFDFCFE7FF0001CB4BCC2BEA
:101118000001C94BCA2B0101A607D8A0A7070101E6
:10112800A629D8B4A729D8B41200E5D700019BC0D6
:10113800A1F000019AC0A0F0000199C09FF0000141
:1011480098C09EF010D0A0C0D9FFA1C0DAFF9EC001
:10115800E1FF9FC0E2FFDFCFE7FF0001A04BA12B1B
:1011680000019E4B9F2B00019C07D8A09D07000102
:101178009C29D8B49D29D8B41200E5D704C00AF038
:1011880003C009F002C008F001C007F00ED009C082
:10119800D9FF0AC0DAFF07C0E1FF08C0E2FFDFCFCE
:1011A800E7FF094A0A2A074A082A0506D8A00606B8
:1011B8000528D8B40628D8B41200E9D7F2AC07D06D
:1011C800000E00019B6F000E00019A6F120098EC50
:1011D8000AF00001995100019811D8B407D0000E07
:1011E80000019B6F000E00019A6F1200000E0001B3
:1011F8009B6F010E00019A6F12000001CB6F000176
:10120800C951F30B9A6ECBC0CAF07F0E0001CA1702
:101218000001D890CA35CD6E000ECF6E000ECE6E8E
:101228009E900001CBAF02D09D8001D09D909ABEC8
:101238009A86CD8012000101BA6F0001000E0101EB
:10124800A96F0001620E0101A86FBAC1AAF10101DC
:10125800B7C1ACF10101B6C1ABF10101B9C1AEF141
:101268000101B8C1ADF165EC03F012000101BA6FDC
:101278000101010E0101A96F01016C0E0101A86FA6
:10128800BAC1AAF10101B7C1ACF10101B6C1ABF114
:101298000101B9C1AEF10101B8C1ADF165EC03F0CE
:1012A80012000001B46F0101010E0001A36F0101DA
:1012B800000E0001A26FB4C0A4F00001B1C0A6F0F6
:1012C8000001B0C0A5F00001B3C0A8F00001B2C091
:1012D800A7F0F4EC03F012000101A4511E0AA511B5
:1012E800D8B412000101A4511F0AA511D8A41200F4
:1012F8000101A6510101A825D96E0101A7510101DB
:10130800A921DA6E000EDF6E12000101BB6F280EF4
:101318000101B46F0101B9C1B6F10101B8C1B5F15C
:101328000101BB51D2EC09F00101BA6F0101BA29E0
:10133800D8B41200C7B41200C5801200000120EE14
:1013480035F000019851D92600019951DA22DF5071
:1013580000019A6F00019A510D0DF3500001982574
:10136800D96EF45000019921DA6EDF5012000101A4
:10137800B76F0101010E0101A96F0101360E0101CC
:10138800A86FB7C1AAF1B4C1ABF10101B6C1ADF103
:101398000101B5C1ACF183EC04F012000101B76F93
:1013A8000101010E0101A96F0101000E0101A86FE1
:1013B800B7C1AAF1B4C1ABF10101B6C1ADF10101E8
:1013C800B5C1ACF183EC04F012000001B16F01016A
:1013D800010E0001A36F01016C0E0001A26FB1C0E4
:1013E800A4F0AEC0A5F00001B0C0A7F00001AFC0E6
:1013F800A6F0F9EC04F0120086EC0AF001C01BF02C
:1014080002C01CF00B0E176E000E196E000E186E3F
:10141800000E3CEC0AF0000E026E000E016E7DEC30
:101428000AF012000001C96F0001C9517F0BD56E87
:10143800000ED76E000ED66EF2940001C9AF02D02E
:10144800F28A01D0F29AD58E12001D6E0101010EAA
:101458000C6E0101360E0B6E1DC00DF01AC00FF098
:1014680019C00EF0116A1BC010F06FEC05F01200E5
:101478001A6E0001000E0C6E0001620E0B6E1AC08F
:101488000DF017C00EF019C010F018C00FF0D8EC0E
:1014980005F01200948E949C7E86AD84000E7F6EBB
:1014A800CF0EB06EAD98AC8E9F989D989D8AAD8AF0
:1014B800AC881200AFCF1CF01F0E176E000E196E0D
:1014C8001C0E186E010E3CEC0AF01B6E1200010196
:1014D8000001A9C1CAF001010001A8C1C9F01200A8
:1014E800C9C0D9FFCAC0DAFF000EDE6E000EDD6E7D
:1014F800120001C003F002C004F004C0CFFF03C013
:10150800CEFF1200CECF03F0CFCF04F003C001F01E
:1015180004C002F0120098C09AF099C09BF09BC0DA
:10152800D7FF9AC0D6FF1200000EF2AE010E0001DE
:10153800986F0001996B120055EA2911AA2922BB5C
:101548002933CC29D08EF28EF28C12008C9E8C8E90
:101558008C9E12008C9C8C8C8C9C12008C9A8C8A91
:101568008C9A12008C988C888C981200000E956EBC
:0A1578001200D38E030012000100E0
:08FFF8008AF795FFF2F9FFF111
:00000001FF
