:0400000060EF00F0BD
:10000800FACF84F0FBCF85F0E9CF86F0CDEF07F08B
:10001800D8CF2AF0E8CF2BF0E0CF2CF0FACF2DF094
:10002800FBCF2EF0E9CF2FF0EACF30F0E1CF31F05F
:10003800E2CF32F0D9CF33F0DACF34F0F3CF35F066
:10004800F4CF36F0F6CF37F0F7CF38F0F8CF39F0F5
:10005800F5CF3AF09EA003D09E9086EC0BF09EAAB6
:1000680003D09E9A2DEC04F09EB89DA802D088EC8F
:1000780003F03AC0F5FF39C0F8FF38C0F7FF37C0C2
:10008800F6FF36C0F4FF35C0F3FF34C0DAFF33C0E3
:10009800D9FF32C0E2FF31C0E1FF30C0EAFF2FC014
:1000A800E9FF2EC0FBFF2DC0FAFF2CC0E0FF2BC0DC
:1000B800E8FF2AC0D8FF100081EF08F04FEC0CF0E1
:1000C800280E0001826F010E0001816FD7D1000157
:1000D800000E0001796F0001820E0001786F0C0E8E
:1000E8000001CA2500017A6F000E0001CB21000132
:1000F8007B6F060EC2EC0AF00001836F000183518A
:10010800FC0AD8B4120000018351FD0AD8A403D018
:1001180053EC0CF01200000120EE17F00001CA5158
:10012800D9260001CB51DA22000183C0DFFFC7A620
:100138000CD0000120EE19F00001CA51D9260001A7
:10014800CB51DA22060EDF6E0DD0C580000120EEFD
:1001580019F00001CA51D9260001CB51DA22060E46
:10016800DF6E12005FEC0CF0000120EE1DF00001C4
:10017800CA51D9260001CB51DA22DF5000017D6F28
:100188000001D8907D35C96E000120EE19F00001FC
:10019800CA51D9260001CB51DA220A0EDF6E0001BE
:1001A80020EE16F00001CA51D9260001CB51DA22FF
:1001B800000EDF6E12005BEC0CF0000120EE16F072
:1001C8000001CA51D9260001CB51DA22DF500001C3
:1001D8007D6F00017D51010D0C0EF326000EF422F7
:1001E800F3500001CA25D96EF4500001CB21DA6E14
:1001F800DF50C96E000120EE16F00001CA51D92661
:100208000001CB51DA22DF2A000120EE16F00001AE
:10021800CA51D9260001CB51DA22050EDF6412003B
:10022800000120EE0CF00001CA51D9260001CB5183
:10023800DA22DF5000017D6F00017D390F0B0001CC
:10024800806F06D0010E01D0000E0001816F06D02C
:1002580000018051020AD8B4F5D7F6D700018151C0
:10026800D8B417D0000120EE19F00001CA51D926E0
:100278000001CB51DA220C0EDF6E000120EE0BF0EC
:100288000001CA51D9260001CB51DA22000EDF6ED7
:100298001200000120EE19F00001CA51D926000110
:1002A800CB51DA220B0EDF6E1200C582000120EE60
:1002B80019F00001CA51D9260001CB51DA220D0EDE
:1002C800DF6E1200000120EE1DF00001CA51D92690
:1002D8000001CB51DA22DF5000017D6F0001D88088
:1002E8007D35C96E000120EE19F00001CA51D926EA
:1002F8000001CB51DA220E0EDF6E120057EC0CF023
:10030800C586000120EE16F00001CA51D926000169
:10031800CB51DA22000EDF6E000120EE19F0000149
:10032800CA51D9260001CB51DA22080EDF6E12001D
:10033800000120EE0BF00001CA51D9260001CB5173
:10034800DA22DF5000017D6F00017D51010DF3506D
:100358000001CA25D96EF4500001CB21DA6EC9CF4D
:10036800DFFF000120EE0BF00001CA51D926000181
:10037800CB51DA22DF2A000120EE0BF00001CA512E
:10038800D9260001CB51DA22050EDF641CD0280ED5
:100398000001766F0001CBC078F00001CAC077F089
:1003A800000120EE0BF00001CA51D9260001CB5103
:1003B800DA22DF5000017D6F00017D296FEC0BF020
:1003C80000017E6F1DD0C7A827D0280E0001766FC8
:1003D8000001CBC078F00001CAC077F0000120EE20
:1003E8000BF00001CA51D9260001CB51DA22DF50A7
:1003F80000017D6F00017D296FEC0BF000017F6F1C
:10040800000120EE19F00001CA51D9260001CB5194
:10041800DA220B0EDF6E0DD0C588000120EE19F030
:100428000001CA51D9260001CB51DA220E0EDF6E27
:10043800120057EC0CF0C584000120EE16F0000104
:10044800CA51D9260001CB51DA22000EDF6E000115
:1004580020EE16F00001CA51D9260001CB51DA224C
:10046800000EDF6E000120EE19F00001CA51D926F6
:100478000001CB51DA22050EDF6E1200000120EEDA
:1004880019F00001CA51D9260001CB51DA22DF50F8
:10049800050AD8B41CD6030AD8B464D60E0AD8B450
:1004A80047D7020AD8B487D6010AD8B4C2D7070AF0
:1004B800D8B4FBD6010AD8B405D7030AD8A41200C9
:1004C8001DD7E00ED36E9B8C0101010E0001936FC6
:1004D8000101CA0E0001926F0CEC08F00101010E37
:1004E8000001936F0101C60E0001926F08EC0CF039
:1004F80076EC09F0000E936E000E8A6E960EB0EC44
:100508000BF0000E0001926F9B0E6EEC0AF09F90AC
:100518009F9A9F864F0E16EC09F09D8663EC0CF0AF
:1005280043EC0CF0D5EC0BF0540E0101C46F450EF2
:100538000101C56FE5EC08F00101010E0001AB6F88
:100548000101C90E0001AA6F0101010E0001AD6F82
:100558000101B80E0001AC6F0A0EA7EC0AF0010108
:10056800C86F0101C8BF5ED04FD00101010E000164
:10057800936F0101B60E0001926F01010001C9C11C
:1005880094F00001956B0101C8510001966F0001BC
:10059800976B000196BF97070101010E0001996F43
:1005A8000101B80E0001986F3CEC0CF03BD0010142
:1005B800010E0001AD6F0101B80E0001AC6FE5EC52
:1005C8000BF0B8C1C3F12ED0020E0101C86FC4C12F
:1005D800B8F1C5C1B9F126D0010E0101C86F3A0EB4
:1005E80004D0010E0101C86F550E0101B86F1AD071
:1005F8000101C351A80AD8B4EFD7010AD8B4F1D77A
:10060800030AD8B4E1D70ED00101C9510A0AD8B4F7
:10061800ACD7220AD8B4CBD7010AD8B4D2D7030AA8
:10062800D8B4E6D70101010E0001AB6F0101C90E74
:100638000001AA6F0101010E0001AD6F0101B80EA2
:100648000001AC6F0A0E8CEC0AF00101C86F0101C1
:10065800C8BF70D74DD00101010E0001B16F010173
:10066800C60E0001B06F01010001C9C1B2F000015E
:10067800B36B0101C8510001B46F0001B56B0001F3
:10068800B4BFB5070101010E0001B76F0101B80E33
:100698000001B66F86EC07F04DD70101010E00018D
:1006A800936F0101B40E0001926F01010001C9C1ED
:1006B80094F00001956B0101C8510001966F00018B
:1006C800976B000196BF97070101010E0001996F12
:1006D8000101B80E0001986FDDEC0AF00101B85174
:1006E800A50AD8B427D7100AD8B424D7700A22D7B5
:1006F8000101C9510B0AD8B4AED7150AD8B4CDD761
:10070800010AD8B4CAD716D71F0E236E5150D8B4D1
:100718008FD0000E1A6E230E196E28C01CF027C049
:100728001BF0060E9CEC0BF0266E2650FC0AD8A493
:1007380002D09D9812002650800A7F0FD8A0120080
:100748003DC0D9FF3EC0DAFF43C0DFFF432A000E99
:10075800256E000E246E2550800A800F060ED8B430
:10076800245CD8B017D024502724D96E25502820CF
:10077800DA6E010E24241E6E000E25201F6E1E50F8
:100788003D24E16E1F503E20E26EDFCFE7FF244A92
:10079800252AE1D720EE07F03D50D9263E50DA222F
:1007A80010EE05F02750E1262850E222E7501E6E91
:1007B80010EE04F02750E1262850E222E7501F6E81
:1007C80010EE03F02750E1262850E222E750206E71
:1007D80010EE02F02750E1262850E222E750216E61
:1007E80010EE01F02750E1262850E222E750226E51
:1007F80027C0E1FF28C0E2FFE7502218211820187F
:100808001F181E18DF6E000E426E000E516E425009
:10081800010DF3503D24D96EF4503E20DA6EDF50BE
:10082800AE6E422A070E42641200010E516E12008B
:100838004250010DF3503D24D96EF4503E20DA6E3B
:10084800DF50AE6E422A070E42641200010E516E4E
:10085800120047EC0CF03F660BD04050010DF350EE
:100868003B24D96EF4503C20DA6EAFCFDFFF402A2C
:10087800070E40641200000E406E412A3BC0D9FFAB
:100888003CC0DAFFDF504118D8B407D03BC0D9FFCD
:100898003CC0DAFFDF50416E120020EE07F03B50FB
:1008A800D9263C50DA22DF501B6E20EE06F03B5072
:1008B800D9263C50DA22DF501C6E20EE05F03B5062
:1008C800D9263C50DA22DF501D6E20EE04F03B5052
:1008D800D9263C50DA22DF501E6E20EE03F03B5042
:1008E800D9263C50DA22DF501F6E20EE02F03B5032
:1008F800D9263C50DA22DF50206E20EE01F03B5022
:10090800D9263C50DA22DF5020181F181E181D184F
:100918001C181B18D8A41200000E296E000E286E91
:100928002950800A800F060ED8B4285CD8B017D09A
:10093800010E28241B6E000E29201C6E1B503B2420
:10094800D96E1C503C20DA6E210E2824E16E000E70
:100958002920E26EDFCFE7FF284A292AE1D71F0EB8
:10096800176E000E196E210E186E080EC3EC0BF0F0
:10097800276E1200000120EE35F000019C51D926A7
:1009880000019D51DA22DF500001A56F0001A55139
:100998000D0DF35000019C250001A86FF4500001D3
:1009A8009D210001A96F010EA8C0D9FFA9C0DAFFD7
:1009B800DF626DD0000120EE01F00001A851D926B8
:1009C8000001A951DA22DF5000019E5DD8B002D0A3
:1009D800FD0E1200000120EE01F00001A851D926F9
:1009E8000001A951DA22DF500001A36F0001A351D1
:1009F8000001A66F0001A76B0001A2C093F00001DF
:100A0800A1C092F0030E0001A8250001A36F000EFB
:100A18000001A9210001A46FA3C094F0A4C095F01F
:100A2800A6C096F0A7C097F0A2EC09F0000120EE4E
:100A380035F000019C51D92600019D51DA220001B0
:100A480010EE35F000019C51E12600019D51E22293
:100A5800E7500001A36F0001A329030BDF6E00011B
:100A680020EE02F00001A851D9260001A951DA228E
:100A78009FC0E1FFA0C0E2FFDFCFE7FFA8C0D9FF1A
:100A8800A9C0DAFF000EDF6E0001A6511200FC0EAD
:100A98001200000120EE35F000016A51D92600014C
:100AA8006B51DA22DF500001736F000173510D0D95
:100AB800F35000016A250001766FF45000016B21A4
:100AC8000001776F010E76C0D9FF77C0DAFFDF62C9
:100AD8006DD0000120EE01F000017651D926000109
:100AE8007751DA22DF5000016C5DD8B002D0FD0EDC
:100AF8001200000120EE01F000017651D926000114
:100B08007751DA22DF500001716F00017151000145
:100B1800746F0001756B000170C061F000016FC057
:100B280060F0030E000176250001716F000E0001D0
:100B380077210001726F71C062F072C063F074C0F7
:100B480064F075C065F0CAEC09F0000120EE35F0DC
:100B580000016A51D92600016B51DA22000110EE1A
:100B680035F000016A51E12600016B51E222E7509D
:100B78000001716F00017129030BDF6E000120EE87
:100B880002F000017651D92600017751DA226DC0B2
:100B9800E1FF6EC0E2FFDFCFE7FF76C0D9FF77C085
:100BA800DAFF000EDF6E000174511200FC0E120015
:100BB80000019EC0A3F00001A46B000120EE34F0F8
:100BC80000019C51D92600019D51DA22DF50000115
:100BD800A56F0001A5510D0DF35000019C250001E2
:100BE800A66FF45000019D210001A76FA6C0D9FF90
:100BF800A7C0DAFFDF50D8B402D0FF0E1200000100
:100C080020EE01F00001A651D9260001A751DA22F1
:100C180000019EC0DFFF000120EE02F00001A65196
:100C2800D9260001A751DA2200019FC0DFFF030E79
:100C38000001A6250001926F000E0001A721000106
:100C4800936F0001A1C095F00001A0C094F0A3C06B
:100C580096F0A4C097F0A2EC09F0000120EE34F061
:100C680000019C51D92600019D51DA22000110EEA5
:100C780034F000019C51E12600019D51E222E75029
:100C88000001A26F0001A229030BDF6EA6C0D9FFE5
:100C9800A7C0DAFF010EDF6E010E120000016CC062
:100CA80071F00001726B000120EE34F000016A510E
:100CB800D92600016B51DA22DF500001736F000161
:100CC80073510D0DF35000016A250001746FF45043
:100CD80000016B210001756F74C0D9FF75C0DAFF80
:100CE800DF50D8B402D0FF0E1200000120EE01F050
:100CF80000017451D92600017551DA2200016CC037
:100D0800DFFF000120EE02F000017451D926000136
:100D18007551DA2200016DC0DFFF030E0001742552
:100D28000001606F000E000175210001616F000174
:100D38006FC063F000016EC062F071C064F072C0F1
:100D480065F0CAEC09F0000120EE34F000016A51A8
:100D5800D92600016B51DA22000110EE34F00001AF
:100D68006A51E12600016B51E222E7500001706FE1
:100D780000017029030BDF6E74C0D9FF75C0DAFF5C
:100D8800010EDF6E010E120020EE35F00B50D92651
:100D98000C50DA22DF50146E14500D0DF3500B2452
:100DA800176EF4500C20186E010E17C0D9FF18C02A
:100DB800DAFFDF6250D020EE01F01750D926185024
:100DC800DA22DF500D5CD8B002D0FD0E120020EE02
:100DD80001F01750D9261850DA22DF50126E12503F
:100DE800156E166A11C002F010C001F0030E172428
:100DF800126E000E1820136E12C003F013C004F018
:100E080015C005F016C006F0F2EC09F020EE35F03A
:100E18000B50D9260C50DA2210EE35F00B50E12693
:100E28000C50E222E750126E1228030BDF6E20EE00
:100E380002F01750D9261850DA220EC0E1FF0FC071
:100E4800E2FFDFCFE7FF17C0D9FF18C0DAFF000EB7
:100E5800DF6E15501200FC0E12000DC012F0136A5E
:100E680020EE34F00B50D9260C50DA22DF50146EE5
:100E780014500D0DF3500B24156EF4500C20166E03
:100E880015C0D9FF16C0DAFFDF50D8B402D0FF0E64
:100E9800120020EE01F01550D9261650DA220DC0A6
:100EA800DFFF20EE02F01550D9261650DA220EC0C8
:100EB800DFFF030E1524016E000E1620026E10C00F
:100EC80004F00FC003F012C005F013C006F0F2ECF6
:100ED80009F020EE34F00B50D9260C50DA2210EE2F
:100EE80034F00B50E1260C50E222E750116E112825
:100EF800030BDF6E15C0D9FF16C0DAFF010EDF6ED7
:100F0800010E120020EEB8F011EEAEF0060EDECFA4
:100F1800E6FFE82EFCD720EEBEF011EEA2F0060E9A
:100F2800DECFE6FFE82EFCD720EEC4F011EEA8F0E5
:100F3800060EDECFE6FFE82EFCD70101010E000108
:100F4800AD6F0101AE0E0001AC6FE5EC0BF00101D5
:100F5800010E0001AD6F0101AE0E0001AC6F060E6F
:100F6800F6EC0AF00101010E0001AD6F0101A20EBD
:100F78000001AC6F060EF6EC0AF00101010E00014B
:100F8800AD6F0101A80E0001AC6F060EF6EC0AF079
:100F98001200EACF87F0E1CF88F0E2CF89F0D9CF0D
:100FA8008AF0DACF8BF0F3CF8CF0F4CF8DF0F6CF58
:100FB8008EF0F7CF8FF0F8CF90F0F5CF91F09EA696
:100FC80003D09E9662EC00F0F2A403D0F2944AECAF
:100FD80008F046EC09F091C0F5FF90C0F8FF8FC00B
:100FE800F7FF8EC0F6FF8DC0F4FF8CC0F3FF8BC0F7
:100FF800DAFF8AC0D9FF89C0E2FF88C0E1FF87C055
:10100800EAFF86C0E9FF85C0FBFF84C0FAFF110034
:10101800000193C0CBF0000192C0CAF0000120EE9D
:101028000AF00001CA51D9260001CB51DA22000E7C
:10103800DF6E000120EE17F00001CA51D926000129
:10104800CB51DA22000EDF6E000120EE18F000010D
:10105800CA51D9260001CB51DA22000EDF6E0001F9
:1010680020EE19F00001CA51D9260001CB51DA222D
:10107800050EDF6E000120EE1BF00001CA51D926D3
:101088000001CB51DA22000EDF6E1200000E0001C3
:10109800616F000E0001606F23EC0CF00001000E80
:1010A8000001796F00017F0E0001786F0001000ECA
:1010B80000017B6F0001810E00017A6F020EC2EC05
:1010C8000AF000017D6F00017E6B00017DBF7E0785
:1010D80000017D51020A7E11D8A412000A0E0001F7
:1010E800766F0001000E0001786F0001810E00018B
:1010F800776F020E6FEC0BF0120002EE00F0360E66
:10110800EE6AE806FDE101EE00F0A20EEE6AE806DE
:10111800FDE10001CC6B00EE3BF0160EEE6AE8062E
:10112800FDE1FE0EF66E170EF76E000EF86E00EE7D
:10113800B8F010EE12F00900F5CFEEFFE550E150DF
:10114800FAE1D20EF66E180EF76E000EF86E090070
:10115800F5CF51F0000EF86E000165EF02F00001C6
:1011680020EE34F000019251D92600019351DA2281
:10117800000EDF6E000120EE35F000019251D926F5
:1011880000019351DA22000EDF6E000E0001946F09
:10119800030E0001946501D01200000194510D0D59
:1011A800F35000019225D96EF45000019321DA6EB4
:1011B800000EDF6E0001942B030E00019465EDD73D
:1011C800120050EC0AF00001975100019611D8B4B2
:1011D8001200010E0001CC6F0101010E0001936F96
:1011E8000101360E0001926F0FEC0BF00009D8B424
:1011F80004D0000E0001CC6F12000101010E0001A5
:10120800936F01016C0E0001926F0FEC0BF0000957
:10121800D8B404D0000E0001CC6F12000A0EF5EC11
:101228000BF0DAD70001926FC650F00B0809C66EB2
:10123800C78EC79C770EC86E9388938A000120EEEC
:101248001DF00001CA51D9260001CB51DA22000154
:1012580092C0DFFF000120EE17F00001CA51D92625
:101268000001CB51DA22060EDF6E000120EE19F0E4
:101278000001CA51D9260001CB51DA22050EDF6ED2
:10128800C68A12000001CC6701D0120031EC0AF0C6
:101298000001635100016211D8A4120034EC0CF073
:1012A8000001615100016011D8B412000101010E62
:1012B8000001616F0101360E0001606F28EC0BF030
:1012C8000009D8A412000101010E0001616F01019B
:1012D8006C0E0001606F28EC0BF00009D8B466ECC6
:1012E8000CF01200000E0001CC6F0101010E00018C
:1012F800936F01016C0E0001926FB3EC08F00101CD
:10130800010E0001936F0101360E0001926FB3ECDC
:1013180008F00101010E0001936F0101000E0001A8
:10132800926FB3EC08F00201020E0001936F020104
:10133800000E0001926FB3EC08F01200000195C096
:101348009BF0000194C09AF0000193C099F000014D
:1013580092C098F010D09AC0D9FF9BC0DAFF98C00D
:10136800E1FF99C0E2FFDFCFE7FF00019A4B9B2B1B
:101378000001984B992B00019607D8A09707000108
:101388009629D8B49729D8B41200E5D7000163C0CC
:1013980069F0000162C068F0000161C067F00001F7
:1013A80060C066F010D068C0D9FF69C0DAFF66C0B7
:1013B800E1FF67C0E2FFDFCFE7FF0001684B692B61
:1013C8000001664B672B00016407D8A06507000180
:1013D8006429D8B46529D8B41200E5D704C00AF046
:1013E80003C009F002C008F001C007F00ED009C020
:1013F800D9FF0AC0DAFF07C0E1FF08C0E2FFDFCF6C
:10140800E7FF094A0A2A074A082A0506D8A0060655
:101418000528D8B40628D8B41200E9D7F2AC07D00A
:10142800000E0001956F000E0001946F12002CEC65
:101438000CF00001935100019211D8B407D0000EAE
:101448000001956F000E0001946F1200000E00015C
:10145800956F010E0001946F1200F2AC07D0000ED8
:101468000001636F000E0001626F120034EC0CF093
:101478000001615100016011D8B407D0000E0001CD
:10148800636F000E0001626F1200000E0001636FAF
:10149800010E0001626F120012EC0AF00001955172
:1014A80000019411D8A40FD02CEC0CF0000193513A
:1014B80000019211D8A407D0000E0001976F010E09
:1014C8000001966F1200000E0001976F000E0001D8
:1014D800966F12000001946F00019251F30B9A6EFF
:1014E80094C093F07F0E000193170001D8909335B4
:1014F800CD6E000ECF6E000ECE6E9E90000194AFA2
:1015080002D09D8001D09D909ABE9A86CD8012000F
:101518000001AE6F0101010E00019D6F01016C0E0B
:1015280000019C6FAEC09EF00001ABC0A0F00001AE
:10153800AAC09FF00001ADC0A2F00001ACC0A1F0AC
:10154800BEEC04F012000001AE6F0101010E0001B3
:101558009D6F0101360E00019C6FAEC09EF0000128
:10156800ABC0A0F00001AAC09FF00001ADC0A2F07E
:101578000001ACC0A1F0BEEC04F0120000017C6FC9
:101588000201020E00016B6F0201000E00016A6F7A
:101598007CC06CF0000179C06EF0000178C06DF07D
:1015A80000017BC070F000017AC06FF04DEC05F0CF
:1015B8001200000194511E0A9511D8B412000001BE
:1015C80094511F0A9511D8A41200000196510001E8
:1015D8009825D96E0001975100019921DA6E000E05
:1015E800DF6E12000001AF6F280E0001A86F000126
:1015F800ADC0AAF00001ACC0A9F00001AF5158EC91
:101608000BF00001AE6F0001AE29D8B41200C7B4C8
:101618001200C5801200000120EE35F00001925141
:10162800D92600019351DA22DF500001946F00019E
:1016380094510D0DF35000019225D96EF45000011C
:101648009321DA6EDF501200000120EE35F0000120
:101658006051D92600016151DA22DF500001626F22
:10166800000162510D0DF35000016025D96EF45050
:1016780000016121DA6EDF5012000001AB6F010139
:10168800010E00019D6F0101000E00019C6FABC0AF
:101698009EF0A8C09FF00001AAC0A1F00001A9C057
:1016A800A0F0DCEC05F012000001AB6F0201020EA5
:1016B80000019D6F0201000E00019C6FABC09EF0FF
:1016C800A8C09FF00001AAC0A1F00001A9C0A0F025
:1016D800DCEC05F012000001796F0101010E000138
:1016E8006B6F0101360E00016A6F79C06CF076C02D
:1016F8006DF0000178C06FF0000177C06EF052EC19
:1017080006F012001AEC0CF001C01BF002C01CF02D
:101718000B0E176E000E196E000E186E000EC3EC3D
:101728000BF0000E026E000E016E11EC0CF01200B0
:101738001D6E0101010E0C6E0101000E0B6E1DC025
:101748000DF01AC00FF019C00EF01CC011F01BC02C
:1017580010F0C8EC06F012000001926F00019251DF
:101768007F0BD56E000ED76E000ED66EF294000178
:1017780092AF02D0F28A01D0F29AD58E12001A6E78
:101788000101010E0C6E01016C0E0B6E1AC00DF0FA
:1017980017C00EF019C010F018C00FF031EC07F0A8
:1017A8001200948E949C7E86AD84000E7F6ECF0EC0
:1017B800B06EAD98AC8E9F989D989D8AAD8AAC8886
:1017C80012001F0E0001A86F0001ADC0AAF00001B1
:1017D800ACC0A9F0060E41EC0BF00001AE6F9D887D
:1017E80012000001926FFA0E00F0E82EFDD70001FA
:1017F800922FF9D712002AAAAAAAAAAA2BA8A8A89F
:10180800A8A82CA9A9A9A9A992C0D9FF93C0DAFFB1
:10181800000EDE6E000EDD6E120001C003F002C085
:1018280004F004C0CFFF03C0CEFF1200CECF03F0F8
:10183800CFCF04F003C001F004C002F0120060C072
:1018480062F061C063F063C0D7FF62C0D6FF1200C8
:10185800000EF2AE010E0001926F0001936B1200B0
:10186800000EF2AE010E0001606F0001616B120004
:10187800000199C09BF0000198C09AF01200D08E28
:10188800F28EF28C12008C988C888C9812008C94B2
:101898008C848C9412008C988C888C9812008C9470
:1018A8008C848C9412008C9E8C8E8C9E12008C9C46
:1018B8008C8C8C9C12008C9A8C8A8C9A1200000E4C
:0C18C800956E1200D38E03001200010088
:08FFF8008AF795FFF2F9FFF111
:00000001FF
