:0400000060EF00F0BD
:10000800FACFBCF0FBCFBDF0E9CFBEF084EF07F02C
:10001800D8CF20F0E8CF21F0E0CF22F0FACF23F0BC
:10002800FBCF24F0E9CF25F0EACF26F0E1CF27F087
:10003800E2CF28F0D9CF29F0DACF2AF0F3CF2BF08E
:10004800F4CF2CF0F6CF2DF0F7CF2EF0F8CF2FF01D
:10005800F5CF30F09EA003D09E9013EC0BF09EAA33
:1000680003D09E9A7BEC0BF09EB89DA802D044EC7E
:1000780007F030C0F5FF2FC0F8FF2EC0F7FF2DC0E6
:10008800F6FF2CC0F4FF2BC0F3FF2AC0DAFF29C00B
:10009800D9FF28C0E2FF27C0E1FF26C0EAFF25C03C
:1000A800E9FF24C0FBFF23C0FAFF22C0E0FF21C004
:1000B800E8FF20C0D8FF10006AEF08F0CAEC0BF088
:1000C800280E0001BA6F010E0001B96FD7D10001E7
:1000D800000E0001B16F0001BA0E0001B06F0C0EE6
:1000E8000001CC250001B26F000E0001CD210001F6
:1000F800B36F060E68EC0AF00001BB6F0001BB513C
:10010800FC0AD8B412000001BB51FD0AD8A403D0E0
:10011800CEEC0BF01200000120EE17F00001CC51DC
:10012800D9260001CD51DA220001BBC0DFFFC7A6E6
:100138000CD0000120EE19F00001CC51D9260001A5
:10014800CD51DA22060EDF6E0DD0C580000120EEFB
:1001580019F00001CC51D9260001CD51DA22060E42
:10016800DF6E1200C6EC0BF0000120EE1DF000015E
:10017800CC51D9260001CD51DA22DF500001B56FEC
:100188000001D890B535C96E000120EE19F00001C4
:10019800CC51D9260001CD51DA220A0EDF6E0001BA
:1001A80020EE16F00001CC51D9260001CD51DA22FB
:1001B800000EDF6E1200C2EC0BF0000120EE16F00C
:1001C8000001CC51D9260001CD51DA22DF500001BF
:1001D800B56F0001B551010D0C0EF326000EF42287
:1001E800F3500001CC25D96EF4500001CD21DA6E10
:1001F800DF50C96E000120EE16F00001CC51D9265F
:100208000001CD51DA22DF2A000120EE16F00001AC
:10021800CC51D9260001CD51DA22050EDF64120037
:10022800000120EE0CF00001CC51D9260001CD517F
:10023800DA22DF500001B56F0001B5390F0B00015C
:10024800B86F06D0010E01D0000E0001B96F06D0BC
:100258000001B851020AD8B4F5D7F6D70001B95150
:10026800D8B417D0000120EE19F00001CC51D926DE
:100278000001CD51DA220C0EDF6E000120EE0BF0EA
:100288000001CC51D9260001CD51DA22000EDF6ED3
:100298001200000120EE19F00001CC51D92600010E
:1002A800CD51DA220B0EDF6E1200C582000120EE5E
:1002B80019F00001CC51D9260001CD51DA220D0EDA
:1002C800DF6E1200000120EE1DF00001CC51D9268E
:1002D8000001CD51DA22DF500001B56F0001D8804E
:1002E800B535C96E000120EE19F00001CC51D926B0
:1002F8000001CD51DA220E0EDF6E1200BEEC0BF0BB
:10030800C586000120EE16F00001CC51D926000167
:10031800CD51DA22000EDF6E000120EE19F0000147
:10032800CC51D9260001CD51DA22080EDF6E120019
:10033800000120EE0BF00001CC51D9260001CD516F
:10034800DA22DF500001B56F0001B551010DF350FD
:100358000001CC25D96EF4500001CD21DA6EC9CF49
:10036800DFFF000120EE0BF00001CC51D92600017F
:10037800CD51DA22DF2A000120EE0BF00001CC512A
:10038800D9260001CD51DA22050EDF641CD0280ED3
:100398000001AE6F0001CDC0B0F00001CCC0AFF0DD
:1003A800000120EE0BF00001CC51D9260001CD51FF
:1003B800DA22DF500001B56F0001B529FCEC0AF024
:1003C8000001B66F1DD0C7A827D0280E0001AE6F58
:1003D8000001CDC0B0F00001CCC0AFF0000120EEAC
:1003E8000BF00001CC51D9260001CD51DA22DF50A3
:1003F8000001B56F0001B529FCEC0AF00001B76FE8
:10040800000120EE19F00001CC51D9260001CD5190
:10041800DA220B0EDF6E0DD0C588000120EE19F030
:100428000001CC51D9260001CD51DA220E0EDF6E23
:100438001200BEEC0BF0C584000120EE16F000019E
:10044800CC51D9260001CD51DA22000EDF6E000111
:1004580020EE16F00001CC51D9260001CD51DA2248
:10046800000EDF6E000120EE19F00001CC51D926F4
:100478000001CD51DA22050EDF6E1200000120EED8
:1004880019F00001CC51D9260001CD51DA22DF50F4
:10049800050AD8B41CD6030AD8B464D60E0AD8B450
:1004A80047D7020AD8B487D6010AD8B4C2D7070AF0
:1004B800D8B4FBD6010AD8B405D7030AD8A41200C9
:1004C8001DD7E00ED36E9B8C0201020E0001CB6F8C
:1004D80002012B0E0001CA6FC3EC07F00201020EE5
:1004E8000001CB6F0201270E0001CA6F8EEC0BF0E2
:1004F80059EC09F0000E936E000E8A6E960E29ECE8
:100508000BF0000E0001CA6F9B0E14EC0AF09F90CE
:100518009F9A9F864F0ECAEC08F09D86D2EC0BF08E
:10052800BAEC0BF060EC0BF0DCC10CF2DDC10DF2A3
:10053800DEC10EF20201020E0101BB6F02010C0EB8
:100548000101BA6F020EECEC03F021EECAF012EED4
:1005580000F0060EDECFE6FFE82EFCD721EED0F045
:1005680012EE06F0060EDECFE6FFE82EFCD721EEEF
:10057800D6F012EE0FF0060EDECFE6FFE82EFCD71F
:100588000201020E0101BB6F0201000E0101BA6FE8
:10059800060E9CEC0AF00201020E0101BB6F02017B
:1005A800000E0101BA6F020EECEC03F00201020E1C
:1005B8000101BB6F0201060E0101BA6F060E9CEC29
:1005C8000AF00201020E0101BB6F0201060E0101D1
:1005D800BA6F020EECEC03F00201020E0101BB6FD0
:1005E80002010F0E0101BA6F060E9CEC0AF002011F
:1005F800020E0101BB6F02010F0E0101BA6F020E5C
:10060800ECEC03F00201020E0101BB6F02010F0EB8
:100618000101BA6F060E9CEC0AF0540E0201256F18
:10062800450E0201266F0201020E0101B96F020197
:100638002A0E0101B86F0201020E0101BB6F02010F
:10064800150E0101BA6F0A0E4DEC0AF00201296F6E
:10065800020129BF54D045D00201020E0101A36F47
:100668000201220E0101A26F020101012AC2A4F1B6
:100678000101A56B020129510101A66F0101A76BB8
:100688000101A6BFA7070201020E0101A96F02011D
:10069800150E0101A86F85EC0BF031D015C224F2BC
:1006A8002ED0020E0201296F25C215F226C216F2BB
:1006B80026D0010E0201296F3A0E04D0010E020164
:1006C800296F550E0201156F1AD002012451A80A8C
:1006D800D8B4EFD7010AD8B4F1D7030AD8B4E1D710
:1006E8000ED002012A510A0AD8B4B6D7220AD8B4C1
:1006F800D5D7010AD8B4D2D7030AD8B4E6D70201AD
:10070800020E0101B96F02012A0E0101B86F020140
:10071800020E0101BB6F0201150E0101BA6F0A0E2C
:1007280032EC0AF00201296F020129BF7CD744D0BC
:100738000201020E0101BB6F0201270E0101BA6F0F
:10074800020101012AC2BCF10101BD6B020129515C
:100758000101BE6F0101BF6B0101BEBFBF070201EE
:10076800020E0101C16F0201150E0101C06F2AECD2
:1007780009F059D70201020E0101A36F0201200EF0
:100788000101A26F020101012AC2A4F10101A56BB6
:10079800020129510101A66F0101A76B0101A6BF42
:1007A800A7070201020E0101A96F0201150E01013E
:1007B800A86F83EC0AF037D702012A510B0AD8B484
:1007C800B7D7150AD8B4D6D7010AD8B4D3D72BD7F8
:1007D8000101C76F0101C7510101BC6FBD6B020E5A
:1007E8000101BC27000EBD230101BD51800A800F05
:1007F800070ED8B4BC5DD8A002D0010E120061C0AB
:10080800C0F10001612B000E0101C66F000E01014D
:10081800C96F000E0101C86F32D00101C851010132
:10082800BA25D96E0101C9510101BB21DA6E010E49
:100838000101C8250101BC6F000E0101C921010198
:10084800BD6F0101C00E0101BC25E16E0101010E61
:100858000101BD21E26EDFCFE7FF0101C8510101AF
:10086800BA25D96E0101C9510101BB21DA6EDF50E9
:100878000101C6190101C66F0101C84BC92B01014D
:10088800C7510101BC6FBD6B0101C951800A01014B
:10089800BE6FBC510101C85D0101BD51800A010153
:1008A800BE59D8A0BAD70101C84BC92B0101C00E47
:1008B8000101C825D96E0101010E0101C921DA6EB5
:1008C8000101C6C1DFFF1F0E0101B76F0101010E53
:1008D8000101B96F0101C00E0101B86F0101C751D3
:1008E800020FCEEC0AF00101BF6F9D88000E1200C6
:1008F800010120EE35F00101AC51D9260101AD51BD
:10090800DA22DF500101B36F0101B3510D0DF3502D
:100918000101AC250101B66FF4500101AD210101BF
:10092800B76F010EB6C1D9FFB7C1DAFFDF626DD06C
:10093800010120EE01F00101B651D9260101B7519C
:10094800DA22DF500101AE5DD8B002D0FD0E1200F0
:10095800010120EE01F00101B651D9260101B7517C
:10096800DA22DF500001CA6F0001CA510101B46FD9
:100978000101B56B0101B2C1A3F10101B1C1A2F13D
:10098800030E0101B6250001CA6F000E0101B7214F
:100998000001CB6FCAC0A4F1CBC0A5F1B4C1A6F1C8
:1009A800B5C1A7F185EC09F0010120EE35F0010190
:1009B800AC51D9260101AD51DA22010110EE35F012
:1009C8000101AC51E1260101AD51E222E7500001DD
:1009D800CA6F0001CA29030BDF6E010120EE02F085
:1009E8000101B651D9260101B751DA22AFC1E1FFA1
:1009F800B0C1E2FFDFCFE7FFB6C1D9FFB7C1DAFF69
:100A0800000EDF6E0101B4511200FC0E120000014D
:100A180020EE35F00001A251D9260001A351DA22B7
:100A2800DF500001AB6F0001AB510D0DF350000119
:100A3800A2250001AE6FF4500001A3210001AF6FA1
:100A4800010EAEC0D9FFAFC0DAFFDF626DD0000182
:100A580020EE01F00001AE51D9260001AF51DA2293
:100A6800DF500001A45DD8B002D0FD0E12000001D5
:100A780020EE01F00001AE51D9260001AF51DA2273
:100A8800DF500001A96F0001A9510001AC6F0001FE
:100A9800AD6B0001A8C099F00001A7C098F0030E43
:100AA8000001AE250001A96F000E0001AF21000171
:100AB800AA6FA9C09AF0AAC09BF0ACC09CF0ADC0C8
:100AC8009DF0ADEC09F0000120EE35F00001A251D7
:100AD800D9260001A351DA22000110EE35F00001F9
:100AE800A251E1260001A351E222E7500001A96FBB
:100AF8000001A929030BDF6E000120EE02F00001BE
:100B0800AE51D9260001AF51DA22A5C0E1FFA6C037
:100B1800E2FFDFCFE7FFAEC0D9FFAFC0DAFF000EBC
:100B2800DF6E0001AC511200FC0E12000101AEC1D3
:100B3800B2F10101B36B010120EE34F00101AC51B7
:100B4800D9260101AD51DA22DF500101B46F01014C
:100B5800B4510D0DF3500101AC250101B56FF450EE
:100B68000101AD210101B66FB5C1D9FFB6C1DAFFE8
:100B7800DF50D8B402D0FF0E1200010120EE01F0C0
:100B88000101B551D9260101B651DA220101AEC1E0
:100B9800DFFF010120EE02F00101B551D926010164
:100BA800B651DA220101AFC1DFFF030E0101B525FD
:100BB8000101A26F000E0101B6210101A36F01011D
:100BC800B1C1A5F10101B0C1A4F1B2C1A6F1B3C18F
:100BD800A7F185EC09F0010120EE34F00101AC51D8
:100BE800D9260101AD51DA22010110EE34F00101DC
:100BF800AC51E1260101AD51E222E7500001CA6F74
:100C08000001CA29030BDF6EB5C1D9FFB6C1DAFFEF
:100C1800010EDF6E010E12000001A4C0A9F0000150
:100C2800AA6B000120EE34F00001A251D926000180
:100C3800A351DA22DF500001AB6F0001AB510D0D5B
:100C4800F3500001A2250001AC6FF4500001A3216C
:100C58000001AD6FACC0D9FFADC0DAFFDF50D8B42A
:100C680002D0FF0E1200000120EE01F00001AC518D
:100C7800D9260001AD51DA220001A4C0DFFF00012E
:100C880020EE02F00001AC51D9260001AD51DA2264
:100C98000001A5C0DFFF030E0001AC250001986F1D
:100CA800000E0001AD210001996F0001A7C09BF063
:100CB8000001A6C09AF0A9C09CF0AAC09DF0ADECB6
:100CC80009F0000120EE34F00001A251D9260001FC
:100CD800A351DA22000110EE34F00001A251E126FE
:100CE8000001A351E222E7500001A86F0001A829E2
:100CF800030BDF6EACC0D9FFADC0DAFF010EDF6EAB
:100D0800010E120020EE35F00B50D9260C50DA22D5
:100D1800DF50146E14500D0DF3500B24176EF45061
:100D28000C20186E010E17C0D9FF18C0DAFFDF6259
:100D380050D020EE01F01750D9261850DA22DF5093
:100D48000D5CD8B002D0FD0E120020EE01F0175055
:100D5800D9261850DA22DF50126E1250156E166A14
:100D680011C002F010C001F0030E1724126E000E1D
:100D78001820136E12C003F013C004F015C005F05C
:100D880016C006F0D5EC09F020EE35F00B50D92648
:100D98000C50DA2210EE35F00B50E1260C50E2220E
:100DA800E750126E1228030BDF6E20EE02F0175088
:100DB800D9261850DA220EC0E1FF0FC0E2FFDFCFBC
:100DC800E7FF17C0D9FF18C0DAFF000EDF6E155015
:100DD8001200FC0E12000DC012F0136A20EE34F05F
:100DE8000B50D9260C50DA22DF50146E14500D0D1A
:100DF800F3500B24156EF4500C20166E15C0D9FF55
:100E080016C0DAFFDF50D8B402D0FF0E120020EE71
:100E180001F01550D9261650DA220DC0DFFF20EE5A
:100E280002F01550D9261650DA220EC0DFFF030E45
:100E38001524016E000E1620026E10C004F00FC0BB
:100E480003F012C005F013C006F0D5EC09F020EE4F
:100E580034F00B50D9260C50DA2210EE34F00B5037
:100E6800E1260C50E222E750116E1128030BDF6EC9
:100E780015C0D9FF16C0DAFF010EDF6E010E120091
:100E88004250D8B42CD0000E1A6E1E0E196E34C003
:100E98001CF033C01BF0040E3CEC0BF01F6E1F500F
:100EA800FC0AD8A402D09D9812001F50800A7F0F18
:100EB800D8A01200000E366E000E426E3650010D9C
:100EC800F3503324D96EF4503420DA6EDF50AE6E0E
:100ED800362A050E36641200010E426E1200365094
:100EE800010DF3503324D96EF4503420DA6EDF50FC
:100EF800AE6E362A050E36641200010E426E1200DE
:100F0800EACFBFF0E1CFC0F0E2CFC1F0D9CFC2F055
:100F1800DACFC3F0F3CFC4F0F4CFC5F0F6CFC6F004
:100F2800F7CFC7F0F8CFC8F0F5CFC9F09EA603D029
:100F38009E9662EC00F0F2A403D0F29401EC08F063
:100F4800FAEC08F0C9C0F5FFC8C0F8FFC7C0F7FF42
:100F5800C6C0F6FFC5C0F4FFC4C0F3FFC3C0DAFFC4
:100F6800C2C0D9FFC1C0E2FFC0C0E1FFBFC0EAFFF5
:100F7800BEC0E9FFBDC0FBFFBCC0FAFF1100000105
:100F8800CBC0CDF00001CAC0CCF0000120EE0AF0C1
:100F98000001CC51D9260001CD51DA22000EDF6EB6
:100FA800000120EE17F00001CC51D9260001CD51E7
:100FB800DA22000EDF6E000120EE18F00001CC519D
:100FC800D9260001CD51DA22000EDF6E000120EE95
:100FD80019F00001CC51D9260001CD51DA22050EB5
:100FE800DF6E000120EE1BF00001CC51D926000174
:100FF800CD51DA22000EDF6E1200000E0001996F4B
:10100800000E0001986FA9EC0BF00001000E000122
:10101800B16F0001B70E0001B06F0001000E0001B2
:10102800B36F0001B90E0001B26F020E68EC0AF04E
:101038000001B56F0001B66B0001B5BFB60700012E
:10104800B551020AB611D8A412000A0E0001AE6FFB
:101058000001000E0001B06F0001B90E0001AF6F72
:10106800020EFCEC0AF01200000120EE34F0000140
:10107800CA51D9260001CB51DA22000EDF6E0001D9
:1010880020EE35F00001CA51D9260001CB51DA22F1
:10109800000EDF6E000E0101A26F030E0101A265B2
:1010A80001D012000101A2510D0DF3500001CA2513
:1010B800D96EF4500001CB21DA6E000EDF6E01010B
:1010C800A22B030E0101A265EDD7120001EE00F07C
:1010D800A20EEE6AE806FDE100EE60F0380EEE6A58
:1010E800E806FDE100EE31F0110EEE6AE806FDE1DA
:1010F800E00EF66E160EF76E000EF86E01EECAF0F0
:1011080010EE15F00900F5CFEEFFE550E150FAE1D9
:10111800B00EF66E170EF76E000EF86E0900F5CFDA
:1011280042F0000EF86E000165EF02F00101A551D2
:10113800A411D8B426D0010E0001CA6F06D001014F
:10114800D890A437A5370001CA2B0101A5AFF7D75E
:101158000101A4510101A25D0101A5510101A35999
:10116800D8A008D00101A4510101A25F0101A55135
:101178000101A35B0101D890A533A4330001CA2F54
:10118800E7D7A2C1A2F1A3C1A3F112000001CA6F5F
:10119800C650F00B0809C66EC78EC79C770EC86E7E
:1011A8009388938A000120EE1DF00001CC51D926C6
:1011B8000001CD51DA220001CAC0DFFF000120EE94
:1011C80017F00001CC51D9260001CD51DA22060EC4
:1011D800DF6E000120EE19F00001CC51D926000184
:1011E800CD51DA22050EDF6EC68A12000001606753
:1011F80001D01200F5EC09F000019B5100019A1191
:10120800D8A41200B2EC0BF000019951000198111A
:10121800D8B412000101010E0001996F01016C0E92
:101228000001986FB5EC0AF00009D8A4120000017B
:10123800000E0001996F0001620E0001986FB5EC75
:101248000AF00009D8B4D5EC0BF01200BAC1D9FFE6
:10125800BBC1DAFFDE2A000EDD22BAC1D9FFBBC14D
:10126800DAFF0101DECFA2F10101DDCFA3F1000E0B
:101278000101A56F0A0E0101A46F9AEC08F00101A3
:10128800A251090A0101A311D8A41200140E0101E8
:10129800B76F0101BBC1B9F10101BAC1B8F1020EC2
:1012A800E5EC0AF00101C26F1200000E0001606F48
:1012B8000001000E0001CB6F0001620E0001CA6F31
:1012C80038EC08F00101010E0001CB6F01016C0E32
:1012D8000001CA6F38EC08F00101010E0001CB6F64
:1012E8000101360E0001CA6F38EC08F00101010E49
:1012F8000001CB6F0101000E0001CA6F38EC08F045
:1013080012000101A5C1ABF10101A4C1AAF10101BB
:10131800A3C1A9F10101A2C1A8F110D0AAC1D9FFA6
:10132800ABC1DAFFA8C1E1FFA9C1E2FFDFCFE7FF48
:101338000101AA4BAB2B0101A84BA92B0101A60760
:10134800D8A0A7070101A629D8B4A729D8B41200A4
:10135800E5D700019BC0A1F000019AC0A0F00001F0
:1013680099C09FF0000198C09EF010D0A0C0D9FF8E
:10137800A1C0DAFF9EC0E1FF9FC0E2FFDFCFE7FF19
:101388000001A04BA12B00019E4B9F2B00019C0745
:10139800D8A09D0700019C29D8B49D29D8B4120073
:1013A800E5D704C00AF003C009F002C008F001C084
:1013B80007F00ED009C0D9FF0AC0DAFF07C0E1FF65
:1013C80008C0E2FFDFCFE7FF094A0A2A074A082ACE
:1013D8000506D8A006060528D8B40628D8B41200F1
:1013E800E9D7F2AC07D0000E00019B6F000E000198
:1013F8009A6F1200B2EC0BF000019951000198119C
:10140800D8B407D0000E00019B6F000E00019A6F40
:101418001200000E00019B6F010E00019A6F12006E
:101428000101A26F0001CA51F30B9A6EA2C1CBF061
:101438007F0E0001CB170001D890CB35CD6E000E82
:10144800CF6E000ECE6E9E900101A2AF02D09D809D
:1014580001D09D909ABE9A86CD8012000101BC6F82
:101468000001000E0101AD6F0001620E0101AC6FB9
:10147800BCC1AEF10101B9C1B0F10101B8C1AFF110
:101488000101BBC1B2F10101BAC1B1F17CEC04F0B8
:1014980012000101BC6F0101010E0101AD6F0101D4
:1014A8006C0E0101AC6FBCC1AEF10101B9C1B0F164
:1014B8000101B8C1AFF10101BBC1B2F10101BAC16B
:1014C800B1F17CEC04F012000001B46F0101010ECF
:1014D8000001A36F0101000E0001A26FB4C0A4F0C7
:1014E8000001B1C0A6F00001B0C0A5F00001B3C072
:1014F800A8F00001B2C0A7F00BEC05F01200010142
:10150800A4511E0AA511D8B412000101A4511F0A42
:10151800A511D8A412000101A6510101A825D96E70
:101528000101A7510101A921DA6E000EDF6E120038
:101538000101BD6F280E0101B76F0101BBC1B9F1EF
:101548000101BAC1B8F10101BD51E5EC0AF0010190
:10155800BC6F0101BC29D8B41200C7B41200C58001
:101568001200000120EE35F000019851D926000143
:101578009951DA22DF5000019A6F00019A510D0D3E
:10158800F35000019825D96EF45000019921DA6EC4
:10159800DF5012000001CB6F0101010E0101AD6F98
:1015A8000101360E0101AC6FCBC0AEF1B7C1AFF18E
:1015B8000101B9C1B1F10101B8C1B0F19AEC05F06E
:1015C80012000001CB6F0101010E0101AD6F010195
:1015D800000E0101AC6FCBC0AEF1B7C1AFF1010194
:1015E800B9C1B1F10101B8C1B0F19AEC05F012002E
:1015F8000001B16F0101010E0001A36F01016C0E22
:101608000001A26FB1C0A4F0AEC0A5F00001B0C047
:10161800A7F00001AFC0A6F010EC06F01200A0EC95
:101628000BF001C01BF002C01CF00B0E176E000E71
:10163800196E000E186E000E4FEC0BF0000E026EC5
:10164800000E016E97EC0BF012000001CA6F00014A
:10165800CA517F0BD56E000ED76E000ED66EF2946F
:101668000001CAAF02D0F28A01D0F29AD58E1200D8
:101678001D6E0101010E0C6E0101360E0B6E1DC0B0
:101688000DF01AC00FF019C00EF0116A1BC010F04F
:1016980086EC06F012001A6E0001000E0C6E0001B6
:1016A800620E0B6E1AC00DF017C00EF0106A18C04B
:1016B8000FF0EFEC06F01200948E949C7E86AD84B9
:1016C800000E7F6ECF0EB06EAD98AC8E9F989D9831
:1016D8009D8AAD8AAC88120010AAAAAAAAAA00A854
:1016E800A8A8A8A820A9A9A9A9A955EA29001F0E50
:1016F800176E32C019F031C018F0060E4FEC0BF01F
:10170800120001010001A9C1CBF001010001A8C12B
:10171800CAF01200CAC0D9FFCBC0DAFF000EDE6ED5
:10172800000EDD6E120001C003F002C004F004C018
:10173800CFFF03C0CEFF1200CECF03F0CFCF04F00F
:1017480003C001F004C002F0120098C09AF099C0DA
:101758009BF09BC0D7FF9AC0D6FF1200000EF2AED6
:10176800010E0001986F0001996B1200D08EF28E65
:10177800F28C12008C9E8C8E8C9E12008C9C8C8C11
:101788008C9C12008C9A8C8A8C9A12008C988C886B
:101798008C9812008C948C848C941200000E956E98
:0A17A8001200D38E030012000100AE
:08FFF8008AF795FFF2F9FFF111
:00000001FF
