:0400000060EF00F0BD
:10000800FACF84F0FBCF85F0E9CF86F032EF08F025
:10001800D8CF32F0E8CF33F0E0CF34F0FACF35F074
:10002800FBCF36F0E9CF37F0EACF38F0E1CF39F03F
:10003800E2CF3AF0D9CF3BF0DACF3CF0F3CF3DF046
:10004800F4CF3EF0F6CF3FF0F7CF40F0F8CF41F0D5
:10005800F5CF42F09EA003D09E902AEC0BF09EAA0A
:1000680003D09E9A2FEC04F09EB89DA802D000EC15
:1000780007F042C0F5FF41C0F8FF40C0F7FF3FC09E
:10008800F6FF3EC0F4FF3DC0F3FF3CC0DAFF3BC0C3
:10009800D9FF3AC0E2FF39C0E1FF38C0EAFF37C0F4
:1000A800E9FF36C0FBFF35C0FAFF34C0E0FF33C0BC
:1000B800E8FF32C0D8FF1000A8EF08F0280E0001B2
:1000C800826F010E0001816FF3D10001000E000163
:1000D800796F0001820E0001786F100E0001D4259F
:1000E80000017A6F000E0001D52100017B6F0E0E12
:1000F8007FEC0AF00001836F00018351FC0AD8B439
:10010800120000018351FD0AD8B41200000120EE4C
:100118001FF00001D451D9260001D551DA2200017F
:1001280083C0DFFFC7A60CD0000120EE21F000013C
:10013800D451D9260001D551DA22060EDF6E0DD032
:10014800C580000120EE21F00001D451D92600011C
:10015800D551DA22060EDF6E1200000120EE25F0DE
:100168000001D451D9260001D551DA22DF5000010F
:100178007D6F0001D8907D35C96E000120EE21F019
:100188000001D451D9260001D551DA220A0EDF6EBA
:10019800000120EE1EF00001D451D9260001D551EE
:1001A800DA22000EDF6E1200000120EE1EF00001C0
:1001B800D451D9260001D551DA22DF5000017D6FD4
:1001C80000017D51010D100EF326000EF422F350AC
:1001D8000001D425D96EF4500001D521DA6EDF5024
:1001E800C96E000120EE1EF00001D451D92600018D
:1001F800D551DA22DF2A000120EE1EF00001D45189
:10020800D9260001D551DA220D0EDF641200000153
:1002180020EE10F00001D451D9260001D551DA2280
:10022800DF5000017D6F00017D390F0B0001806FE9
:1002380006D0010E01D0000E0001816F06D000012A
:100248008051020AD8B4F5D7F6D700018151D8B445
:1002580017D0000120EE21F00001D451D926000169
:10026800D551DA220C0EDF6E000120EE0FF00001EE
:10027800D451D9260001D551DA22000EDF6E1200C2
:10028800000120EE21F00001D451D9260001D551FA
:10029800DA220B0EDF6E1200C582000120EE21F07B
:1002A8000001D451D9260001D551DA220D0EDF6E96
:1002B8001200000120EE25F00001D451D9260001DA
:1002C800D551DA22DF5000017D6F0001D8807D35DD
:1002D800C96E000120EE21F00001D451D926000199
:1002E800D551DA220E0EDF6E1200C5AC23D0C584BC
:1002F800000120EE1EF00001D451D9260001D5518D
:10030800DA22000EDF6E000120EE1EF00001D4514B
:10031800D9260001D551DA22000EDF6E000120EE49
:1003280021F00001D451D9260001D551DA22050E59
:10033800DF6E1200C586000120EE1EF00001D451C8
:10034800D9260001D551DA22000EDF6E000120EE19
:1003580021F00001D451D9260001D551DA22080E26
:10036800DF6E1200000120EE0FF00001D451D926F3
:100378000001D551DA22DF5000017D6F00017D5167
:10038800010DF3500001D425D96EF4500001D52198
:10039800DA6EC9CFDFFF000120EE0FF00001D45163
:1003A800D9260001D551DA22DF2A000120EE0FF00C
:1003B8000001D451D9260001D551DA220D0EDF648F
:1003C8001CD0280E0001766F0001D5C078F000011E
:1003D800D4C077F0000120EE0FF00001D451D926E7
:1003E8000001D551DA22DF5000017D6F00017D291F
:1003F80013EC0BF000017E6F1DD0C7A827D0280E84
:100408000001766F0001D5C078F00001D4C077F004
:10041800000120EE0FF00001D451D9260001D5517A
:10042800DA22DF5000017D6F00017D2913EC0BF00B
:1004380000017F6F000120EE21F00001D451D92680
:100448000001D551DA220B0EDF6E0DD0C5880001F0
:1004580020EE21F00001D451D9260001D551DA222D
:100468000E0EDF6E1200F9EC0BF0C584000120EED1
:100478001EF00001D451D9260001D551DA22000E10
:10048800DF6E000120EE1EF00001D451D9260001D4
:10049800D551DA22000EDF6E000120EE21F00001B6
:1004A800D451D9260001D551DA22050EDF6E12008B
:1004B800000120EE21F00001D451D9260001D551C8
:1004C800DA22DF50050AD8B400D6030AD8B445D6D4
:1004D8000E0AD8B447D7020AD8B466D6010AD8B4E7
:1004E800C2D7070AD8B4D8D6010AD8B4E2D6030AC4
:1004F800D8A41200FAD6E00ED36E9B8C0201020E2D
:1005080001018D6F0201A60E01018C6FF2EC07F05C
:100518000201020E01018D6F0201A20E01018C6F12
:10052800AEEC0BF070EC09F0000E936E000E8A6EC4
:10053800960E69EC0BF0000E01018C6F9B0E2BECF4
:100548000AF09F909F9A9F864F0E10EC09F09D86A7
:10055800FDEC0BF0E1EC0BF08EEC0BF0540E02010D
:10056800A06F450E0201A16F0201020E0101A56FE5
:100578000201A50E0101A46F0201020E0101A76F7D
:1005880002018C0E0101A66F0E0E64EC0AF0020146
:10059800A46F0201A4BF5ED04FD00201020E010178
:1005A8008D6F02019D0E01018C6F02010101A5C230
:1005B8008EF101018F6B0201A4510101906F0101BD
:1005C800916B010190BF91070201020E0101936F27
:1005D80002018C0E0101926FDAEC0BF03BD00201A4
:1005E800020E0101A76F02018C0E0101A66F9EEC9D
:1005F8000BF08CC29FF22ED0020E0201A46FA0C293
:100608008CF2A1C28DF226D0010E0201A46F3A0E1F
:1006180004D0010E0201A46F550E02018C6F1AD08E
:1006280002019F51A80AD8B4EFD7010AD8B4F1D76C
:10063800030AD8B4E1D70ED00201A5510A0AD8B4EA
:10064800ACD7220AD8B4CBD7010AD8B4D2D7030A78
:10065800D8B4E6D70201020E0101A56F0201A50E6A
:100668000101A46F0201020E0101A76F02018C0EA5
:100678000101A66F0E0E49EC0AF00201A46F0201F7
:10068800A4BF72D74DD00201020E0101AB6F020167
:10069800A20E0101AA6F02010101A5C2ACF101017C
:1006A800AD6B0201A4510101AE6F0101AF6B0101F5
:1006B800AEBFAF070201020E0101B16F02018C0E3D
:1006C8000101B06FABEC07F04FD70201020E010138
:1006D8008D6F02019B0E01018C6F02010101A5C201
:1006E8008EF101018F6B0201A4510101906F01018C
:1006F800916B010190BF91070201020E0101936FF6
:1007080002018C0E0101926F9AEC0AF002018C51E1
:10071800A50AD8B429D7100AD8B426D7700A24D77E
:100728000201A5510B0AD8B4AED7150AD8B4CDD753
:10073800010AD8B4CAD718D7010120EE45F0010143
:100748009651D92601019751DA22DF5001019F6F96
:1007580001019F51110DF350010196250101A26F6E
:10076800F450010197210101A36F010EA2C1D9FF25
:10077800A3C1DAFFDF626DD0010120EE01F00101B3
:10078800A251D9260101A351DA22DF500101985D57
:10079800D8B002D0FD0E1200010120EE01F00101D7
:1007A800A251D9260101A351DA22DF5001019D6F20
:1007B80001019D510101A06F0101A16B01019CC1C3
:1007C8008DF101019BC18CF1030E0101A2250101EC
:1007D8009D6F000E0101A32101019E6F9DC18EF145
:1007E8009EC18FF1A0C190F1A1C191F19CEC09F0DB
:1007F800010120EE45F001019651D92601019751DA
:10080800DA22010110EE45F001019651E1260101BD
:100818009751E222E75001019D6F01019D29030BC9
:10082800DF6E010120EE02F00101A251D92601017B
:10083800A351DA2299C1E1FF9AC1E2FFDFCFE7FFB6
:10084800A2C1D9FFA3C1DAFF000EDF6E0101A051DA
:100858001200FC0E120048660BD04950010DF350EF
:100868004324D96EF4504420DA6EAFCFDFFF492A13
:10087800110E49641200000E496E4A2A43C0D9FF7E
:1008880044C0DAFFDF504A18D8B407D043C0D9FFB4
:1008980044C0DAFFDF504A6E120020EE07F04350E2
:1008A800D9264450DA22DF501B6E20EE06F0435062
:1008B800D9264450DA22DF501C6E20EE05F0435052
:1008C800D9264450DA22DF501D6E20EE04F0435042
:1008D800D9264450DA22DF501E6E20EE03F0435032
:1008E800D9264450DA22DF501F6E20EE02F0435022
:1008F800D9264450DA22DF50206E20EE01F0435012
:10090800D9264450DA22DF5020181F181E181D1847
:100918001C181B18D8A41200000E316E000E306E81
:100928003150800A800F0E0ED8B4305CD8B017D082
:10093800010E30241B6E000E31201C6E1B50432408
:10094800D96E1C504420DA6E210E3024E16E000E60
:100958003120E26EDFCFE7FF304A312AE1D71F0EA0
:10096800176E000E196E210E186E120E7CEC0BF02D
:100978002F6E1200000120EE45F000016A51D926C1
:1009880000016B51DA22DF500001736F00017351CF
:10099800110DF35000016A250001766FF450000133
:1009A8006B210001776F010E76C0D9FF77C0DAFF9F
:1009B800DF626DD0000120EE01F000017651D926EA
:1009C80000017751DA22DF5000016C5DD8B002D007
:1009D800FD0E1200000120EE01F000017651D9262B
:1009E80000017751DA22DF500001716F0001715167
:1009F8000001746F0001756B000170C061F00001A7
:100A08006FC060F0030E000176250001716F000EC3
:100A1800000177210001726F71C062F072C063F04B
:100A280074C064F075C065F0C4EC09F0000120EEF4
:100A380045F000016A51D92600016B51DA22000104
:100A480010EE45F000016A51E12600016B51E222E7
:100A5800E7500001716F00017129030BDF6E00017F
:100A680020EE02F000017651D92600017751DA22F2
:100A78006DC0E1FF6EC0E2FFDFCFE7FF76C0D9FFB0
:100A880077C0DAFF000EDF6E000174511200FC0E11
:100A98001200010198C19DF101019E6B010120EE38
:100AA80044F001019651D92601019751DA22DF500D
:100AB80001019F6F01019F51110DF350010196250E
:100AC8000101A06FF450010197210101A16FA0C19C
:100AD800D9FFA1C1DAFFDF50D8B402D0FF0E12004F
:100AE800010120EE01F00101A051D9260101A15117
:100AF800DA22010198C1DFFF010120EE02F00101B5
:100B0800A051D9260101A151DA22010199C1DFFFC3
:100B1800030E0101A02501018C6F000E0101A12126
:100B280001018D6F01019BC18FF101019AC18EF105
:100B38009DC190F19EC191F19CEC09F0010120EE5C
:100B480044F001019651D92601019751DA22010199
:100B580010EE44F001019651E12601019751E2227D
:100B6800E75001019C6F01019C29030BDF6EA0C1B6
:100B7800D9FFA1C1DAFF010EDF6E010E12000001DC
:100B88006CC071F00001726B000120EE44F00001AE
:100B98006A51D92600016B51DA22DF500001736FC8
:100BA80000017351110DF35000016A250001746FA3
:100BB800F45000016B210001756F74C0D9FF75C036
:100BC800DAFFDF50D8B402D0FF0E1200000120EE89
:100BD80001F000017451D92600017551DA22000193
:100BE8006CC0DFFF000120EE02F000017451D9262D
:100BF80000017551DA2200016DC0DFFF030E00010C
:100C080074250001606F000E000175210001616FFD
:100C180000016FC063F000016EC062F071C064F043
:100C280072C065F0C4EC09F0000120EE44F0000148
:100C38006A51D92600016B51DA22000110EE44F006
:100C480000016A51E12600016B51E222E7500001E0
:100C5800706F00017029030BDF6E74C0D9FF75C077
:100C6800DAFF010EDF6E010E120020EE45F00B5088
:100C7800D9260C50DA22DF50146E1450110DF3509F
:100C88000B24176EF4500C20186E010E17C0D9FFF4
:100C980018C0DAFFDF6250D020EE01F01750D926D5
:100CA8001850DA22DF500D5CD8B002D0FD0E1200C9
:100CB80020EE01F01750D9261850DA22DF50126EB4
:100CC8001250156E166A11C002F010C001F0030E22
:100CD8001724126E000E1820136E12C003F013C0F2
:100CE80004F015C005F016C006F0ECEC09F020EE93
:100CF80045F00B50D9260C50DA2210EE45F00B5077
:100D0800E1260C50E222E750126E1228030BDF6E28
:100D180020EE02F01750D9261850DA220EC0E1FF53
:100D28000FC0E2FFDFCFE7FF17C0D9FF18C0DAFF17
:100D3800000EDF6E15501200FC0E12004D6847C001
:100D48004EF0472AFE0E5E6E000E056E000E066E11
:100D580049D00650010DF3500124D96EF4500220F9
:100D6800DA6EDF50FF0AD8B40BD00650010DF350ED
:100D78000124D96EF4500220DA6EFE0EDF6210D024
:100D88000650036E046A020E0326000E04224D0E5E
:100D98000324D96E000E0420DA6EFD0EDF6E17D024
:100DA8000650010DF3500124D96EF4500220DA6E7A
:100DB8000650036E046A020E0326000E04224D0E2E
:100DC8000324E16E000E0420E26EDFCFE7FF065039
:100DD800010DF3500124D96EF4500220DA6EDF5071
:100DE800051A062A0D0E0664B4D705C05DF0000E7C
:100DF800026E4D0E016E1200F1EC0BF01F0E206E0C
:100E08005F50D8B43CD0EDEC0BF0000E1A6E200EFB
:100E1800196E1FC01CF01EC01BF00E0E55EC0BF017
:100E2800216E2150FC0AD8A404D0F5EC0BF09D9853
:100E380012002150800A7F0FD8A01200E9EC0BF0B5
:100E48001FC002F01EC001F0A2EC06F001C045F080
:100E580002C046F0000E4B6E000E5F6E4B50010D47
:100E6800F3504524D96EF4504620DA6EDF50AE6E4A
:100E78004B2A110E4B641200010E5F6E1200E5EC56
:100E88000BF04B50010DF3504524D96EF450462019
:100E9800DA6EDF50AE6E4B2A110E4B641200010E53
:100EA8005F6E12000DC012F0136A20EE44F00B5072
:100EB800D9260C50DA22DF50146E1450110DF3505D
:100EC8000B24156EF4500C20166E15C0D9FF16C0F1
:100ED800DAFFDF50D8B402D0FF0E120020EE01F086
:100EE8001550D9261650DA220DC0DFFF20EE02F089
:100EF8001550D9261650DA220EC0DFFF030E15242E
:100F0800016E000E1620026E10C004F00FC003F030
:100F180012C005F013C006F0ECEC09F020EE44F026
:100F28000B50D9260C50DA2210EE44F00B50E12673
:100F38000C50E222E750116E1128030BDF6E15C02A
:100F4800D9FF16C0DAFF010EDF6E010E120020EE87
:100F580092F011EECEF00E0EDECFE6FFE82EFCD7B3
:100F680020EEA0F011EEB2F00E0EDECFE6FFE82E76
:100F7800FCD720EEAEF011EEC0F00E0EDECFE6FF8D
:100F8800E82EFCD70101010E0101A76F0101CE0E69
:100F98000101A66F9EEC0BF00101010E0101A76F84
:100FA8000101CE0E0101A66F0E0EB3EC0AF001018D
:100FB800010E0101A76F0101B20E0101A66F0E0E0D
:100FC800B3EC0AF00101010E0101A76F0101C00E87
:100FD8000101A66F0E0EB3EC0AF012000101000128
:100FE8008DC1D5F0010100018CC1D4F0000120EEC3
:100FF8000EF00001D451D9260001D551DA22000E95
:10100800DF6E000120EE1FF00001D451D926000147
:10101800D551DA22000EDF6E000120EE20F000012B
:10102800D451D9260001D551DA22000EDF6E000115
:1010380020EE21F00001D451D9260001D551DA2241
:10104800050EDF6E000120EE23F00001D451D926F1
:101058000001D551DA22000EDF6E1200EACF87F0C8
:10106800E1CF88F0E2CF89F0D9CF8AF0DACF8BF0E0
:10107800F3CF8CF0F4CF8DF0F6CF8EF0F7CF8FF062
:10108800F8CF90F0F5CF91F09EA603D09E9662EC33
:1010980000F0F2A403D0F29471EC08F040EC09F0EF
:1010A80091C0F5FF90C0F8FF8FC0F7FF8EC0F6FF24
:1010B8008DC0F4FF8CC0F3FF8BC0DAFF8AC0D9FF64
:1010C80089C0E2FF88C0E1FF87C0EAFF86C0E9FF68
:1010D80085C0FBFF84C0FAFF1100000E0001616F9C
:1010E800000E0001606FC9EC0BF00001000E00015A
:1010F800796F00017F0E0001786F0001000E00017A
:101108007B6F0001810E00017A6F020E7FEC0AF0FE
:1011180000017D6F00017E6B00017DBF7E0700012D
:101128007D51020A7E11D8A412000A0E0001766FC2
:101138000001000E0001786F0001810E0001776F39
:10114800020E13EC0BF0120002EE00F08C0EEE6AA9
:10115800E806FDE101EE00F08C0EEE6AE806FDE11E
:1011680000EEBCF0180EEE6AE806FDE100EE43F072
:101178001C0EEE6AE806FDE1800EF66E160EF76E9E
:10118800000EF86E00EE92F010EE2AF00900F5CF8E
:10119800EEFFE550E150FAE1060EF66E180EF76E16
:1011A800000EF86E0900F5CF5FF0000EF86E000132
:1011B8007FEF02F0010120EE44F001018C51D926A5
:1011C80001018D51DA22000EDF6E010120EE45F09B
:1011D80001018C51D92601018D51DA22000EDF6EF2
:1011E800000E01018E6F030E01018E6501D0120001
:1011F80001018E51110DF35001018C25D96EF45067
:1012080001018D21DA6E000EDF6E01018E2B030EB7
:1012180001018E65EDD7120001018C6FC650F00BED
:101228000809C66EC78EC79C770EC86E9388938AC6
:10123800000120EE25F00001D451D9260001D55136
:10124800DA2201018CC1DFFF000120EE1FF000014E
:10125800D451D9260001D551DA220E0EDF6E0001D5
:1012680020EE21F00001D451D9260001D551DA220F
:10127800050EDF6EC68A12000001BC6701D012009D
:101288000CEC0AF00001635100016211D8A41200AD
:10129800D2EC0BF00001615100016011D8B41200CA
:1012A8000101010E0001616F0101000E0001606F74
:1012B800CCEC0AF00009D8A412000101010E0001CB
:1012C800616F0101460E0001606FCCEC0AF0000965
:1012D800D8B400EC0CF01200000E0001BC6F010144
:1012E800010E01018D6F0101460E01018C6FDEECCC
:1012F80008F00101010E01018D6F0101000E0101CD
:101308008C6FDEEC08F00201020E01018D6F020104
:10131800460E01018C6FDEEC08F00201020E01019D
:101328008D6F0201000E01018C6FDEEC08F01200D7
:1013380001018FC195F101018EC194F101018DC1A7
:1013480093F101018CC192F110D094C1D9FF95C1DC
:10135800DAFF92C1E1FF93C1E2FFDFCFE7FF0101AE
:10136800944B952B0101924B932B01019007D8A028
:10137800910701019029D8B49129D8B41200E5D772
:10138800000163C069F0000162C068F0000161C03B
:1013980067F0000160C066F010D068C0D9FF69C06E
:1013A800DAFF66C0E1FF67C0E2FFDFCFE7FF0001B9
:1013B800684B692B0001664B672B00016407D8A0B6
:1013C800650700016429D8B46529D8B41200E5D7A7
:1013D80004C00AF003C009F002C008F001C007F019
:1013E8000ED009C0D9FF0AC0DAFF07C0E1FF08C064
:1013F800E2FFDFCFE7FF094A0A2A074A082A05065B
:10140800D8A006060528D8B40628D8B41200E9D70B
:10141800F2AC07D0000E0001636F000E0001626F8E
:101428001200D2EC0BF00001615100016011D8B438
:1014380007D0000E0001636F000E0001626F1200FA
:10144800000E0001636F010E0001626F12000101BE
:101458008E6F01018C51F30B9A6E8EC18DF17F0E48
:1014680001018D170101D8908D35CD6E000ECF6E1C
:10147800000ECE6E9E9001018EAF02D09D8001D0ED
:101488009D909ABE9A86CD8012000101A86F010135
:10149800010E0101976F0101460E0101966FA8C167
:1014A80098F10101A5C19AF10101A4C199F10101C5
:1014B800A7C19CF10101A6C19BF1A0EC03F01200A9
:1014C8000101A86F0101010E0101976F0101000ED2
:1014D8000101966FA8C198F10101A5C19AF1010116
:1014E800A4C199F10101A7C19CF10101A6C19BF119
:1014F800A0EC03F0120000017C6F0201020E000153
:101508006B6F0201000E00016A6F7CC06CF0000175
:1015180079C06EF0000178C06DF000017BC070F0FA
:1015280000017AC06FF0BEEC04F0120001018E5188
:101538001E0A8F11D8B4120001018E511F0A8F1193
:10154800D8A412000101905101019225D96E010120
:10155800915101019321DA6E000EDF6E1200010134
:10156800A96F280E0101A26F0101A7C1A4F1010111
:10157800A6C1A3F10101A951FCEC0AF00101A86F71
:101588000101A829D8B41200C7B41200C5801200FE
:10159800000120EE45F000016051D926000161519B
:1015A800DA22DF500001626F00016251110DF35021
:1015B80000016025D96EF45000016121DA6EDF5018
:1015C80012000101A56F0201020E0101976F0201CD
:1015D800460E0101966FA5C198F1A2C199F10101CA
:1015E800A4C19BF10101A3C19AF14DEC05F01200D1
:1015F8000101A56F0201020E0101976F0201000EA1
:101608000101966FA5C198F1A2C199F10101A4C188
:101618009BF10101A3C19AF14DEC05F01200000104
:10162800796F0101010E00016B6F0101000E0001CD
:101638006A6F79C06CF076C06DF0000178C06FF009
:10164800000177C06EF0C3EC05F01200C0EC0BF09F
:1016580001C01BF002C01CF00B0E176E000E196EB5
:10166800000E186E000E7CEC0BF0000E026E000EE1
:10167800016EB7EC0BF012002AFFFFFEFEAAFFFF77
:10168800FEFEAA1133452BA8A8A8A8A8FFFFFEFEB6
:10169800AA1133452CA9A9A9A9A9FFFFFEFEAA11E1
:1016A80033451D6E0201020E0C6E0201460E0B6ED2
:1016B8001DC00DF01AC00FF019C00EF01CC011F0BB
:1016C8001BC010F039EC06F0120001018C6F01010B
:1016D8008C517F0BD56E000ED76E000ED66EF2942D
:1016E80001018CAF02D0F28A01D0F29AD58E120095
:1016F8001A6E0101010E0C6E0101460E0B6E1AC026
:101708000DF017C00EF019C010F018C00FF056EC0D
:1017180007F01200948E949C7E86AD84000E7F6E36
:10172800CF0EB06EAD98AC8E9F989D989D8AAD8A6D
:10173800AC8812001F0E0101A26F0101A7C1A4F11C
:101748000101A6C1A3F10E0EE5EC0AF00101A86F94
:101758009D8812008CC1D9FF8DC1DAFF000EDE6EA4
:10176800000EDD6E120001C003F002C004F004C0D8
:10177800CFFF03C0CEFF1200CECF03F0CFCF04F0CF
:1017880003C001F004C002F0120060C062F061C042
:1017980063F063C0D7FF62C0D6FF1200000EF2AE3E
:1017A800010E0001606F0001616B1200010193C11D
:1017B80095F1010192C194F11200D08EF28EF28C53
:1017C80012008C9E8C8E8C9E12008C9C8C8C8C9C17
:1017D80012008C9A8C8A8C9A12008C988C888C981F
:1017E80012008C948C848C9412008C9E8C8E8C9E0F
:1017F8001200000E956E1200D38E03001200010035
:08FFF8008AF795FFF2F9FFF111
:00000001FF
