:0400000067EF00F0B6
:10000800FACFC1F0FBCFC2F0E9CFC3F09CEF07F005
:10001800D8CF1DF0E8CF1EF0E0CF1FF0FACF20F0C8
:10002800FBCF21F0E9CF22F0EACF23F0E1CF24F093
:10003800E2CF25F0D9CF26F0DACF27F0F3CF28F09A
:10004800F4CF29F0F6CF2AF0F7CF2BF0F8CF2CF029
:10005800F5CF2DF09EA003D09E90ABEC0AF09EAA9F
:1000680003D09E9A3DEC0AF09EB89DA809D08C86D4
:100078008C96A2EC0BF002500110D8B455EC0BF0A2
:100088002DC0F5FF2CC0F8FF2BC0F7FF2AC0F6FFE4
:1000980029C0F4FF28C0F3FF27C0DAFF26C0D9FF24
:1000A80025C0E2FF24C0E1FF23C0EAFF22C0E9FF28
:1000B80021C0FBFF20C0FAFF1FC0E0FF1EC0E8FF01
:1000C8001DC0D8FF100010EF0BF0100E8C6E000E44
:1000D8000001C06F000E0001BB6F000E0001BF6F72
:1000E800000E0001BE6F000E0001BC6FC6AC24D02C
:1000F800C69C000120EE0CF00001CF51D92600016A
:10010800D051DA22050EDF6E010E0001BC6F00012E
:1001180020EE0EF00001CF51D9260001D051DA228D
:10012800DF2A000120EE0DF00001CF51D926000191
:10013800D051DA22040EDF6EC7A005D0C9CFBDF0BA
:10014800010E0001C06F0001BC679FD188D1C7A60E
:100158009CD10001C051E2EC06F0000120EE0CF049
:100168000001CF51D9260001D051DA22080EDF62F2
:100178008CD1000E0001C06F010E0001BE6F85D149
:10018800C7A82AD0000120EE0BF00001CF51D926D4
:100198000001D051DA22DF2A0001C051D8B454D16D
:1001A800C7BA04D0010E0001BF6F4ED1000120EE86
:1001B8000EF00001CF51D9260001D051DA22DF2AF2
:1001C800000120EE0DF00001CF51D9260001D051D9
:1001D800DA22060EDF6E38D10001C051D8B455D1ED
:1001E800000120EE0BF00001CF51D9260001D051BB
:1001F800DA22DF2AC7BA19D0C7B40BD0000120EE23
:100208000CF00001CF51D9260001D051DA22070E97
:1002180071D0000120EE0CF00001CF51D926000169
:10022800D051DA22080EDF6E08D1000120EE0EF060
:100238000001CF51D9260001D051DA22DF2A00016E
:1002480020EE0CF00001CF51D9260001D051DA225E
:10025800050EDF6E000120EE0DF00001CF51D9260A
:100268000001D051DA22060E45D0000120EE1AF026
:100278000001CF51D9260001D051DA22DF50000108
:10028800B76F000120EE19F00001CF51D926000107
:10029800D051DA22DF500001B75DD8B0D5D00001C7
:1002A80020EE1AF00001CF51D9260001D051DA22F0
:1002B800DF500001B76F0001B751010D0F0EF32693
:1002C800000EF422F3500001CF25D96EF45000013E
:1002D800D021DA6EDF50C96E000120EE1AF000015D
:1002E800CF51D9260001D051DA22DF2A010E0001B0
:1002F800BB6FCBD0DF6EC9D0C7A85AD0000120EEA3
:100308000BF00001CF51D9260001D051DA22DF2AA3
:100318000001C051D8B448D0C7AA25D0000120EEAA
:100328000AF00001CF51D9260001D051DA22DF505E
:100338000001B76F0001B751010DF3500001CF253F
:10034800D96EF4500001D021DA6E0001BDC0DFFF84
:10035800000120EE0AF00001CF51D9260001D0514A
:10036800DA22DF2A21D0000120EE0EF00001CF5161
:10037800D9260001D051DA22DF2A000120EE0DF043
:100388000001CF51D9260001D051DA22060EDF6EC6
:10039800000120EE0CF00001CF51D9260001D05108
:1003A800DA22050EDF6E50D0010E0001BF6F4CD06F
:1003B8000001C051D8B469D0000120EE0BF0000153
:1003C800CF51D9260001D051DA22DF2AC7AA25D079
:1003D800000120EE0AF00001CF51D9260001D051CA
:1003E800DA22DF500001B76F0001B751010DF35059
:1003F8000001CF25D96EF4500001D021DA6E00013A
:10040800BDC0DFFF000120EE0AF00001CF51D92660
:100418000001D051DA22DF2A38D0C7A4C7D600019C
:1004280020EE0CF00001CF51D9260001D051DA227C
:10043800080EDF6E010E0001BF6F010E0001BE6FD6
:10044800000E0001C06F21D0000120EE0CF0000169
:10045800CF51D9260001D051DA22050E4BD7000121
:1004680020EE0CF00001CF51D9260001D051DA223C
:10047800DF50050AD8B46BD6030AD8B481D6010A6E
:10048800D8B43AD70F0AD8B4F0D60001C06704D060
:100498000001BB51D8B402D0C6A8C688000120EE1E
:1004A8000AF00001CF51D9260001D051DA22080EF6
:1004B800DF6423D00001BF6720D0000120EE0CF0DC
:1004C8000001CF51D9260001D051DA22050EDF6E86
:1004D800000120EE0EF00001CF51D9260001D051C5
:1004E800DA22DF2A000120EE0DF00001CF51D926D3
:1004F8000001D051DA22070EDF6E0001BF51D8B4D7
:100508003FD0000120EE0BF00001CF51D9260001A9
:10051800D051DA22000110EE0AF00001CF51E12695
:100528000001D051E222E7500001B76F0001B75136
:10053800010DF3500001CF25E16EF4500001D021E8
:10054800E26EDFCFE7FF280E0001B36F0001D0C0D5
:10055800B5F00001CFC0B4F0000120EE0AF00001B0
:10056800CF51D9260001D051DA22DF500001B76FF0
:100578000001B7293EEC0BF0000120EE0AF041D053
:10058800000120EE0EF00001CF51D9260001D05114
:10059800DA22DF50D8B43DD0000120EE0EF0000181
:1005A800CF51D9260001D051DA22DF500001B86FAF
:1005B800000120EE0DF00001CF51D9260001D051E5
:1005C800DA22DF500001B96F000120EE0BF00001C4
:1005D800CF51D9260001D051DA22DF500001BA6F7D
:1005E800290E0001B36F0001000E0001B56F000174
:1005F800B80E0001B46F030E3EEC0BF0000120EEC4
:100608000EF00001CF51D9260001D051DA22000E98
:10061800DF6E0001BE51D8B40FD02A0E0001B36FAF
:100628000001D0C0B5F00001CFC0B4F0000E3EEC20
:100638000BF0000E0001BE6F000E8C6E1200E00E73
:10064800D36E9B8C0101010E0101A36F0101DB0E2A
:100658000101A26F50EC08F00101010E0101A36F26
:100668000101D70E0101A26FB0EC0BF045EC09F0C7
:10067800000E936E000E8A6E960E7EEC0BF0000E46
:100688000101A26F9B0E1FEC0AF09F909F9A9F8614
:100698009E0E6AEC0BF09D86000E956EE3EC0BF057
:1006A80016EC08F0550EC5EC0AF0440E0101D56FA2
:1006B800440E0101D66FE7EC0BF0020AD8A414D05F
:1006C800C0EC09F00101D56FC0EC09F00101D66F4B
:1006D8000101D53BD537D537C00ED5170101D64115
:1006E800E8423F0B0101D5130101010E0101BB6F67
:1006F8000101D90E0101BA6F0101010E0101BD6F9F
:100708000101C50E0101BC6F0A0E75EC0AF001016A
:10071800DA6F0101DABF5FD050D00101010E01018B
:10072800A36F0101D20E0101A26F0101D9C1A4F189
:100738000101A56B0101DA510101A66F0101A76B47
:100748000101A6BFA7070101010E0101A96F01015F
:10075800C50E0101A86FDCEC0BF03DD0C5C1D4F18A
:100768003AD0020E0101DA6FD5C1C5F1D6C1C6F182
:1007780017D0010E0101DA6F3A0E04D0010E010103
:10078800DA6F550E0101C56F0BD00101D451A80ACB
:10079800D8B4EFD7010AD8B4F1D7030AD8B4E1D74F
:1007A8000101010E0101A36F0101C50E0101A26F34
:1007B8000101DA5174EC05F00ED00101D9510A0A91
:1007C800D8B4ABD7220AD8B4C9D7010AD8B4C6D787
:1007D800030AD8B4DAD70101010E0101BB6F010188
:1007E800D90E0101BA6F0101010E0101BD6F0101AE
:1007F800C50E0101BC6F0A0E5AEC0AF00101DA6F4E
:100808000101DABF58D742D00101010E0101BD6FC5
:100818000101D70E0101BC6F0101D9C1BEF101016F
:10082800BF6B0101DA510101C06F0101C16B010108
:10083800C0BFC1070101010E0101C36F0101C50E4F
:100848000101C26FE7EC08F036D70101010E010182
:10085800A36F0101D00E0101A26F0101D9C1A4F15A
:100868000101A56B0101DA510101A66F0101A76B16
:100878000101A6BFA7070101010E0101A96F01012E
:10088800C50E0101A86FDEEC0AF015D70101D95198
:100898000B0AD8B4B9D7150AD8B4D7D7010AD8B42F
:1008A800D4D709D7010120EE35F00101AC51D92682
:1008B8000101AD51DA22DF500101B56F0101B551D7
:1008C8000D0DF3500101AC250101B86FF450010181
:1008D800AD210101B96F010EB8C1D9FFB9C1DAFF65
:1008E800DF626DD0010120EE01F00101B851D92677
:1008F8000101B951DA22DF500101AE5DD8B002D052
:10090800FD0E1200010120EE01F00101B851D926B7
:100918000101B951DA22DF500101B36F0101B3516E
:100928000101B66F0101B76B0101B2C1A3F1010169
:10093800B1C1A2F1030E0101B8250101B36F000E88
:100948000101B9210101B46FB3C1A4F1B4C1A5F18A
:10095800B6C1A6F1B7C1A7F170EC09F0010120EE0C
:1009680035F00101AC51D9260101AD51DA2201015E
:1009780010EE35F00101AC51E1260101AD51E22242
:10098800E7500101B36F0101B329030BDF6E0101C9
:1009980020EE02F00101B851D9260101B951DA223D
:1009A800AFC1E1FFB0C1E2FFDFCFE7FFB8C1D9FFB8
:1009B800B9C1DAFF000EDF6E0101B6511200FC0E5C
:1009C8001200000120EE35F00001A751D9260001E0
:1009D800A851DA22DF500001B06F0001B0510D0DAF
:1009E800F3500001A7250001B36FF4500001A821BE
:1009F8000001B46F010EB3C0D9FFB4C0DAFFDF62E3
:100A08006DD0000120EE01F00001B351D92600019C
:100A1800B451DA22DF500001A95DD8B002D0FD0E32
:100A28001200000120EE01F00001B351D9260001A7
:100A3800B451DA22DF500001AE6F0001AE5100015F
:100A4800B16F0001B26B0001ADC09EF00001ACC0F7
:100A58009DF0030E0001B3250001AE6F000E0001EA
:100A6800B4210001AF6FAEC09FF0AFC0A0F0B1C01D
:100A7800A1F0B2C0A2F098EC09F0000120EE35F028
:100A88000001A751D9260001A851DA22000110EE71
:100A980035F00001A751E1260001A851E222E750F4
:100AA8000001AE6F0001AE29030BDF6E000120EEDE
:100AB80002F00001B351D9260001B451DA22AAC0CC
:100AC800E1FFABC0E2FFDFCFE7FFB3C0D9FFB4C09F
:100AD800DAFF000EDF6E0001B1511200FC0E1200A9
:100AE8000101A66F000120EE19F00001CF51D926AF
:100AF8000001D051DA22000EDF6E3ED0000120EE58
:100B080019F00001CF51D9260001D051DA22DF5067
:100B18000101A46F0101A451010DF3500101A225A7
:100B2800D96EF4500101A321DA6E000110EE19F01C
:100B38000001CF51E1260001D051E222E750010126
:100B4800A56F0101A551010D0F0EF326000EF42229
:100B5800F3500001CF25E16EF4500001D021E26E80
:100B6800DFCFE7FF000120EE19F00001CF51D926B1
:100B78000001D051DA22DF2A000120EE19F000012D
:100B8800CF51D9260001D051DA22DF500101A46FDC
:100B98000101A6510101A45DD8A0B0D7000120EE43
:100BA80019F00001CF51D9260001D051DA220101F4
:100BB800A6C1DFFF000120EE1AF00001CF51D926AF
:100BC8000001D051DA22010EDF6E000120EE0FF095
:100BD8000001CF51D9260001D051DA22DF50C96E69
:100BE800C68812000101AEC1B3F10101B46B010165
:100BF80020EE34F00101AC51D9260101AD51DA22C1
:100C0800DF500101B56F0101B5510D0DF350010120
:100C1800AC250101B66FF4500101AD210101B76F98
:100C2800B6C1D9FFB7C1DAFFDF50D8B402D0FF0E82
:100C38001200010120EE01F00101B651D92601018F
:100C4800B751DA220101AEC1DFFF010120EE02F047
:100C58000101B651D9260101B751DA220101AFC10C
:100C6800DFFF030E0101B6250101A26F000E01018D
:100C7800B7210101A36F0101B1C1A5F10101B0C103
:100C8800A4F1B3C1A6F1B4C1A7F170EC09F0010158
:100C980020EE34F00101AC51D9260101AD51DA2220
:100CA800010110EE34F00101AC51E1260101AD5112
:100CB800E222E7500101B26F0101B229030BDF6E96
:100CC800B6C1D9FFB7C1DAFF010EDF6E010E1200FF
:100CD8000001A9C0AEF00001AF6B000120EE34F0B6
:100CE8000001A751D9260001A851DA22DF500001DE
:100CF800B06F0001B0510D0DF3500001A7250001A0
:100D0800B16FF4500001A8210001B26FB1C0D9FF42
:100D1800B2C0DAFFDF50D8B402D0FF0E12000001D3
:100D280020EE01F00001B151D9260001B251DA22BA
:100D38000001A9C0DFFF000120EE02F00001B1515F
:100D4800D9260001B251DA220001AAC0DFFF030E42
:100D58000001B12500019D6F000E0001B2210001C4
:100D68009E6F0001ACC0A0F00001ABC09FF0AEC008
:100D7800A1F0AFC0A2F098EC09F0000120EE34F029
:100D88000001A751D9260001A851DA22000110EE6E
:100D980034F00001A751E1260001A851E222E750F2
:100DA8000001AD6F0001AD29030BDF6EB1C0D9FFA3
:100DB800B2C0DAFF010EDF6E010E120000019D6F56
:100DC800000120EE0BF00001CF51D9260001D051CF
:100DD800DA22010EDF6E000120EE0AF00001CF5189
:100DE800D9260001D051DA22000EDF6E00019D5194
:100DF800D8B43DD0C7AA21D0000120EE0CF00001E4
:100E0800CF51D9260001D051DA22050EDF6E00013C
:100E180020EE0EF00001CF51D9260001D051DA2280
:100E2800DF2A000120EE0DF00001CF51D926000184
:100E3800D051DA22050EDF6E1200C7A40CD00001D3
:100E480020EE0CF00001CF51D9260001D051DA2252
:100E5800080EDF6E1200000120EE0CF00001CF51E9
:100E6800D9260001D051DA22070EDF6E12000001E8
:100E780020EE0CF00001CF51D9260001D051DA2222
:100E8800060EDF6E12000DC012F0136A20EE34F069
:100E98000B50D9260C50DA22DF50146E14500D0D69
:100EA800F3500B24156EF4500C20166E15C0D9FFA4
:100EB80016C0DAFFDF50D8B402D0FF0E120020EEC1
:100EC80001F01550D9261650DA220DC0DFFF20EEAA
:100ED80002F01550D9261650DA220EC0DFFF030E95
:100EE8001524016E000E1620026E10C004F00FC00B
:100EF80003F012C005F013C006F0E0EC09F020EE94
:100F080034F00B50D9260C50DA2210EE34F00B5086
:100F1800E1260C50E222E750116E1128030BDF6E18
:100F280015C0D9FF16C0DAFF010EDF6E010E1200E0
:100F3800EACFC4F0E1CFC5F0E2CFC6F0D9CFC7F011
:100F4800DACFC8F0F3CFC9F0F4CFCAF0F6CFCBF0C0
:100F5800F7CFCCF0F8CFCDF0F5CFCEF09EA603D0EA
:100F68009E9669EC00F0F2A403D0F294DBEC07F053
:100F780016EC09F0CEC0F5FFCDC0F8FFCCC0F7FFE6
:100F8800CBC0F6FFCAC0F4FFC9C0F3FFC8C0DAFF80
:100F9800C7C0D9FFC6C0E2FFC5C0E1FFC4C0EAFFB1
:100FA800C3C0E9FFC2C0FBFFC1C0FAFF1100400E79
:100FB8008C6E000E00019E6F000E00019D6FCBEC41
:100FC8000BF00001000E0001B66F0001BC0E00011D
:100FD800B56F0001000E0001B86F0001BE0E0001E0
:100FE800B76F020E90EC0AF00001BA6F0001BB6BFC
:100FF8000001BABFBB070001BA51020ABB11D8A44D
:101008000ED00A0E0001B36F0001000E0001B56F8B
:101018000001BE0E0001B46F020E3EEC0BF0000E94
:101028008C6E1200948E949C7E86AD84000E7F6E2A
:10103800CF0EB06EAD98AC8E9F989D989D8AAD8A64
:10104800AC88000E466E000E476E4650010D420EEB
:10105800F324D96E000EF420DA6E000EDF6E000E57
:10106800486E000E00019A6F000E00019B6F000190
:101078009A51010D0001960EF324D96E0001000E5D
:10108800F420DA6E000EDF6E000E00019C6F000E79
:10109800386E000E376E120001010001A3C1D0F0B6
:1010A80001010001A2C1CFF0000120EE0AF0000109
:1010B800CF51D9260001D051DA22000EDF6E00018F
:1010C80020EE0BF00001CF51D9260001D051DA22D1
:1010D800000EDF6E000120EE0CF00001CF51D92682
:1010E8000001D051DA22050EDF6E000120EE0EF06D
:1010F8000001CF51D9260001D051DA22000EDF6E4F
:101108001200010120EE34F00101A251D92601019B
:10111800A351DA22000EDF6E010120EE35F0010145
:10112800A251D9260101A351DA22000EDF6E000E6A
:101138000101A46F030E0101A46501D01200010191
:10114800A4510D0DF3500101A225D96EF4500101EF
:10115800A321DA6E000EDF6E0101A42B030E01013C
:10116800A465EDD712000101A551A411D8B426D069
:10117800010E0101A66F06D00101D890A437A5374A
:101188000101A62B0101A5AFF7D70101A451010167
:10119800A25D0101A5510101A359D8A008D0010100
:1011A800A4510101A25F0101A5510101A35B010145
:1011B800D890A533A4330101A62FE7D7A2C1A2F185
:1011C800A3C1A3F11200BCC1D9FFBDC1DAFFDE2A59
:1011D800000EDD22BCC1D9FFBDC1DAFF0101DECF9F
:1011E800A2F10101DDCFA3F1000E0101A56F0A0EE6
:1011F8000101A46FB7EC08F00101A251090A01012D
:10120800A311D8A41200140E0101B86F0101BDC1C9
:10121800BAF10101BCC1B9F1020E27EC0BF00101D2
:10122800C46F1200366601D0120000EC0AF000010B
:10123800A05100019F11D8A41200D4EC0BF00001BA
:101248009E5100019D11D8B412000101010E000148
:101258009E6F01016C0E00019D6FF7EC0AF000090A
:10126800D8A412000001000E00019E6F0001600E5C
:1012780000019D6FF7EC0AF00009D8B4EAEC0BF016
:101288001200000E366E0001000E0101A36F00016E
:10129800600E0101A26F85EC08F00101010E010149
:1012A800A36F01016C0E0101A26F85EC08F001012A
:1012B800010E0101A36F0101360E0101A26F85EC39
:1012C80008F00101010E0101A36F0101000E0101E7
:1012D800A26F85EC08F012000101A5C1ABF1010174
:1012E800A4C1AAF10101A3C1A9F10101A2C1A8F1F8
:1012F80010D0AAC1D9FFABC1DAFFA8C1E1FFA9C1CB
:10130800E2FFDFCFE7FF0101AA4BAB2B0101A84B9E
:10131800A92B0101A607D8A0A7070101A629D8B4BF
:10132800A729D8B41200E5D70001A0C0A6F0000193
:101338009FC0A5F000019EC0A4F000019DC0A3F0CD
:1013480010D0A5C0D9FFA6C0DAFFA3C0E1FFA4C092
:10135800E2FFDFCFE7FF0001A54BA62B0001A34B5F
:10136800A42B0001A107D8A0A2070001A129D8B485
:10137800A229D8B41200E5D700019C6703D0000E5B
:1013880000019C6F00019A51010D0001960EF32493
:10139800D96E0001000EF420DA6EDF500101A26F51
:1013A80000019A29030B00019A6F00019C079DAA6E
:1013B8009D8A0101A251120004C00AF003C009F07D
:1013C80002C008F001C007F00ED009C0D9FF0AC05A
:1013D800DAFF07C0E1FF08C0E2FFDFCFE7FF094AF5
:1013E8000A2A074A082A0506D8A006060528D8B4F6
:1013F8000628D8B41200E9D7F2AC07D0000E0001D5
:10140800A06F000E00019F6F1200D4EC0BF00001DA
:101418009E5100019D11D8B407D0000E0001A06FA5
:10142800000E00019F6F1200000E0001A06F010E58
:1014380000019F6F12000101A46F0101A251F30B7B
:101448009A6EA4C1A3F17F0E0101A3170101D890E0
:10145800A335CD6E000ECF6E000ECE6E9E900101AC
:10146800A4AF02D09D8001D09D909ABE9A86CD806F
:101478001200000120EE9CF0030EDF6402D09D9A5A
:10148800120000019B51010D0001960EF324D96E44
:101498000001000EF420DA6EAFCFDFFF00019B29B8
:1014A800030B00019B6F00019C2B12000101BE6F12
:1014B8000001000E0101AD6F0001600E0101AC6F6B
:1014C800BEC1AEF10101BBC1B0F10101BAC1AFF1BA
:1014D8000101BDC1B2F10101BCC1B1F156EC04F08A
:1014E80012000101BE6F0101010E0101AD6F010182
:1014F8006C0E0101AC6FBEC1AEF10101BBC1B0F110
:101508000101BAC1AFF10101BDC1B2F10101BCC114
:10151800B1F156EC04F012000001B96F0101010E9F
:101528000001A86F0101000E0001A76FB9C0A9F062
:101538000001B6C0ABF00001B5C0AAF00001B8C008
:10154800ADF00001B7C0ACF0E5EC04F01200800E7D
:101558008C6EC2EC0BF001C01BF002C01CF00B0E2D
:10156800176E000E196E000E186E000E91EC0BF03F
:10157800000E026E000E016EB9EC0BF0000E8C6EC0
:1015880012000101A26F20EE48F0030EDF6401D0C3
:1015980012004750010D420EF324D96E000EF420BC
:1015A800DA6E0101A2C1DFFF4728030B476E482A04
:1015B8009D8812000101A4511E0AA511D8B4120079
:1015C8000101A4511F0AA511D8A412000101A651B6
:1015D8000101A825D96E0101A7510101A921DA6EDF
:1015E800000EDF6E1200000120EE35F000019D5163
:1015F800D92600019E51DA22DF5000019F6F0001B9
:101608009F510D0DF35000019D25D96EF450000136
:101618009E21DA6EDF50120001EE00F0A20EEE6A93
:10162800E806FDE100EE60F03D0EEE6AE806FDE139
:1016380000EE2EF01B0EEE6AE806FDE1000EF86ED5
:10164800000123EF03F00101BB6F0101010E01014D
:10165800AD6F0101000E0101AC6FBBC1AEF1B8C1A5
:10166800AFF10101BAC1B1F10101B9C1B0F1F6ECB4
:1016780005F012000001B66F0101010E0001A86F0C
:1016880001016C0E0001A76FB6C0A9F0B3C0AAF0A3
:101698000001B5C0ACF00001B4C0ABF06CEC06F0D2
:1016A8001200486601D012004650010D420EF32484
:1016B800D96E000EF420DA6EDF50AE6E4628030BAA
:1016C800466E4806486612009D9812000101A26FF6
:1016D8009388938AA2C1C8FF000EC76E000EC66E1B
:1016E800000EC56E0E0EC612C78E8188818AC5800F
:1016F800C68A12000101A26F0101A2517F0BD56EAB
:10170800000ED76E000ED66EF2940101A2AF02D081
:10171800F28A01D0F29AD58E12001A6E0001000EDC
:101728000C6E0001600E0B6E1AC00DF017C00EF0A3
:10173800106A18C00FF047EC07F01200486607D08F
:10174800000E486E000E026E010E016E1200000EB1
:10175800026E000E016E1200A2C1D9FFA3C1DAFF0A
:10176800000EDE6E000EDD6E120001C003F002C036
:1017780004F004C0CFFF03C0CEFF1200CECF03F0A9
:10178800CFCF04F003C001F004C002F012009DC0E6
:101798009FF09EC0A0F0A0C0D7FF9FC0D6FF120048
:1017A800000EF2AE010E00019D6F00019E6B12004B
:1017B8000101A9C1ABF10101A8C1AAF11200D08EA3
:1017C800F28EF28C120000019C511200D38E03009D
:0217D8001200FD
:08FFF8008AF795FFF2F9FFF111
:00000001FF
