:0400000065EF00F0B8
:10000800FACFBAF0FBCFBBF0E9CFBCF0DCEF07F0DA
:10001800D8CF1DF0E8CF1EF0E0CF1FF0FACF20F0C8
:10002800FBCF21F0E9CF22F0EACF23F0E1CF24F093
:10003800E2CF25F0D9CF26F0DACF27F0F3CF28F09A
:10004800F4CF29F0F6CF2AF0F7CF2BF0F8CF2CF029
:10005800F5CF2DF09EA003D09E9011EC0BF09EAA38
:1000680003D09E9A8EEC07F09EA808D09E982CECA0
:100078000CF002500110D8B4FAEC0BF02DC0F5FFCB
:100088002CC0F8FF2BC0F7FF2AC0F6FF29C0F4FFE9
:1000980028C0F3FF27C0DAFF26C0D9FF25C0E2FF3A
:1000A80024C0E1FF23C0EAFF22C0E9FF21C0FBFF13
:1000B80020C0FAFF1FC0E0FF1EC0E8FF1DC0D8FF28
:1000C80010008EEF0BF0100E8C6E000E0001B96F51
:1000D800000E0001B46F000E0001B86F000E0001A1
:1000E800B76F000E0001B56FC6AC24D0C69C0001E6
:1000F80020EE0CF00001CC51D9260001CD51DA22B6
:10010800050EDF6E010E0001B56F000120EE0EF046
:100118000001CC51D9260001CD51DA22DF2A000195
:1001280020EE0DF00001CC51D9260001CD51DA2284
:10013800040EDF6EC7A005D0C9CFB6F0010E0001CE
:10014800B96F0001B5679FD188D1C7A69CD10001BE
:10015800B951D4EC06F0000120EE0CF00001CC51AE
:10016800D9260001CD51DA22080EDF628CD1000EAB
:100178000001B96F010E0001B76F85D1C7A82AD059
:10018800000120EE0BF00001CC51D9260001CD5121
:10019800DA22DF2A0001B951D8B454D1C7BA04D041
:1001A800010E0001B86F4ED1000120EE0EF00001E3
:1001B800CC51D9260001CD51DA22DF2A000120EEE8
:1001C8000DF00001CC51D9260001CD51DA22060EDE
:1001D800DF6E38D10001B951D8B455D1000120EEF5
:1001E8000BF00001CC51D9260001CD51DA22DF2ACB
:1001F800C7BA19D0C7B40BD0000120EE0CF000012B
:10020800CC51D9260001CD51DA22070E71D0000158
:1002180020EE0CF00001CC51D9260001CD51DA2294
:10022800080EDF6E08D1000120EE0EF00001CC515F
:10023800D9260001CD51DA22DF2A000120EE0CF088
:100248000001CC51D9260001CD51DA22050EDF6E0E
:10025800000120EE0DF00001CC51D9260001CD514E
:10026800DA22060E45D0000120EE1AF00001CC512A
:10027800D9260001CD51DA22DF500001B06F00010C
:1002880020EE19F00001CC51D9260001CD51DA2217
:10029800DF500001B05DD8B0D5D0000120EE1AF0D3
:1002A8000001CC51D9260001CD51DA22DF500001DE
:1002B800B06F0001B051010D0F0EF326000EF422AD
:1002C800F3500001CC25D96EF4500001CD21DA6E2F
:1002D800DF50C96E000120EE1AF00001CC51D9267A
:1002E8000001CD51DA22DF2A010E0001B46FCBD014
:1002F800DF6EC9D0C7A85AD0000120EE0BF000016C
:10030800CC51D9260001CD51DA22DF2A0001B9519A
:10031800D8B448D0C7AA25D0000120EE0AF00001C1
:10032800CC51D9260001CD51DA22DF500001B06F3F
:100338000001B051010DF3500001CC25D96EF450E5
:100348000001CD21DA6E0001B6C0DFFF000120EE0A
:100358000AF00001CC51D9260001CD51DA22DF2A5A
:1003680021D0000120EE0EF00001CC51D926000169
:10037800CD51DA22DF2A000120EE0DF00001CC5128
:10038800D9260001CD51DA22060EDF6E000120EEDB
:100398000CF00001CC51D9260001CD51DA22050E0E
:1003A800DF6E50D0010E0001B86F4CD00001B9517A
:1003B800D8B469D0000120EE0BF00001CC51D92649
:1003C8000001CD51DA22DF2AC7AA25D0000120EE8C
:1003D8000AF00001CC51D9260001CD51DA22DF50B4
:1003E8000001B06F0001B051010DF3500001CC25A0
:1003F800D96EF4500001CD21DA6E0001B6C0DFFFDE
:10040800000120EE0AF00001CC51D9260001CD519F
:10041800DA22DF2A38D0C7A4C7D6000120EE0CF0B4
:100428000001CC51D9260001CD51DA22080EDF6E29
:10043800010E0001B86F010E0001B76F000E000138
:10044800B96F21D0000120EE0CF00001CC51D92663
:100458000001CD51DA22050E4BD7000120EE0CF039
:100468000001CC51D9260001CD51DA22DF50050A0E
:10047800D8B46BD6030AD8B481D6010AD8B43AD70F
:100488000F0AD8B4F0D60001B96704D00001B451FE
:10049800D8B402D0C6A8C688000120EE0AF0000130
:1004A800CC51D9260001CD51DA22080EDF6423D0C1
:1004B8000001B86720D0000120EE0CF00001CC51FB
:1004C800D9260001CD51DA22050EDF6E000120EE9B
:1004D8000EF00001CC51D9260001CD51DA22DF2AD5
:1004E800000120EE0DF00001CC51D9260001CD51BC
:1004F800DA22070EDF6E0001B851D8B43FD00001F0
:1005080020EE0BF00001CC51D9260001CD51DA22A2
:10051800000110EE0AF00001CC51E1260001CD5196
:10052800E222E7500001B06F0001B051010DF35015
:100538000001CC25E16EF4500001CD21E26EDFCF41
:10054800E7FF280E0001AC6F0001CDC0AEF000013E
:10055800CCC0ADF0000120EE0AF00001CC51D92644
:100568000001CD51DA22DF500001B06F0001B0293F
:10057800BCEC0BF0000120EE0AF041D0000120EEA7
:100588000EF00001CC51D9260001CD51DA22DF50FE
:10059800D8B43DD0000120EE0EF00001CC51D92690
:1005A8000001CD51DA22DF500001B16F000120EEC9
:1005B8000DF00001CC51D9260001CD51DA22DF50CF
:1005C8000001B26F000120EE0BF00001CC51D926DA
:1005D8000001CD51DA22DF500001B36F290E00016E
:1005E800AC6F0001000E0001AE6F0001B10E0001FA
:1005F800AD6F030EBCEC0BF0000120EE0EF0000115
:10060800CC51D9260001CD51DA22000EDF6E00014F
:10061800B751D8B40FD02A0E0001AC6F0001CDC07D
:10062800AEF00001CCC0ADF0000EBCEC0BF0000E3B
:100638000001B76F000E8C6E1200000E0101C16F31
:10064800E00ED36E9B8C0101010E0001C96F010100
:10065800D60E0001C86F56EC08F00101010E00012A
:10066800C96F0101D20E0001C86F4BEC0CF0D3EC3E
:1006780009F0000E936E000E8A6E960EE7EC0BF0F2
:10068800000E0001C86F9B0EA2EC0AF09F909F9A83
:100698009F869E0ED3EC0BF09D86BBEC08F0500EA7
:1006A80076EC0BF0510E76EC0BF0520E76EC0BF06C
:1006B800530E76EC0BF0540E76EC0BF0000E956EA4
:1006C8007FEC0CF079EC09F00101010E0101B76F24
:1006D8000101D40E0101B66F0101010E0101B96FCC
:1006E8000101C20E0101B86F0A0EDBEC0AF001012C
:1006F800D56F0101D5BF61D052D00101010E0101B2
:10070800A36F0101CF0E0101A26F0101D4C1A4F1B1
:100718000101A56B0101D5510101A66F0101A76B6C
:100728000101A6BFA7070101010E0101A96F01017F
:10073800C20E0101A86F42EC0CF03FD0C2C1D1F14A
:100748003CD0020E0101D56F1E0E0101C26FAA0E28
:100758000101C36F17D0010E0101D56F3A0E04D005
:10076800010E0101D56FA30E0101C26F0BD001016B
:10077800D151A80AD8B4EFD7010AD8B4F1D7030ADF
:10078800D8B4DFD70101010E0001C96F0101C20E03
:100798000001C86F0101D55166EC05F00ED00101CA
:1007A800D4510A0AD8B4A9D7220AD8B4C7D7010A9B
:1007B800D8B4C4D7030AD8B4DAD70101010E0101AD
:1007C800B76F0101D40E0101B66F0101010E0101DD
:1007D800B96F0101C20E0101B86F0A0EC0EC0AF030
:1007E8000101D56F0101D5BF6DD742D00101010EBE
:1007F8000101B96F0101D20E0101B86F0101D4C125
:10080800BAF10101BB6B0101D5510101BC6F0101B6
:10081800BD6B0101BCBFBD070101010E0101BF6F26
:100828000101C20E0101BE6F1BEC09F04BD701019B
:10083800010E0101A36F0101CD0E0101A26F01019B
:10084800D4C1A4F10101A56B0101D5510101A66F25
:100858000101A76B0101A6BFA7070101010E010154
:10086800A96F0101C20E0101A86F2BEC0BF02AD76A
:100878000101D4510B0AD8B4B9D7150AD8B4D7D7BF
:10088800010AD8B4D4D71ED7010120EE35F00101F2
:10089800A851D9260101A951DA22DF500101B16F0F
:1008A8000101B1510D0DF3500101A8250101B46FEB
:1008B800F4500101A9210101B56F010EB4C1D9FF9E
:1008C800B5C1DAFFDF626DD0010120EE01F0010150
:1008D800B451D9260101B551DA22DF500101AA5DD0
:1008E800D8B002D0FD0E1200010120EE01F0010186
:1008F800B451D9260101B551DA22DF500101AF6F99
:100908000101AF510101B26F0101B36B0101AEC129
:10091800A3F10101ADC1A2F1030E0101B42501014A
:10092800AF6F000E0101B5210101B06FAFC1A4F195
:10093800B0C1A5F1B2C1A6F1B3C1A7F1A7EC09F006
:10094800010120EE35F00101A851D9260101A95174
:10095800DA22010110EE35F00101A851E12601016A
:10096800A951E222E7500101AF6F0101AF29030B42
:10097800DF6E010120EE02F00101B451D926010118
:10098800B551DA22ABC1E1FFACC1E2FFDFCFE7FF2F
:10099800B4C1D9FFB5C1DAFF000EDF6E0101B25153
:1009A8001200FC0E1200000120EE35F00001A051EB
:1009B800D9260001A151DA22DF500001A96F0001F8
:1009C800A9510D0DF3500001A0250001AC6FF450A2
:1009D8000001A1210001AD6F010EACC0D9FFADC06F
:1009E800DAFFDF626DD0000120EE01F00001AC51AA
:1009F800D9260001AD51DA22DF500001A25DD8B03E
:100A080002D0FD0E1200000120EE01F00001AC51F1
:100A1800D9260001AD51DA22DF500001A76F00018D
:100A2800A7510001AA6F0001AB6B0001A6C097F0A7
:100A38000001A5C096F0030E0001AC250001A76FC8
:100A4800000E0001AD210001A86FA7C098F0A8C052
:100A580099F0AAC09AF0ABC09BF0FEEC09F0000137
:100A680020EE35F00001A051D9260001A151DA226B
:100A7800000110EE35F00001A051E1260001A1515E
:100A8800E222E7500001A76F0001A729030BDF6EE0
:100A9800000120EE02F00001AC51D9260001AD5151
:100AA800DA22A3C0E1FFA4C0E2FFDFCFE7FFACC0BA
:100AB800D9FFADC0DAFF000EDF6E0001AA511200A7
:100AC800FC0E12000101A26F000120EE19F00001D6
:100AD800CC51D9260001CD51DA22000EDF6E3ED06E
:100AE800000120EE19F00001CC51D9260001CD51AA
:100AF800DA22DF500001CA6F0001CA51010DF3501C
:100B08000001C825D96EF4500001C921DA6E000130
:100B180010EE19F00001CC51E1260001CD51E2227E
:100B2800E7500001CB6F0001CB51010D0F0EF326EA
:100B3800000EF422F3500001CC25E16EF4500001C0
:100B4800CD21E26EDFCFE7FF000120EE19F00001B2
:100B5800CC51D9260001CD51DA22DF2A000120EE3E
:100B680019F00001CC51D9260001CD51DA22DF500D
:100B78000001CA6F0101A2510001CA5DD8A0B0D717
:100B8800000120EE19F00001CC51D9260001CD5109
:100B9800DA220101A2C1DFFF000120EE1AF00001F4
:100BA800CC51D9260001CD51DA22010EDF6E0001A9
:100BB80020EE0FF00001CC51D9260001CD51DA22E8
:100BC800DF50C96EC68812000101AAC1AFF1010148
:100BD800B06B010120EE34F00101A851D9260101C2
:100BE800A951DA22DF500101B16F0101B1510D0D98
:100BF800F3500101A8250101B26FF4500101A921A8
:100C08000101B36FB2C1D9FFB3C1DAFFDF50D8B465
:100C180002D0FF0E1200010120EE01F00101B251D5
:100C2800D9260101B351DA220101AAC1DFFF01016E
:100C380020EE02F00101B251D9260101B351DA22A6
:100C48000101ABC1DFFF030E0101B2250101A26F53
:100C5800000E0101B3210101A36F0101ADC1A5F18E
:100C68000101ACC1A4F1AFC1A6F1B0C1A7F1A7ECD5
:100C780009F0010120EE34F00101A851D926010143
:100C8800A951DA22010110EE34F00101A851E12640
:100C98000101A951E222E7500101AE6F0101AE291D
:100CA800030BDF6EB2C1D9FFB3C1DAFF010EDF6EED
:100CB800010E12000001A2C0A7F00001A86B0001FC
:100CC80020EE34F00001A051D9260001A151DA220A
:100CD800DF500001A96F0001A9510D0DF35000016B
:100CE800A0250001AA6FF4500001A1210001AB6FFB
:100CF800AAC0D9FFABC0DAFFDF50D8B402D0FF0ECC
:100D08001200000120EE01F00001AA51D9260001CD
:100D1800AB51DA220001A2C0DFFF000120EE02F091
:100D28000001AA51D9260001AB51DA220001A3C063
:100D3800DFFF030E0001AA250001966F000E0001D7
:100D4800AB210001976F0001A5C099F00001A4C074
:100D580098F0A7C09AF0A8C09BF0FEEC09F000013B
:100D680020EE34F00001A051D9260001A151DA2269
:100D7800000110EE34F00001A051E1260001A1515C
:100D8800E222E7500001A66F0001A629030BDF6EDF
:100D9800AAC0D9FFABC0DAFF010EDF6E010E120048
:100DA8000001966F000120EE0BF00001CC51D9260E
:100DB8000001CD51DA22010EDF6E000120EE0AF0AB
:100DC8000001CC51D9260001CD51DA22000EDF6E88
:100DD80000019651D8B43DD0C7AA21D0000120EE19
:100DE8000CF00001CC51D9260001CD51DA22050EB4
:100DF800DF6E000120EE0EF00001CC51D926000173
:100E0800CD51DA22DF2A000120EE0DF00001CC518D
:100E1800D9260001CD51DA22050EDF6E1200C7A4D3
:100E28000CD0000120EE0CF00001CC51D9260001B5
:100E3800CD51DA22080EDF6E1200000120EE0CF010
:100E48000001CC51D9260001CD51DA22070EDF6E00
:100E58001200000120EE0CF00001CC51D92600014F
:100E6800CD51DA22060EDF6E12000DC012F0136AA1
:100E780020EE34F00B50D9260C50DA22DF50146ED5
:100E880014500D0DF3500B24156EF4500C20166EF3
:100E980015C0D9FF16C0DAFFDF50D8B402D0FF0E54
:100EA800120020EE01F01550D9261650DA220DC096
:100EB800DFFF20EE02F01550D9261650DA220EC0B8
:100EC800DFFF030E1524016E000E1620026E10C0FF
:100ED80004F00FC003F012C005F013C006F026ECB2
:100EE8000AF020EE34F00B50D9260C50DA2210EE1E
:100EF80034F00B50E1260C50E222E750116E112815
:100F0800030BDF6E15C0D9FF16C0DAFF010EDF6EC6
:100F1800010E1200200E8C6E9EAA3AD020EE04F02C
:100F28002E50D9262F50DA22DF501B6E1B50010D90
:100F3800F3502E24D96EF4502F20DA6E1DEC0CF0ED
:100F4800DF6E20EE04F02E50D9262F50DA22DF2A49
:100F580020EE04F02E50D9262F50DA22040EDF623C
:100F680017D01F0E176E2FC019F02EC018F020EEE4
:100F780004F02E50D9262F50DA22DF500CEC0CF05A
:100F880020EE04F02E50D9262F50DA22000EDF6E04
:100F980031A60BD0AC98AC881E0E176E000E196ED9
:100FA800000E186E000E0CEC0CF0000E8C6E120089
:100FB800EACFBDF0E1CFBEF0E2CFBFF0D9CFC0F0AD
:100FC800DACFC1F0F3CFC2F0F4CFC3F0F6CFC4F05C
:100FD800F7CFC5F0F8CFC6F0F5CFC7F09EA603D07F
:100FE8009E9667EC00F0F2A403D0F2941BEC08F094
:100FF8004AEC09F0C7C0F5FFC6C0F8FFC5C0F7FF47
:10100800C4C0F6FFC3C0F4FFC2C0F3FFC1C0DAFF1B
:10101800C0C0D9FFBFC0E2FFBEC0E1FFBDC0EAFF4C
:10102800BCC0E9FFBBC0FBFFBAC0FAFF1100400E0D
:101038008C6E000E0001976F000E0001966F66EC33
:101048000CF00001000E0001AF6F0001B50E0001A9
:10105800AE6F0001000E0001B16F0001B70E000174
:10106800B06F020EF6EC0AF00001B36F0001B46B2A
:101078000001B3BFB4070001B351020AB411D8A4E8
:101088000ED00A0E0001AC6F0001000E0001AE6F19
:101098000001B70E0001AD6F020EBCEC0BF0000EA4
:1010A8008C6E12000001C9C0CDF00001C8C0CCF0A0
:1010B800000120EE0AF00001CC51D9260001CD51E3
:1010C800DA22000EDF6E000120EE0BF00001CC5199
:1010D800D9260001CD51DA22000EDF6E000120EE84
:1010E8000CF00001CC51D9260001CD51DA22050EB1
:1010F800DF6E000120EE0EF00001CC51D926000170
:10110800CD51DA22000EDF6E1200000120EE34F01D
:101118000001C851D9260001C951DA22000EDF6E3C
:10112800000120EE35F00001C851D9260001C9514F
:10113800DA22000EDF6E000E0001CA6F030E0001F6
:10114800CA6501D012000001CA510D0DF35000010B
:10115800C825D96EF4500001C921DA6E000EDF6E81
:101168000001CA2B030E0001CA65EDD71200948E48
:10117800949C7E86AD84000E7F6ECF0EB06EAD98C7
:10118800AC8E9D889D8AAD8AAC889F98000E3D6E76
:10119800000E3E6E3D50010D390EF324D96E000E3F
:1011A800F420DA6E000EDF6E000E3F6E000E366E13
:1011B800000E376E3650010D320EF324D96E000E34
:1011C800F420DA6E000EDF6E000E386E1200000199
:1011D800CB51CA11D8B426D0010E0101A26F06D096
:1011E8000001D890CA37CB370101A22B0001CBAF41
:1011F800F7D70001CA510001C85D0001CB510001B9
:10120800C959D8A008D00001CA510001C85F00011F
:10121800CB510001C95B0001D890CB33CA3301011F
:10122800A22FE7D7C8C0C8F0C9C0C9F01200B8C11A
:10123800D9FFB9C1DAFFDE2A000EDD22B8C1D9FF15
:10124800B9C1DAFF0001DECFC8F00001DDCFC9F077
:10125800000E0001CB6F0A0E0001CA6FEBEC08F01C
:101268000001C851090A0001C911D8A41200140EBE
:101278000101B46F0101B9C1B6F10101B8C1B5F1FD
:10128800020EA5EC0BF00101C06F1200306601D010
:10129800120065EC0AF00001995100019811D8A4D8
:1012A800120077EC0CF00001975100019611D8B4A8
:1012B80012000101010E0001976F01016C0E00017F
:1012C800966F5DEC0BF00009D8A412000001000E27
:1012D8000001976F0001600E0001966F5DEC0BF046
:1012E8000009D8B483EC0CF0120084EC0AF0010178
:1012F800A3510101A211D8B41200010E306E0101F0
:10130800010E0001C96F01016C0E0001C86F44ECA9
:101318000BF00009D8B403D0000E306E12000001A3
:10132800000E0001C96F0001600E0001C86F44EC97
:101338000BF00009D8B403D0000E306E12000A0E6C
:1013480038EC0CF0DCD701010001A5C1CBF001019C
:101358000001A4C1CAF001010001A3C1C9F0010143
:101368000001A2C1C8F010D0CAC0D9FFCBC0DAFFB3
:10137800C8C0E1FFC9C0E2FFDFCFE7FF0001CA4BE9
:10138800CB2B0001C84BC92B0101A607D8A0A70782
:101398000101A629D8B4A729D8B41200E5D7000EB0
:1013A800306E0001000E0001C96F0001600E0001DF
:1013B800C86F89EC08F00101010E0001C96F010135
:1013C8006C0E0001C86F89EC08F00101010E0001E4
:1013D800C96F0101360E0001C86F89EC08F00101E0
:1013E800010E0001C96F0101000E0001C86F89ECF0
:1013F80008F01200000199C09FF0000198C09EF00B
:10140800000197C09DF0000196C09CF010D09EC0CE
:10141800D9FF9FC0DAFF9CC0E1FF9DC0E2FFDFCF8C
:10142800E7FF00019E4B9F2B00019C4B9D2B000169
:101438009A07D8A09B0700019A29D8B49B29D8B449
:101448001200E5D704C00AF003C009F002C008F092
:1014580001C007F00ED009C0D9FF0AC0DAFF07C0E3
:10146800E1FF08C0E2FFDFCFE7FF094A0A2A074A7F
:10147800082A0506D8A006060528D8B40628D8B430
:101488001200E9D7F2AC07D0000E0001CB6F000EB6
:101498000001CA6F12006FEC0CF00001C951000185
:1014A800C811D8B407D0000E0001CB6F000E0001A0
:1014B800CA6F1200000E0001CB6F010E0001CA6F47
:1014C8001200F2AC07D0000E0001996F000E000167
:1014D800986F120077EC0CF00001975100019611FB
:1014E800D8B407D0000E0001996F000E0001986F64
:1014F8001200000E0001996F010E0001986F120092
:1015080046EC0AF00001CB510001CA11D8A40FD053
:101518006FEC0CF00001C9510001C811D8A407D024
:10152800000E0101A36F010E0101A26F1200000E4F
:101538000101A36F000E0101A26F12000001CA6F22
:101548000001C851F30B9A6ECAC0C9F07F0E0001A2
:10155800C9170001D890C935CD6E000ECF6E000EA8
:10156800CE6E9E900001CAAF02D09D8001D09D90A2
:101578009ABE9A86CD8012000101BA6F0001000E52
:101588000101A96F0001600E0101A86FBAC1AAF19B
:101598000101B7C1ACF10101B6C1ABF10101B9C19B
:1015A800AEF10101B8C1ADF148EC04F0120001013F
:1015B800BA6F0101010E0101A96F01016C0E010151
:1015C800A86FBAC1AAF10101B7C1ACF10101B6C156
:1015D800ABF10101B9C1AEF10101B8C1ADF148ECFF
:1015E80004F012000001B26F0101010E0001A16FA9
:1015F8000101000E0001A06FB2C0A2F00001AFC04F
:10160800A4F00001AEC0A3F00001B1C0A6F0000133
:10161800B0C0A5F0D7EC04F01200800E8C6E5DEC23
:101628000CF001C01BF002C01CF00B0E176E000E70
:10163800196E000E186E000E0CEC0CF0000E026E07
:10164800000E016E54EC0CF0000E8C6E12000101BD
:10165800A4511E0AA511D8B412000101A4511F0AF1
:10166800A511D8A412000101A6510101A825D96E1F
:101678000101A7510101A921DA6E000EDF6E1200E7
:10168800000120EE35F00001C851D9260001C951EA
:10169800DA22DF500001CA6F0001CA510D0DF35064
:1016A8000001C825D96EF4500001C921DA6EDF5057
:1016B8001200000120EE35F000019651D9260001F4
:1016C8009751DA22DF500001986F000198510D0DF3
:1016D800F35000019625D96EF45000019721DA6E77
:1016E800DF5012000001C86F20EE3FF0030EDF64E8
:1016F80001D012003E50010D390EF324D96E000EB0
:10170800F420DA6E0001C8C0DFFF3E28030B3E6EEE
:101718003F2A120001EE00F0A20EEE6AE806FDE193
:1017280000EE60F0360EEE6AE806FDE100EE2EF0FF
:10173800120EEE6AE806FDE1000EF86E000121EFD8
:1017480003F00101B76F0101010E0101A96F010149
:10175800000E0101A86FB7C1AAF1B4C1ABF1010134
:10176800B6C1ADF10101B5C1ACF1E8EC05F012006C
:101778000001AF6F0101010E0001A16F01016C0EA4
:101788000001A06FAFC0A2F0ACC0A3F00001AEC0D2
:10179800A5F00001ADC0A4F05EEC06F01200000157
:1017A800C86F9388938AC8C0C8FF000EC76E000E22
:1017B800C66E000EC56E0E0EC612C78E8188818A4F
:1017C800C580C68A12000001C86F0001C8517F0B8E
:1017D800D56E000ED76E000ED66EF2940001C8AF1B
:1017E80002D0F28A01D0F29AD58E12003F6601D05B
:1017F80012003D50010D390EF324D96E000EF4206D
:10180800DA6EDF50AE6E3D28030B3D6E3F061200C8
:101818001A6E0001000E0C6E0001600E0B6E1AC0ED
:101828000DF017C00EF0106A18C00FF039EC07F071
:101838001200F20E3116ACAC03D03190ACB031804E
:10184800ACB43184ACB23186AFCF01F00150120094
:101858003F6605D0000E026E010E016E1200000EEA
:10186800026E000E016E12000001C86FFA0E00F041
:10187800E82EFDD70001C82FF9D712000101000199
:10188800A9C1C9F001010001A8C1C8F01200C8C06F
:10189800D9FFC9C0DAFF000EDE6E000EDD6E120041
:1018A80001C003F002C004F004C0CFFF03C0CEFFA4
:1018B8001200CECF03F0CFCF04F003C001F004C074
:1018C80002F0120096C098F097C099F099C0D7FF1F
:1018D80098C0D6FF1200000EF2AE010E0001C86FCC
:1018E8000001C96B1200000EF2AE010E0001966FE6
:1018F8000001976B1200D08EF28EF28C1200D38EFC
:0419080003001200C6
:08FFF8008AF795FFF2F9FFF111
:00000001FF
