:0400000060EF00F0BD
:10000800FACF84F0FBCF85F0E9CF86F0EAEF08F06D
:10001800D8CF33F0E8CF34F0E0CF35F0FACF36F070
:10002800FBCF37F0E9CF38F0EACF39F0E1CF3AF03B
:10003800E2CF3BF0D9CF3CF0DACF3DF0F3CF3EF042
:10004800F4CF3FF0F6CF40F0F7CF41F0F8CF42F0D1
:10005800F5CF43F09EA003D09E90ACEC0BF09EAA87
:1000680003D09E9ADEEC03F09EB89DA802D076ECF1
:1000780007F043C0F5FF42C0F8FF41C0F7FF40C09A
:10008800F6FF3FC0F4FF3EC0F3FF3DC0DAFF3CC0BF
:10009800D9FF3BC0E2FF3AC0E1FF39C0EAFF38C0F0
:1000A800E9FF37C0FBFF36C0FAFF35C0E0FF34C0B8
:1000B800E8FF33C0D8FF100068EF08F0280E0001F1
:1000C800826F010E0001816FF3D10001000E000163
:1000D800796F0001820E0001786F100E0001CF25A4
:1000E80000017A6F000E0001D02100017B6F0E0E17
:1000F80001EC0BF00001836F00018351FC0AD8B4B6
:10010800120000018351FD0AD8B41200000120EE4C
:100118001FF00001CF51D9260001D051DA22000189
:1001280083C0DFFFC7A60CD0000120EE21F000013C
:10013800CF51D9260001D051DA22060EDF6E0DD03C
:10014800C580000120EE21F00001CF51D926000121
:10015800D051DA22060EDF6E1200000120EE25F0E3
:100168000001CF51D9260001D051DA22DF50000119
:100178007D6F0001D8907D35C96E000120EE21F019
:100188000001CF51D9260001D051DA220A0EDF6EC4
:10019800000120EE1EF00001CF51D9260001D051F8
:1001A800DA22000EDF6E1200000120EE1EF00001C0
:1001B800CF51D9260001D051DA22DF5000017D6FDE
:1001C80000017D51010D100EF326000EF422F350AC
:1001D8000001CF25D96EF4500001D021DA6EDF502E
:1001E800C96E000120EE1EF00001CF51D926000192
:1001F800D051DA22DF2A000120EE1EF00001CF5193
:10020800D9260001D051DA220D0EDF641200000158
:1002180020EE10F00001CF51D9260001D051DA228A
:10022800DF5000017D6F00017D390F0B0001806FE9
:1002380006D0010E01D0000E0001816F06D000012A
:100248008051020AD8B4F5D7F6D700018151D8B445
:1002580017D0000120EE21F00001CF51D92600016E
:10026800D051DA220C0EDF6E000120EE0FF00001F3
:10027800CF51D9260001D051DA22000EDF6E1200CC
:10028800000120EE21F00001CF51D9260001D05104
:10029800DA220B0EDF6E1200C582000120EE21F07B
:1002A8000001CF51D9260001D051DA220D0EDF6EA0
:1002B8001200000120EE25F00001CF51D9260001DF
:1002C800D051DA22DF5000017D6F0001D8807D35E2
:1002D800C96E000120EE21F00001CF51D92600019E
:1002E800D051DA220E0EDF6E1200C5AC23D0C584C1
:1002F800000120EE1EF00001CF51D9260001D05197
:10030800DA22000EDF6E000120EE1EF00001CF5150
:10031800D9260001D051DA22000EDF6E000120EE4E
:1003280021F00001CF51D9260001D051DA22050E63
:10033800DF6E1200C586000120EE1EF00001CF51CD
:10034800D9260001D051DA22000EDF6E000120EE1E
:1003580021F00001CF51D9260001D051DA22080E30
:10036800DF6E1200000120EE0FF00001CF51D926F8
:100378000001D051DA22DF5000017D6F00017D516C
:10038800010DF3500001CF25D96EF4500001D021A2
:10039800DA6EC9CFDFFF000120EE0FF00001CF5168
:1003A800D9260001D051DA22DF2A000120EE0FF011
:1003B8000001CF51D9260001D051DA220D0EDF6499
:1003C8001CD0280E0001766F0001D0C078F0000123
:1003D800CFC077F0000120EE0FF00001CF51D926F1
:1003E8000001D051DA22DF5000017D6F00017D2924
:1003F80095EC0BF000017E6F1DD0C7A827D0280E02
:100408000001766F0001D0C078F00001CFC077F00E
:10041800000120EE0FF00001CF51D9260001D05184
:10042800DA22DF5000017D6F00017D2995EC0BF089
:1004380000017F6F000120EE21F00001CF51D92685
:100448000001D051DA220B0EDF6E0DD0C5880001F5
:1004580020EE21F00001CF51D9260001D051DA2237
:100468000E0EDF6E12007BEC0CF0C584000120EE4E
:100478001EF00001CF51D9260001D051DA22000E1A
:10048800DF6E000120EE1EF00001CF51D9260001D9
:10049800D051DA22000EDF6E000120EE21F00001BB
:1004A800CF51D9260001D051DA22050EDF6E120095
:1004B800000120EE21F00001CF51D9260001D051D2
:1004C800DA22DF50050AD8B400D6030AD8B445D6D4
:1004D8000E0AD8B447D7020AD8B466D6010AD8B4E7
:1004E800C2D7070AD8B4D8D6010AD8B4E2D6030AC4
:1004F800D8A41200FAD6E00ED36E9B8C0101010E2F
:100508000101016F0101A20E0101006FAAEC08F0C0
:100518000101010E0101016F01019E0E0101006F31
:1005280030EC0CF0F2EC09F0000E936E000E8A6EBF
:10053800960EEBEC0BF0000E0101006F9B0EADEC7C
:100548000AF09F909F9A9F864F0E92EC09F09D8625
:100558007FEC0CF063EC0CF010EC0CF0540E010185
:100568009C6F450E01019D6F0101010E0101196F7C
:100578000101A00E0101186F0101010E01011B6F9D
:100588000101880E01011A6F0E0EE6EC0AF0010156
:10059800A16F0101A1BF5DD04ED00101010E010183
:1005A800016F0101990E0101006F0101A0C102F163
:1005B8000101036B0101A1510101046F0101056BE8
:1005C800010104BF05070101010E0101076F0101C7
:1005D800880E0101066F5CEC0CF03BD00101010EA6
:1005E80001011B6F0101880E01011A6F20EC0CF04C
:1005F80088C19BF12ED0020E0101A16F9CC188F128
:100608009DC189F126D0010E0101A16F3A0E04D0D7
:10061800010E0101A16F550E0101886F1AD0010169
:100628009B51A80AD8B4EFD7010AD8B4F1D7030A66
:10063800D8B4E1D70ED00101A0510A0AD8B4ADD779
:10064800220AD8B4CBD7010AD8B4D2D7030AD8B46F
:10065800E6D70101010E0101196F0101A00E010188
:10066800186F0101010E01011B6F0101880E0101C4
:100678001A6F0E0ECBEC0AF00101A16F0101A1BFA8
:1006880073D780D00101010E01011F6F01019E0E79
:1006980001011E6F0101A0C120F10101216B0101BF
:1006A800A1510101226F0101236B010122BF230720
:1006B8000101010E0101256F0101880E0101246F5E
:1006C80021EC08F051D7F10E0101506F88C151F1AA
:1006D8000101010E01011B6F0101500E01011A6F8A
:1006E80020EC0CF0F20E01017A6F88C17BF189C110
:1006F8007CF10101010E01011B6F01017A0E01015C
:100708001A6F20EC0CF0F30E01015E6F88C15FF1E7
:100718000101010E01011B6F01015E0E01011A6F3B
:1007280020EC0CF0F40E01016C6F88C16DF1010131
:10073800010E01011B6F01016C0E01011A6F20EC03
:100748000CF00101010E0101016F0101970E010179
:10075800006F0101A0C102F10101036B0101A15168
:100768000101046F0101056B010104BF05070101C7
:10077800010E0101076F0101880E0101066F1CECD3
:100788000BF0F2D60101A0510B0AD8B47BD7150A99
:10079800D8B499D7010AD8B4D4D73F0AD8B493D7D4
:1007A800010AD8B49FD7030AD8B4ADD7010AD8B480
:1007B800B9D7DAD64A6657D04B50010DF3504424C6
:1007C800D96EF4504520DA6EAFCFDFFF4B661DD0EF
:1007D80044C0D9FF45C0DAFFDF50FF0AD8B412D0B1
:1007E8004D660DD0010E4D6E4CC02EF0220E176EC8
:1007F800000E196E2E0E186E010EFEEC0BF0000E98
:100808004B6E1200000E4D6E2DD0010E4B640FD0B2
:10081800100E4B5CD8B00BD04B50010DF350442454
:10082800D96EF4504520DA6EDF50491A1BD0100EED
:100838004B6418D020EE11F04450D9264550DA22E6
:10084800DF50FE0AD8B40ED0000E4B6E4CC02FF00D
:10085800230E176E000E196E2F0E186E010EFEEC89
:100868000BF012004B2A110E4B641200000E4B6E57
:100878004C2A20EE01F04450D9264550DA22DF50A8
:100888004C18D8B413D04CC02CF020EE01F04450D2
:10089800D9264550DA22DF502D6E210E176E000E34
:1008A800196E2C0E186E020EFEEC0BF020EE10F0F6
:1008B8004450D9264550DA22DF504918D8B40BD015
:1008C8004CC030F0200E176E000E196E300E186EE8
:1008D800010EFEEC0BF0000E326E000E316E32503F
:1008E800800A800F0E0ED8B4315CD8B017D0020E33
:1008F80031241B6E000E32201C6E1B504424D96E0E
:100908001C504520DA6E1D0E3124E16E000E322097
:10091800E26EDFCFE7FF314A322AE1D71F0E176EAA
:10092800000E196E1D0E186E120EFEEC0BF02B6EDB
:100938001200010120EE89F001010A51D9260101B6
:100948000B51DA22DF500101136F01011351110D10
:10095800F35001010A250101166FF45001010B2122
:100968000101176F010E16C1D9FF17C1DAFFDF6247
:100978006DD0010120EE01F001011651D9260101C7
:100988001751DA22DF5001010C5DD8B002D0FD0EFC
:100998001200010120EE01F001011651D9260101D2
:1009A8001751DA22DF500101116F010111510101C4
:1009B800146F0101156B010110C101F101010FC193
:1009C80000F1030E010116250101116F000E01014E
:1009D80017210101126F11C102F112C103F114C1F3
:1009E80004F115C105F11EEC0AF0010120EE89F0B1
:1009F80001010A51D92601010B51DA22010110EE39
:100A080089F001010A51E12601010B51E222E75068
:100A18000101116F01011129070BDF6E010120EEA1
:100A280002F001011651D92601011751DA220DC130
:100A3800E1FF0EC1E2FFDFCFE7FF16C1D9FF17C103
:100A4800DAFF000EDF6E010114511200FC0E1200D5
:100A5800000120EE89F000016A51D92600016B518E
:100A6800DA22DF500001736F00017351110DF3504A
:100A780000016A250001766FF45000016B21000126
:100A8800776F010E76C0D9FF77C0DAFFDF626DD0CD
:100A9800000120EE01F000017651D92600017751BE
:100AA800DA22DF5000016C5DD8B002D0FD0E1200D2
:100AB800000120EE01F000017651D926000177519E
:100AC800DA22DF500001716F000171510001746F6B
:100AD8000001756B000170C061F000016FC060F02B
:100AE800030E000176250001716F000E00017721C9
:100AF8000001726F71C062F072C063F074C064F07C
:100B080075C065F046EC0AF0000120EE89F000019E
:100B18006A51D92600016B51DA22000110EE89F0E2
:100B280000016A51E12600016B51E222E750000101
:100B3800716F00017129070BDF6E000120EE02F0D2
:100B480000017651D92600017751DA226DC0E1FF04
:100B58006EC0E2FFDFCFE7FF76C0D9FF77C0DAFFCC
:100B6800000EDF6E000174511200FC0E120001012C
:100B78000CC111F10101126B010120EE88F0010195
:100B88000A51D92601010B51DA22DF500101136FF6
:100B980001011351110DF35001010A250101146FD0
:100BA800F45001010B210101156F14C1D9FF15C1C2
:100BB800DAFFDF50D8B402D0FF0E1200010120EE98
:100BC80001F001011451D92601011551DA22010160
:100BD8000CC1DFFF010120EE02F001011451D926FA
:100BE80001011551DA2201010DC1DFFF030E0101D8
:100BF80014250101006F000E010115210101016F8B
:100C080001010FC103F101010EC102F111C104F18B
:100C180012C105F11EEC0AF0010120EE88F0010175
:100C28000A51D92601010B51DA22010110EE88F090
:100C380001010A51E12601010B51E222E7500101AD
:100C4800106F01011029070BDF6E14C1D9FF15C100
:100C5800DAFF010EDF6E010E120000016CC071F0A8
:100C68000001726B000120EE88F000016A51D9265C
:100C780000016B51DA22DF500001736F00017351DC
:100C8800110DF35000016A250001746FF450000142
:100C98006B210001756F74C0D9FF75C0DAFFDF5092
:100CA800D8B402D0FF0E1200000120EE01F00001BE
:100CB8007451D92600017551DA2200016CC0DFFF9A
:100CC800000120EE02F000017451D926000175518F
:100CD800DA2200016DC0DFFF030E00017425000158
:100CE800606F000E000175210001616F00016FC087
:100CF80063F000016EC062F071C064F072C065F00C
:100D080046EC0AF0000120EE88F000016A51D9266D
:100D180000016B51DA22000110EE88F000016A51DF
:100D2800E12600016B51E222E7500001706F0001DB
:100D38007029070BDF6E74C0D9FF75C0DAFF010E8A
:100D4800DF6E010E120020EE89F00B50D9260C50F0
:100D5800DA22DF50146E1450110DF3500B24176E65
:100D6800F4500C20186E010E17C0D9FF18C0DAFF16
:100D7800DF6250D020EE01F01750D9261850DA2241
:100D8800DF500D5CD8B002D0FD0E120020EE01F04D
:100D98001750D9261850DA22DF50126E1250156EED
:100DA800166A11C002F010C001F0030E1724126E6B
:100DB800000E1820136E12C003F013C004F015C003
:100DC80005F016C006F06EEC0AF020EE89F00B5024
:100DD800D9260C50DA2210EE89F00B50E1260C507F
:100DE800E222E750126E1228070BDF6E20EE02F0A7
:100DF8001750D9261850DA220EC0E1FF0FC0E2FFC3
:100E0800DFCFE7FF17C0D9FF18C0DAFF000EDF6E8B
:100E180015501200FC0E12000001BD6948C0BEF05A
:100E2800482AFE0E0001CE6F000E056E000E066EFB
:100E38004DD00650010DF3500124D96EF450022014
:100E4800DA6EDF50FF0AD8B40BD00650010DF3500C
:100E58000124D96EF4500220DA6EFE0EDF6212D041
:100E68000650036E046A020E0326000E04220001D7
:100E7800BD0E0324D96E0001000E0420DA6EFD0EAB
:100E8800DF6E19D00650010DF3500124D96EF450CD
:100E98000220DA6E0650036E046A020E0326000E64
:100EA80004220001BD0E0324E16E0001000E04209F
:100EB800E26EDFCFE7FF0650010DF3500124D96E33
:100EC800F4500220DA6EDF50051A062A0D0E066469
:100ED800B0D705C0CDF00001000E026E0001BD0EB6
:100EE800016E120073EC0CF01F0E206E5050D8B437
:100EF8003CD06FEC0CF0000E1A6E200E196E1FC05D
:100F08001CF01EC01BF00E0ED7EC0BF0216E21500A
:100F1800FC0AD8A404D077EC0CF09D98120021505C
:100F2800800A7F0FD8A012006BEC0CF01FC002F0F3
:100F38001EC001F010EC07F001C046F002C047F0F7
:100F4800000E4E6E000E506E4E50010DF3504624AA
:100F5800D96EF4504720DA6EDF50AE6E4E2A110E6D
:100F68004E641200010E506E120067EC0CF04E50E9
:100F7800010DF3504624D96EF4504720DA6EDF5045
:100F8800AE6E4E2A110E4E641200010E506E120003
:100F98000DC012F0136A20EE88F00B50D9260C50C1
:100FA800DA22DF50146E1450110DF3500B24156E15
:100FB800F4500C20166E15C0D9FF16C0DAFFDF50AA
:100FC800D8B402D0FF0E120020EE01F01550D92639
:100FD8001650DA220DC0DFFF20EE02F01550D92698
:100FE8001650DA220EC0DFFF030E1524016E000E24
:100FF8001620026E10C004F00FC003F012C005F0F6
:1010080013C006F06EEC0AF020EE88F00B50D926DB
:101018000C50DA2210EE88F00B50E1260C50E22238
:10102800E750116E1128070BDF6E15C0D9FF16C0E7
:10103800DAFF010EDF6E010E120020EE92F011EEC3
:1010480042F00E0EDECFE6FFE82EFCD720EEA0F031
:1010580011EE26F00E0EDECFE6FFE82EFCD720EECE
:10106800AEF011EE34F00E0EDECFE6FFE82EFCD720
:101078000101010E01011B6F0101420E01011A6FEE
:1010880020EC0CF00101010E01011B6F0101420E61
:1010980001011A6F0E0E35EC0BF00101010E010172
:1010A8001B6F0101260E01011A6F0E0E35EC0BF0B5
:1010B8000101010E01011B6F0101340E01011A6FBC
:1010C8000E0E35EC0BF0120005EE00F08A0EEE6AFB
:1010D800E806FDE104EE00F08A0EEE6AE806FDE19E
:1010E80003EE00F08A0EEE6AE806FDE102EE00F07B
:1010F8008A0EEE6AE806FDE100EEBCF0130EEE6A19
:10110800E806FDE100EE44F00C0EEE6AE806FDE1AB
:10111800840EF66E170EF76E000EF86E00EE92F063
:1011280010EE2AF00900F5CFEEFFE550E150FAE1A4
:101138000A0EF66E190EF76E000EF86E0900F5CF5E
:1011480050F0000EF86E00017FEF02F0010100017F
:1011580001C1D0F00101000100C1CFF0000120EE73
:101168000EF00001CF51D9260001D051DA22000E2D
:10117800DF6E000120EE1FF00001CF51D9260001DB
:10118800D051DA22000EDF6E000120EE20F00001BF
:10119800CF51D9260001D051DA22000EDF6E0001AE
:1011A80020EE21F00001CF51D9260001D051DA22DA
:1011B800050EDF6E000120EE23F00001CF51D92685
:1011C8000001D051DA22000EDF6E1200EACF87F05C
:1011D800E1CF88F0E2CF89F0D9CF8AF0DACF8BF06F
:1011E800F3CF8CF0F4CF8DF0F6CF8EF0F7CF8FF0F1
:1011F800F8CF90F0F5CF91F09EA603D09E9662ECC2
:1012080000F0F2A403D0F29429EC09F0C2EC09F042
:1012180091C0F5FF90C0F8FF8FC0F7FF8EC0F6FFB2
:101228008DC0F4FF8CC0F3FF8BC0DAFF8AC0D9FFF2
:1012380089C0E2FF88C0E1FF87C0EAFF86C0E9FFF6
:1012480085C0FBFF84C0FAFF1100000E0001616F2A
:10125800000E0001606F4BEC0CF00001000E000165
:10126800796F00017F0E0001786F0001000E000108
:101278007B6F0001810E00017A6F020E01EC0BF00A
:1012880000017D6F00017E6B00017DBF7E070001BC
:101298007D51020A7E11D8A412000A0E0001766F51
:1012A8000001000E0001786F0001810E0001776FC8
:1012B800020E95EC0BF01200010120EE88F00101FE
:1012C8000051D92601010151DA22000EDF6E010119
:1012D80020EE89F001010051D92601010151DA22DD
:1012E800000EDF6E000E0101026F070E010102659C
:1012F80001D0120001010251110DF3500101002526
:10130800D96EF45001010121DA6E000EDF6E010181
:10131800022B070E01010265EDD712000101006FD3
:10132800C650F00B0809C66EC78EC79C770EC86EEC
:101338009388938A000120EE25F00001CF51D92629
:101348000001D051DA22010100C1DFFF000120EEC7
:101358001FF00001CF51D9260001D051DA220E0E1C
:10136800DF6E000120EE21F00001CF51D9260001E7
:10137800D051DA22050EDF6EC68A12000001BC6762
:1013880001D012008EEC0AF00001635100016211D5
:10139800D8A4120054EC0CF0000161510001601156
:1013A800D8B412000301030E0001616F0301000E9F
:1013B8000001606F4EEC0BF00009D8A41200020186
:1013C800020E0001616F0201000E0001606F4EEC19
:1013D8000BF00009D8B482EC0CF01200000E0001EA
:1013E800BC6F0201020E0101016F0201000E010132
:1013F800006F60EC09F00301030E0101016F0301A6
:10140800000E0101006F60EC09F00401040E0101F7
:10141800016F0401000E0101006F60EC09F0050185
:10142800050E0101016F0501000E0101006F60EC5E
:1014380009F01200010103C109F1010102C108F11B
:10144800010101C107F1010100C106F110D008C175
:10145800D9FF09C1DAFF06C1E1FF07C1E2FFDFCF0B
:10146800E7FF0101084B092B0101064B072B01017E
:101478000407D8A0050701010429D8B40529D8B460
:101488001200E5D7000163C069F0000162C068F08E
:10149800000161C067F0000160C066F010D068C04C
:1014A800D9FF69C0DAFF66C0E1FF67C0E2FFDFCF9E
:1014B800E7FF0001684B692B0001664B672B0001B1
:1014C8006407D8A0650700016429D8B46529D8B491
:1014D8001200E5D704C00AF003C009F002C008F002
:1014E80001C007F00ED009C0D9FF0AC0DAFF07C053
:1014F800E1FF08C0E2FFDFCFE7FF094A0A2A074AEF
:10150800082A0506D8A006060528D8B40628D8B49F
:101518001200E9D7F2AC07D0000E0001636F000E8D
:101528000001626F120054EC0CF0000161510001DF
:101538006011D8B407D0000E0001636F000E0001DF
:10154800626F1200000E0001636F010E0001626FEE
:1015580012000101026F01010051F30B9A6E02C1E2
:1015680001F17F0E010101170101D8900135CD6EFF
:10157800000ECF6E000ECE6E9E90010102AF02D01B
:101588009D8001D09D909ABE9A86CD80120001015F
:101598001C6F0201020E01010B6F0201000E010116
:1015A8000A6F1CC10CF1010119C10EF1010118C12A
:1015B8000DF101011BC110F101011AC10FF19DECE0
:1015C80004F0120001011C6F0301030E01010B6FEF
:1015D8000301000E01010A6F1CC10CF1010119C1C0
:1015E8000EF1010118C10DF101011BC110F101013A
:1015F8001AC10FF19DEC04F0120000017C6F050187
:10160800050E00016B6F0501000E00016A6F7CC0BA
:101618006CF0000179C06EF0000178C06DF0000137
:101628007BC070F000017AC06FF02CEC05F012005E
:10163800010102511E0A0311D8B41200010102511E
:101648001F0A0311D8A41200010104510101062543
:10165800D96E0101055101010721DA6E000EDF6E16
:10166800120001011D6F280E0101166F01011BC137
:1016780018F101011AC117F101011D517EEC0BF09F
:1016880001011C6F01011C29D8B41200C7B4120053
:10169800C5801200000120EE89F000016051D926B2
:1016A80000016151DA22DF500001626F00016251CE
:1016B800110DF35000016025D96EF450000161212D
:1016C800DA6EDF5012000101196F0401040E0101E6
:1016D8000B6F0401000E01010A6F19C10CF116C14C
:1016E8000DF1010118C10FF1010117C10EF1BBEC99
:1016F80005F012000101196F0501050E01010B6FBC
:101708000501000E01010A6F19C10CF116C10DF196
:10171800010118C10FF1010117C10EF1BBEC05F071
:1017280012000001796F0301030E00016B6F0301C2
:10173800000E00016A6F79C06CF076C06DF0000190
:1017480078C06FF0000177C06EF031EC06F012003F
:1017580042EC0CF001C01BF002C01CF00B0E176E1F
:10176800000E196E000E186E000EFEEC0BF0000E47
:10177800026E000E016E39EC0CF012002AFFFFFE1B
:10178800FEAAFFFFFEFEAA1133452BA8A8A8A8A809
:10179800FFFFFEFEAA1133452CA9A9A9A9A9FFFF9D
:1017A800FEFEAA1133451D6E0401040E0C6E0401E1
:1017B800000E0B6E1DC00DF01AC00FF019C00EF010
:1017C8001CC011F01BC010F0A7EC06F012000101BC
:1017D800006F010100517F0BD56E000ED76E000E11
:1017E800D66EF294010100AF02D0F28A01D0F29ACB
:1017F800D58E12001A6E0201020E0C6E0201000E46
:101808000B6E1AC00DF017C00EF019C010F018C0FA
:101818000FF0CCEC07F01200948E949C7E86AD8479
:10182800000E7F6ECF0EB06EAD98AC8E9F989D98CF
:101838009D8AAD8AAC8812001F0E0101166F010146
:101848001BC118F101011AC117F10E0E67EC0BF05C
:1018580001011C6F9D88120000C1D9FF01C1DAFF88
:10186800000EDE6E000EDD6E120001C003F002C035
:1018780004F004C0CFFF03C0CEFF1200CECF03F0A8
:10188800CFCF04F003C001F004C002F0120060C022
:1018980062F061C063F063C0D7FF62C0D6FF120078
:1018A800000EF2AE010E0001606F0001616B1200C4
:1018B800010107C109F1010106C108F11200D08E2A
:1018C800F28EF28C12008C9E8C8E8C9E12008C9C58
:1018D8008C8C8C9C12008C9A8C8A8C9A12008C9816
:1018E8008C888C9812008C948C848C9412008C9E1A
:1018F8008C8E8C9E1200000E956E1200D38E030003
:0419080012000100C8
:08FFF8008AF795FFF2F9FFF111
:00000001FF
