:040000005BEF00F0C2
:10000800FACF89F0FBCF8AF0E9CF8BF0B1EF07F098
:10001800D8CF1DF0E8CF1EF0E0CF1FF0FACF20F0C8
:10002800FBCF21F0E9CF22F0EACF23F0E1CF24F093
:10003800E2CF25F0D9CF26F0DACF27F0F3CF28F09A
:10004800F4CF29F0F6CF2AF0F7CF2BF0F8CF2CF029
:10005800F5CF2DF09EA003D09E90B6EC0AF09EAA94
:1000680003D09E9A26EC07F02DC0F5FF2CC0F8FFB0
:100078002BC0F7FF2AC0F6FF29C0F4FF28C0F3FF02
:1000880027C0DAFF26C0D9FF25C0E2FF24C0E1FF60
:1000980023C0EAFF22C0E9FF21C0FBFF20C0FAFF0E
:1000A8001FC0E0FF1EC0E8FF1DC0D8FF10005BEFB7
:1000B8000BF0000E0001886F000E0001836F000E28
:1000C8000001876F000E0001866F000E0001846F2B
:1000D800C6AC24D0C69C000120EE0CF00001BA5139
:1000E800D9260001BB51DA22050EDF6E010E000190
:1000F800846F000120EE0EF00001BA51D9260001EC
:10010800BB51DA22DF2A000120EE0DF00001BA51BE
:10011800D9260001BB51DA22040EDF6EC7A005D034
:10012800C9CF85F0010E0001886F0001846797D15F
:1001380080D1C7A694D10001885119EC06F00001BE
:1001480020EE0CF00001BA51D9260001BB51DA2289
:10015800080EDF6284D1000E0001886F010E0001D5
:10016800866F7DD1C7A82AD0000120EE0BF00001D0
:10017800BA51D9260001BB51DA22DF2A0001885181
:10018800D8B44CD1C7BA04D0010E0001876F46D14C
:10019800000120EE0EF00001BA51D9260001BB5132
:1001A800DA22DF2A000120EE0DF00001BA51D9262B
:1001B8000001BB51DA22060EDF6E30D100018851F2
:1001C800D8B44DD1000120EE0BF00001BA51D92668
:1001D8000001BB51DA22DF2AC7BA19D0C7B40BD045
:1001E800000120EE0CF00001BA51D9260001BB51E4
:1001F800DA22070E6DD0000120EE0CF00001BA5192
:10020800D9260001BB51DA22080EDF6E00D10001A9
:1002180020EE0EF00001BA51D9260001BB51DA22B6
:10022800DF2A000120EE0CF00001BA51D9260001A6
:10023800BB51DA22050EDF6E000120EE0DF0000141
:10024800BA51D9260001BB51DA22060E41D000016D
:1002580020EE1AF00001BA51D9260001BB51DA226A
:10026800DF50486E000120EE19F00001BA51D9267E
:100278000001BB51DA22DF50485CD8B0CFD0000172
:1002880020EE1AF00001BA51D9260001BB51DA223A
:10029800DF50486E4850010D0F0EF326000EF42271
:1002A800F3500001BA25D96EF4500001BB21DA6E73
:1002B800DF50C96E000120EE1AF00001BA51D926AC
:1002C8000001BB51DA22DF2A010E0001836FC7D07B
:1002D800DF6EC5D0C7A858D0000120EE0BF0000192
:1002E800BA51D9260001BB51DA22DF2A0001885110
:1002F800D8B446D0C7AA23D0000120EE0AF00001E6
:10030800BA51D9260001BB51DA22DF50486E485055
:10031800010DF3500001BA25D96EF4500001BB213C
:10032800DA6E000185C0DFFF000120EE0AF000014F
:10033800BA51D9260001BB51DA22DF2A21D00001A7
:1003480020EE0EF00001BA51D9260001BB51DA2285
:10035800DF2A000120EE0DF00001BA51D926000174
:10036800BB51DA22060EDF6E000120EE0CF0000110
:10037800BA51D9260001BB51DA22050EDF6E4ED0E4
:10038800010E0001876F4AD000018851D8B467D0A8
:10039800000120EE0BF00001BA51D9260001BB5133
:1003A800DA22DF2AC7AA23D0000120EE0AF00001D2
:1003B800BA51D9260001BB51DA22DF50486E4850A5
:1003C800010DF3500001BA25D96EF4500001BB218C
:1003D800DA6E000185C0DFFF000120EE0AF000019F
:1003E800BA51D9260001BB51DA22DF2A38D0C7A476
:1003F800CFD6000120EE0CF00001BA51D926000139
:10040800BB51DA22080EDF6E010E0001876F010E64
:100418000001866F000E0001886F21D0000120EED8
:100428000CF00001BA51D9260001BB51DA22050EA1
:100438004FD7000120EE0CF00001BA51D926000177
:10044800BB51DA22DF50050AD8B473D6030AD8B4F0
:1004580089D6010AD8B43ED70F0AD8B4F8D6000115
:10046800886704D000018351D8B402D0C6A8C688D2
:10047800000120EE0AF00001BA51D9260001BB5153
:10048800DA22080EDF6423D00001876720D000013C
:1004980020EE0CF00001BA51D9260001BB51DA2236
:1004A800050EDF6E000120EE0EF00001BA51D926CC
:1004B8000001BB51DA22DF2A000120EE0DF0000115
:1004C800BA51D9260001BB51DA22070EDF6E0001AE
:1004D8008751D8B43AD0000120EE0BF00001BA5190
:1004E800D9260001BB51DA22000110EE0AF0000102
:1004F800BA51E1260001BB51E222E750486E48504C
:10050800010DF3500001BA25E16EF4500001BB2142
:10051800E26EDFCFE7FF280E446E0001BBC046F055
:100528000001BAC045F0000120EE0AF00001BA51FE
:10053800D9260001BB51DA22DF50486E482819EC51
:100548000BF0000120EE0AF03ED0000120EE0EF084
:100558000001BA51D9260001BB51DA22DF50D8B4C4
:100568003AD0000120EE0EF00001BA51D926000160
:10057800BB51DA22DF500001806F000120EE0DF040
:100588000001BA51D9260001BB51DA22DF5000011F
:10059800816F000120EE0BF00001BA51D92600014D
:1005A800BB51DA22DF500001826F290E446E000130
:1005B800000E466E0001800E456E030E19EC0BF01E
:1005C800000120EE0EF00001BA51D9260001BB51FE
:1005D800DA22000EDF6E00018651D8B412002A0E0E
:1005E800446E0001BBC046F00001BAC045F0000EE1
:1005F80019EC0BF0000E0001866F1200820ED36E0C
:100608009B9C0201020E0001986F0201120E00016C
:10061800976F3DEC0BF00201020E0001986F02018A
:10062800190E0001976FF0EC07F00201020E0001AD
:10063800986F0201100E0001976F72EC0BF010EC2E
:1006480009F0000E936E000E8A6E960EF4EC0AF016
:10065800F50E6FEC0AF09F909F9A9F869E0ECCEC49
:100668000AF09D86000E0001986F190E0001976F21
:100678006C0E70EC07F0ABEC0BF0000E956E8C680E
:10068800B4EC08F00201020E0001B06F0201170E6F
:100698000001AF6F0201020E0001B26F0201000EED
:1006A8000001B16F0A0E22EC0AF00201186F020174
:1006B80018BF62D053D00201020E0001986F0201E8
:1006C8000D0E0001976F0201000117C299F0000199
:1006D8009A6B0201185100019B6F00019C6B00018D
:1006E8009BBF9C070201020E00019E6F0201000ED3
:1006F80000019D6F9EEC0BF03FD000C20FF23CD082
:10070800020E0201186F550E0201006FAA0E0201B7
:10071800016F17D0010E0201186F3A0E04D0010EB6
:100728000201186FA30E0201006F0BD002010F51D6
:10073800A80AD8B4EFD7010AD8B4F1D7030AD8B4B5
:10074800DFD70201020E0001986F0201000E0001BE
:10075800976F02011851B8EC04F00ED0020117513E
:100768000A0AD8B4A8D7220AD8B4C7D7010AD8B475
:10077800C4D7030AD8B4DAD70201020E0001B06F59
:100788000201170E0001AF6F0201020E0001B26FE5
:100798000201000E0001B16F0A0E07EC0AF0020117
:1007A800186F020118BF6CD744D00201020E000175
:1007B800B26F0201100E0001B16F0201000117C2F1
:1007C800B3F00001B46B020118510001B56F0001CC
:1007D800B66B0001B5BFB6070201020E0001B86F83
:1007E8000201000E0001B76F85EC08F049D702013D
:1007F800020E0001986F02010B0E0001976F0201B3
:10080800000117C299F000019A6B0201185100010A
:100818009B6F00019C6B00019BBF9C070201020EAD
:1008280000019E6F0201000E00019D6F3DEC0AF071
:1008380027D7020117510B0AD8B4B7D7150AD8B46D
:10084800D6D7010AD8B4D3D71BD7000120EE35F08C
:100858000001A151D9260001A251DA22DF5000017E
:10086800AA6F0001AA510D0DF3500001A125000146
:10087800AD6FF4500001A2210001AE6F010EADC0B2
:10088800D9FFAEC0DAFFDF626DD0000120EE01F0C3
:100898000001AD51D9260001AE51DA22DF50000126
:1008A800A35DD8B002D0FD0E1200000120EE01F0C9
:1008B8000001AD51D9260001AE51DA22DF50000106
:1008C800A86F0001A8510001AB6F0001AC6B0001DB
:1008D800A7C098F00001A6C097F0030E0001AD254F
:1008E8000001A86F000E0001AE210001A96FA8C089
:1008F80099F0A9C09AF0ABC09BF0ACC09CF03BEC5F
:1009080009F0000120EE35F00001A151D9260001BF
:10091800A251DA22000110EE35F00001A151E126C2
:100928000001A251E222E7500001A86F0001A829A6
:10093800030BDF6E000120EE02F00001AD51D92655
:100948000001AE51DA22A4C0E1FFA5C0E2FFDFCF6B
:10095800E7FFADC0D9FFAEC0DAFF000EDF6E0001C1
:10096800AB511200FC0E120000019B6F000120EE3B
:1009780019F00001BA51D9260001BB51DA22000E44
:10098800DF6E3ED0000120EE19F00001BA51D926E1
:100998000001BB51DA22DF500001996F0001995123
:1009A800010DF35000019725D96EF45000019821EC
:1009B800DA6E000110EE19F00001BA51E1260001CB
:1009C800BB51E222E75000019A6F00019A51010DD4
:1009D8000F0EF326000EF422F3500001BA25E16E43
:1009E800F4500001BB21E26EDFCFE7FF000120EEEB
:1009F80019F00001BA51D9260001BB51DA22DF2AC9
:100A0800000120EE19F00001BA51D9260001BB51AE
:100A1800DA22DF500001996F00019B510001995DB6
:100A2800D8A0B0D7000120EE19F00001BA51D9269C
:100A38000001BB51DA2200019BC0DFFF000120EE5C
:100A48001AF00001BA51D9260001BB51DA22010E71
:100A5800DF6E000120EE0FF00001BA51D926000127
:100A6800BB51DA22DF50C96EC68812000001A3C04C
:100A7800A8F00001A96B000120EE34F00001A1519B
:100A8800D9260001A251DA22DF500001AA6F000125
:100A9800AA510D0DF3500001A1250001AB6FF450D0
:100AA8000001A2210001AC6FABC0D9FFACC0DAFFD6
:100AB800DF50D8B402D0FF0E1200000120EE01F082
:100AC8000001AB51D9260001AC51DA220001A3C0C4
:100AD800DFFF000120EE02F00001AB51D926000132
:100AE800AC51DA220001A4C0DFFF030E0001AB25E0
:100AF8000001976F000E0001AC210001986F000102
:100B0800A6C09AF00001A5C099F0A8C09BF0A9C0A2
:100B18009CF03BEC09F0000120EE34F00001A151FB
:100B2800D9260001A251DA22000110EE34F00001AA
:100B3800A151E1260001A251E222E7500001A76F6E
:100B48000001A729030BDF6EABC0D9FFACC0DAFFE9
:100B5800010EDF6E010E120020EE35F03850D92656
:100B68003950DA22DF50416E41500D0DF3503824D0
:100B7800446EF4503920456E010E44C0D9FF45C07B
:100B8800DAFFDF6250D020EE01F04450D9264550FC
:100B9800DA22DF503A5CD8B002D0FD0E120020EE07
:100BA80001F04450D9264550DA22DF503F6E3F50BD
:100BB800426E436A3EC02FF03DC02EF0030E44241F
:100BC8003F6E000E4520406E3FC030F040C031F00F
:100BD80042C032F043C033F0AAEC09F020EE35F001
:100BE8003850D9263950DA2210EE35F03850E1263F
:100BF8003950E222E7503F6E3F28030BDF6E20EEAC
:100C080002F04450D9264550DA223BC0E1FF3CC0EF
:100C1800E2FFDFCFE7FF44C0D9FF45C0DAFF000E8F
:100C2800DF6E42501200FC0E12002E6E000120EE04
:100C38000BF00001BA51D9260001BB51DA22010E8E
:100C4800DF6E000120EE0AF00001BA51D92600013A
:100C5800BB51DA22000EDF6E2E50D8B43DD0C7AAA1
:100C680021D0000120EE0CF00001BA51D926000174
:100C7800BB51DA22050EDF6E000120EE0EF00001F6
:100C8800BA51D9260001BB51DA22DF2A000120EE31
:100C98000DF00001BA51D9260001BB51DA22050E28
:100CA800DF6E1200C7A40CD0000120EE0CF000018A
:100CB800BA51D9260001BB51DA22080EDF6E1200A4
:100CC800000120EE0CF00001BA51D9260001BB51F9
:100CD800DA22070EDF6E1200000120EE0CF0000190
:100CE800BA51D9260001BB51DA22060EDF6E120076
:100CF8000DC012F0136A20EE34F00B50D9260C50B8
:100D0800DA22DF50146E14500D0DF3500B24156EBB
:100D1800F4500C20166E15C0D9FF16C0DAFFDF504C
:100D2800D8B402D0FF0E120020EE01F01550D926DB
:100D38001650DA220DC0DFFF20EE02F01550D9263A
:100D48001650DA220EC0DFFF030E1524016E000EC6
:100D58001620026E10C004F00FC003F012C005F098
:100D680013C006F08AEC09F020EE34F00B50D926B7
:100D78000C50DA2210EE34F00B50E1260C50E2222F
:100D8800E750116E1128030BDF6E15C0D9FF16C08E
:100D9800DAFF010EDF6E010E12003AC03FF0406A22
:100DA80020EE34F03850D9263950DA22DF50416E1F
:100DB80041500D0DF3503824426EF4503920436EE3
:100DC80042C0D9FF43C0DAFFDF50D8B402D0FF0ECB
:100DD800120020EE01F04250D9264350DA223AC0E0
:100DE800DFFF20EE02F04250D9264350DA223BC002
:100DF800DFFF030E42242E6E000E43202F6E3DC0EF
:100E080031F03CC030F03FC032F040C033F0AAECC3
:100E180009F020EE34F03850D9263950DA2210EE95
:100E280034F03850E1263950E222E7503E6E3E2831
:100E3800030BDF6E42C0D9FF43C0DAFF010EDF6E3D
:100E4800010E12009EAA3AD020EE04F04B50D9268B
:100E58004C50DA22DF501B6E1B50010DF3504B240F
:100E6800D96EF4504C20DA6E4CEC0BF0DF6E20EEAD
:100E780004F04B50D9264C50DA22DF2A20EE04F039
:100E88004B50D9264C50DA22040EDF6217D01F0EC1
:100E9800176E4CC019F04BC018F020EE04F04B5000
:100EA800D9264C50DA22DF5007EC0BF020EE04F084
:100EB8004B50D9264C50DA22000EDF6E4EA6120097
:100EC800AB98AB881E0E176E000E196E000E186ECA
:100ED800000E07EC0BF0120000019C6F000EAC6EC8
:100EE800000EAB6E00019CB1AC8800019CA302D03F
:100EF800AC8CAB8C00019CB5AC8E00019CA702D0D9
:100F0800AB8801D0AB8A00019CB9AC849E980001E3
:100F18009CBBAB8600019CAD02D09D8A01D09D9AF6
:100F28009E9A00019CAF02D09D8801D09D9897C0E1
:100F3800AFFF000198C099F099C09AF000019B6B2F
:100F480000019A51B06EAC8AAB8E949C948EACA87A
:100F58001200ACBE1200948C1200EACF8CF0E1CFE4
:100F68008DF0E2CF8EF0D9CF8FF0DACF90F0F3CFBB
:100F780091F0F4CF92F0F6CF93F0F7CF94F0F8CF4A
:100F880095F0F5CF96F09EA603D09E965DEC00F006
:100F9800F2A403D0F294E2EC08F063EC09F096C0F6
:100FA800F5FF95C0F8FF94C0F7FF93C0F6FF92C015
:100FB800F4FF91C0F3FF90C0DAFF8FC0D9FF8EC055
:100FC800E2FF8DC0E1FF8CC0EAFF8BC0E9FF8AC059
:100FD800FBFF89C0FAFF1100000198C0BBF00001B7
:100FE80097C0BAF0000120EE0AF00001BA51D926E4
:100FF8000001BB51DA22000EDF6E000120EE0BF07B
:101008000001BA51D9260001BB51DA22000EDF6E69
:10101800000120EE0CF00001BA51D9260001BB51A5
:10102800DA22050EDF6E000120EE0EF00001BA5143
:10103800D9260001BB51DA22000EDF6E1200000132
:1010480020EE34F000019751D92600019851DA2298
:10105800000EDF6E000120EE35F000019751D92611
:1010680000019851DA22000EDF6E000E0001996F20
:10107800030E0001996501D01200000199510D0D70
:10108800F35000019725D96EF45000019821DA6ECB
:10109800000EDF6E0001992B030E00019965EDD754
:1010A800120000019A519911D8B426D0010E0001FE
:1010B8009B6F06D00001D89099379A3700019B2B77
:1010C80000019AAFF7D7000199510001975D00011F
:1010D8009A5100019859D8A008D0000199510001EF
:1010E800975F00019A510001985B0001D8909A33EC
:1010F800993300019B2FE7D797C097F098C098F0D5
:101108001200B1C0D9FFB2C0DAFFDE2A000EDD221C
:10111800B1C0D9FFB2C0DAFF0001DECF97F00001FD
:10112800DDCF98F0000E00019A6F0A0E0001996F4A
:1011380055EC08F000019751090A00019811D8A44C
:101148001200140E0001AD6F0001B2C0AFF0000133
:10115800B1C0AEF0020E88EC0AF00001B96F1200BF
:10116800E9EC09F000019C5100019B11D8B4120070
:10117800010E4D6E0101010E0001986F01016C0E08
:101188000001976F56EC0AF00009D8B403D0000E9E
:101198004D6E12000101010E0001986F0101A20EAF
:1011A8000001976F56EC0AF00009D8B403D0000E7E
:1011B8004D6E12000A0E68EC0BF0DCD7000E2F6E95
:1011C800000E2E6E8DEC0BF00001000E476E000134
:1011D800820E466E0001000E496E0001840E486EB4
:1011E800020EE0EC0AF00001806F0001816B000143
:1011F80080BF810700018051020A8111D8A4120022
:101208000A0E446E0001000E466E0001840E456E03
:10121800020E19EC0BF01200000E4D6E0101010ECA
:101228000001986F0101A20E0001976F23EC08F0EE
:101238000101010E0001986F01016C0E0001976F0A
:1012480023EC08F00101010E0001986F0101360E30
:101258000001976F23EC08F00101010E0001986F5F
:101268000101000E0001976F23EC08F01200000145
:101278009AC0A0F0000199C09FF0000198C09EF0AC
:10128800000197C09DF010D09FC0D9FFA0C0DAFF21
:101298009DC0E1FF9EC0E2FFDFCFE7FF00019F4B4B
:1012A800A02B00019D4B9E2B00019B07D8A09C07FB
:1012B80000019B29D8B49C29D8B41200E5D74D6603
:1012C80001D012009FEC0AF031503010D8A412005F
:1012D800A5EC0BF02F502E10D8B412000101010E0E
:1012E8002F6E01016C0E2E6E2BEC0BF00009D8A4AA
:1012F80012000101010E2F6E0101A20E2E6E2BECC1
:101308000BF00009D8B4AFEC0BF0120004C00AF0DF
:1013180003C009F002C008F001C007F00ED009C0F0
:10132800D9FF0AC0DAFF07C0E1FF08C0E2FFDFCF3C
:10133800E7FF094A0A2A074A082A0506D8A0060626
:101348000528D8B40628D8B41200E9D731C037F038
:1013580030C036F02FC035F02EC034F00ED036C075
:10136800D9FF37C0DAFF34C0E1FF35C0E2FFDFCF75
:10137800E7FF364A372A344A352A3206D8A03306D8
:101388003228D8B43328D8B41200E9D7F2AC07D041
:10139800000E00019A6F000E0001996F120096EC82
:1013A8000BF00001985100019711D8B407D0000E36
:1013B80000019A6F000E0001996F1200000E0001E3
:1013C8009A6F010E0001996F1200CAEC09F0000132
:1013D8009A5100019911D8A40FD096EC0BF0000196
:1013E800985100019711D8A407D0000E00019C6FF6
:1013F800010E00019B6F1200000E00019C6F000E91
:1014080000019B6F12000001B36F0101010E000182
:10141800A26F0101A20E0001A16FB3C0A3F00001E9
:10142800B0C0A5F00001AFC0A4F00001B2C0A7F0A1
:101438000001B1C0A6F029EC04F012000001B36F5E
:101448000101010E0001A26F01016C0E0001A16FE4
:10145800B3C0A3F00001B0C0A5F00001AFC0A4F074
:101468000001B2C0A7F00001B1C0A6F029EC04F059
:101478001200000199511E0A9A11D8B412000001F5
:1014880099511F0A9A11D8A4120000019B5100011A
:101498009D25D96E00019C5100019E21DA6E000E37
:1014A800DF6E1200000120EE35F000019751D926B9
:1014B80000019851DA22DF500001996F000199511B
:1014C8000D0DF35000019725D96EF45000019821B5
:1014D800DA6EDF5012000001976F000197517E0B02
:1014E800CD6E000197AD02D0CD8E01D0CD9E000EFD
:1014F800CF6E000ECE6E9E90000197AF02D09D80F9
:1015080001D09D90CD8012000001B06F0101010E45
:101518000001A26F0101000E0001A16FB0C0A3F08D
:10152800ADC0A4F00001AFC0A6F00001AEC0A5F0A8
:101538003AEC05F01200F2AC05D0000E316E000E48
:10154800306E1200A5EC0BF02F502E10D8B405D039
:10155800000E316E000E306E1200000E316E010E5C
:10156800306E120084EC0BF001C01BF002C01CF0BE
:101578000B0E176E000E196E000E186E000E07EC9B
:101588000BF0000E026E000E016E7BEC0BF01200E9
:101598000001976F9486948897C0C8FF000EC76EA5
:1015A800000EC66E000EC56E0E0EC612C78E94864D
:1015B8009488C580C68A12004A6E0101010E396EF0
:1015C8000101000E386E4AC03AF047C03CF046C0F0
:1015D8003BF049C03EF048C03DF0B0EC05F01200C9
:1015E8000001976F000197517F0BD56E000ED76EE3
:1015F800000ED66EF294000197AF02D0F28A01D0A5
:10160800F29AD58E12001A6E0101010E0C6E0101BC
:10161800A20E0B6E1AC00DF017C00EF019C010F014
:1016280018C00FF07CEC06F01200476E0101010EA5
:10163800396E01016C0E386E47C03AF044C03BF079
:1016480046C03DF045C03CF0D1EC06F0120020EE5B
:1016580035F02E50D9262F50DA22DF50306E305018
:101668000D0DF3502E24D96EF4502F20DA6EDF5072
:101678001200000198C04CF0000197C04BF020EE1A
:1016880004F04B50D9264C50DA22000EDF6E1200BF
:10169800F20E4E16ABAC03D04E90ABB04E80ABB44E
:1016A8004E84ABB24E86AECF01F00150120001EE6F
:1016B80000F0D80EEE6AE806FDE14E6A4D6A000EAB
:1016C800F86E000102EF03F00001976FFA0E00F0C8
:1016D800E82EFDD70001972FF9D7120097C0D9FF40
:1016E80098C0DAFF000EDE6E000EDD6E120001C03B
:1016F80003F002C004F004C0CFFF03C0CEFF120005
:10170800CECF03F0CFCF04F003C001F004C002F045
:1017180012002EC030F02FC031F031C0D7FF30C0DA
:10172800D6FF1200000EF2AE010E0001976F000105
:10173800986B120000019EC0A0F000019DC09FF0B0
:101748001200000EF2AE010E2E6E2F6A1200D08E1D
:0C175800F28EF28C1200D38E03001200FF
:067FF80080F4C5FFFFF15B
:00000001FF
