:0400000067EF00F0B6
:10000800FACFBAF0FBCFBBF0E9CFBCF0C0EF0EF0EF
:10001800D8CF1DF0E8CF1EF0E0CF1FF0FACF20F0C8
:10002800FBCF21F0E9CF22F0EACF23F0E1CF24F093
:10003800E2CF25F0D9CF26F0DACF27F0F3CF28F09A
:10004800F4CF29F0F6CF2AF0F7CF2BF0F8CF2CF029
:10005800F5CF2DF09EA003D09E90E7EC12F09EAA5B
:1000680003D09E9A44EC13F09EB89DA809D08C86C4
:100078008C96A7EC13F002500110D8B45AEC13F088
:100088002DC0F5FF2CC0F8FF2BC0F7FF2AC0F6FFE4
:1000980029C0F4FF28C0F3FF27C0DAFF26C0D9FF24
:1000A80025C0E2FF24C0E1FF23C0EAFF22C0E9FF28
:1000B80021C0FBFF20C0FAFF1FC0E0FF1EC0E8FF01
:0A00C8001DC0D8FF1000FFEF12F07A
:100F0000000A0000000E0001B96F000E0001B46F6E
:100F1000000E0001B86F000E0001B76F000E000157
:100F2000B56FC6AC24D0C69C000120EE0CF00001C9
:100F3000CC51D9260001CD51DA22050EDF6E010E0B
:100F40000001B56F000120EE0EF00001CC51D92652
:100F50000001CD51DA22DF2A000120EE0DF0000160
:100F6000CC51D9260001CD51DA22040EDF6EC7A084
:100F700005D0C9CFB6F0010E0001B96F0001B56709
:100F80009FD188D1C7A69CD10001B95106EC0EF0C3
:100F9000000120EE0CF00001CC51D9260001CD510A
:100FA000DA22080EDF628CD1000E0001B96F010E4B
:100FB0000001B76F85D1C7A82AD0000120EE0BF041
:100FC0000001CC51D9260001CD51DA22DF2A0001DF
:100FD000B951D8B454D1C7BA04D0010E0001B86FCA
:100FE0004ED1000120EE0EF00001CC51D9260001B7
:100FF000CD51DA22DF2A000120EE0DF00001CC51A4
:10100000D9260001CD51DA22060EDF6E38D100015B
:10101000B951D8B455D1000120EE0BF00001CC51EC
:10102000D9260001CD51DA22DF2AC7BA19D0C7B4B8
:101030000BD0000120EE0CF00001CC51D9260001AC
:10104000CD51DA22070E71D0000120EE0CF0000124
:10105000CC51D9260001CD51DA22080EDF6E08D11D
:10106000000120EE0EF00001CC51D9260001CD5137
:10107000DA22DF2A000120EE0CF00001CC51D92643
:101080000001CD51DA22050EDF6E000120EE0DF0D9
:101090000001CC51D9260001CD51DA22060E45D0EF
:1010A000000120EE1AF00001CC51D9260001CD51EB
:1010B000DA22DF500001B06F000120EE19F00001CC
:1010C000CC51D9260001CD51DA22DF500001B05DAC
:1010D000D8B0D5D0000120EE1AF00001CC51D926AD
:1010E0000001CD51DA22DF500001B06F0001B05194
:1010F000010D0F0EF326000EF422F3500001CC2553
:10110000D96EF4500001CD21DA6EDF50C96E0001B6
:1011100020EE1AF00001CC51D9260001CD51DA227F
:10112000DF2A010E0001B46FCBD0DF6EC9D0C7A893
:101130005AD0000120EE0BF00001CC51D92600015D
:10114000CD51DA22DF2A0001B951D8B448D0C7AA5C
:1011500025D0000120EE0AF00001CC51D926000173
:10116000CD51DA22DF500001B06F0001B051010D06
:10117000F3500001CC25D96EF4500001CD21DA6E78
:101180000001B6C0DFFF000120EE0AF00001CC51E3
:10119000D9260001CD51DA22DF2A21D0000120EE2C
:1011A0000EF00001CC51D9260001CD51DA22DF2A00
:1011B000000120EE0DF00001CC51D9260001CD51E7
:1011C000DA22060EDF6E000120EE0CF00001CC5199
:1011D000D9260001CD51DA22050EDF6E50D0010E66
:1011E0000001B86F4CD00001B951D8B469D00001EA
:1011F00020EE0BF00001CC51D9260001CD51DA22AE
:10120000DF2AC7AA25D0000120EE0AF00001CC5148
:10121000D9260001CD51DA22DF500001B06F000164
:10122000B051010DF3500001CC25D96EF4500001EE
:10123000CD21DA6E0001B6C0DFFF000120EE0AF01A
:101240000001CC51D9260001CD51DA22DF2A38D055
:10125000C7A4C7D6000120EE0CF00001CC51D9265E
:101260000001CD51DA22080EDF6E010E0001B86FC9
:10127000010E0001B76F000E0001B96F21D000010F
:1012800020EE0CF00001CC51D9260001CD51DA221C
:10129000050E4BD7000120EE0CF00001CC51D926F1
:1012A0000001CD51DA22DF50050AD8B46BD6030A0B
:1012B000D8B481D6010AD8B43AD70F0AD8B4F0D638
:1012C0000001B96704D00001B451D8B402D0C6A857
:1012D000C688000120EE0AF00001CC51D926000199
:1012E000CD51DA22080EDF6423D00001B86720D088
:1012F000000120EE0CF00001CC51D9260001CD51A7
:10130000DA22050EDF6E000120EE0EF00001CC5156
:10131000D9260001CD51DA22DF2A000120EE0DF09E
:101320000001CC51D9260001CD51DA22070EDF6E23
:101330000001B851D8B43FD0000120EE0BF00001FD
:10134000CC51D9260001CD51DA22000110EE0AF06D
:101350000001CC51E1260001CD51E222E75000010D
:10136000B06F0001B051010DF3500001CC25E16ECA
:10137000F4500001CD21E26EDFCFE7FF280E00011F
:10138000AC6F0001CDC0AEF00001CCC0ADF00001EB
:1013900020EE0AF00001CC51D9260001CD51DA220D
:1013A000DF500001B06F0001B0292DEC13F00001F7
:1013B00020EE0AF041D0000120EE0EF00001CC51E9
:1013C000D9260001CD51DA22DF50D8B43DD000013A
:1013D00020EE0EF00001CC51D9260001CD51DA22C9
:1013E000DF500001B16F000120EE0DF00001CC5183
:1013F000D9260001CD51DA22DF500001B26F000181
:1014000020EE0BF00001CC51D9260001CD51DA229B
:10141000DF500001B36F290E0001AC6F0001000E18
:101420000001AE6F0001B10E0001AD6F030E2DEC97
:1014300013F0000120EE0EF00001CC51D92600017E
:10144000CD51DA22000EDF6E0001B751D8B4120080
:101450002A0E0001AC6F0001CDC0AEF00001CCC07F
:10146000ADF0000E2DEC13F0000E0001B76F12006E
:10147000E00ED36E9B8C0101010E0001C96F0101CA
:10148000D80E0001C86FAFEC0FF00101010E000192
:10149000C96F0101D40E0001C86FC8EC13F02CEC29
:1014A00011F0000E936E000E8A6E960E83EC13F010
:1014B000500E0001C86F9B0EFBEC11F09F909F9A9D
:1014C0009F869E0E6FEC13F09D86FCEC13F014ECDF
:1014D00010F09CEC12F0D2EC10F00101010E0101B1
:1014E000B76F0101D60E0101B66F0101010E0101B6
:1014F000B96F0101C50E0101B86F0A0E34EC12F08C
:101500000101D76F0101D7BF8ED07CD00101010E40
:101510000101A36F0101C30E0101A26F0101D6C138
:10152000A4F10101A56B0101D7510101A66F0101D1
:10153000A76B0101A6BFA7070101010E0101A96F59
:101540000101C50E0101A86FBFEC13F06CD0C5C13D
:10155000D0F169D0020E0101D76F550E0101C56FA0
:10156000AA0E0101C66F17D0010E0101D76F3A0E06
:1015700004D0010E0101D76FA30E0101C56F0BD07E
:101580000101D051A80AD8B4EFD7010AD8B4F1D7D5
:10159000030AD8B4DFD70101010E0001C96F0101B0
:1015A000C50E0001C86F0101D75198EC0CF03BD07B
:1015B0008C7C0101C6C1D2F10101D36B0101D25172
:1015C0000101D36F0101C5510101D26F240E000149
:1015D000C96FF60E0001C86FEF0E0101D2250001A0
:1015E000CA6FFF0E0101D3210001CB6F04EC0FF095
:1015F0000001D890C8350101D16F0101D1516AECC9
:1016000012F011D00101D6510A0AD8B47FD7220AAC
:10161000D8B49DD7010AD8B49AD7030AD8B4B0D7A2
:10162000180AD8B4C5D70101010E0101B76F010135
:10163000D60E0101B66F0101010E0101B96F010162
:10164000C50E0101B86F0A0E19EC12F00101D76F37
:101650000101D7BF40D742D00101010E0101B96F8E
:101660000101D40E0101B86F0101D6C1BAF1010127
:10167000BB6B0101D7510101BC6F0101BD6B0101C1
:10168000BCBFBD070101010E0101BF6F0101C50E05
:101690000101BE6F74EC10F01ED70101010E0101B3
:1016A000A36F0101C10E0101A26F0101D6C1A4F116
:1016B0000101A56B0101D7510101A66F0101A76BC3
:1016C0000101A6BFA7070101010E0101A96F0101D8
:1016D000C50E0101A86F83EC12F0FDD60101D651B1
:1016E0000B0AD8B4B9D7150AD8B4D7D7010AD8B4D9
:1016F000D4D7F1D6010120EE35F00101A851D92649
:101700000101A951DA22DF500101B16F0101B1518C
:101710000D0DF3500101A8250101B46FF450010132
:10172000A9210101B56F010EB4C1D9FFB5C1DAFF1E
:10173000DF626DD0010120EE01F00101B451D92624
:101740000101B551DA22DF500101AA5DD8B002D003
:10175000FD0E1200010120EE01F00101B451D92665
:101760000101B551DA22DF500101AF6F0101AF5124
:101770000101B26F0101B36B0101AEC1A3F101011F
:10178000ADC1A2F1030E0101B4250101AF6F000E3E
:101790000101B5210101B06FAFC1A4F1B0C1A5F144
:1017A000B2C1A6F1B3C1A7F100EC11F0010120EE26
:1017B00035F00101A851D9260101A951DA22010110
:1017C00010EE35F00101A851E1260101A951E222F4
:1017D000E7500101AF6F0101AF29030BDF6E01017B
:1017E00020EE02F00101B451D9260101B551DA22EF
:1017F000ABC1E1FFACC1E2FFDFCFE7FFB4C1D9FF6E
:10180000B5C1DAFF000EDF6E0101B2511200FC0E0D
:101810001200000120EE35F00001A051D926000190
:10182000A151DA22DF500001A96F0001A9510D0D6D
:10183000F3500001A0250001AC6FF4500001A1217C
:101840000001AD6F010EACC0D9FFADC0DAFFDF62A1
:101850006DD0000120EE01F00001AC51D92600014D
:10186000AD51DA22DF500001A25DD8B002D0FD0EEA
:101870001200000120EE01F00001AC51D926000158
:10188000AD51DA22DF500001A76F0001A75100011E
:10189000AA6F0001AB6B0001A6C097F00001A5C0C4
:1018A00096F0030E0001AC250001A76F000E0001A9
:1018B000AD210001A86FA7C098F0A8C099F0AAC0F8
:1018C0009AF0ABC09BF057EC11F0000120EE35F020
:1018D0000001A051D9260001A151DA22000110EE29
:1018E00035F00001A051E1260001A151E222E750AC
:1018F0000001A76F0001A729030BDF6E000120EE96
:1019000002F00001AC51D9260001AD51DA22A3C08A
:10191000E1FFA4C0E2FFDFCFE7FFACC0D9FFADC05D
:10192000DAFF000EDF6E0001AA511200FC0E120059
:101930000101A26F000120EE19F00001CC51D9265F
:101940000001CD51DA22000EDF6E3ED0000120EE04
:1019500019F00001CC51D9260001CD51DA22DF5017
:101960000001CA6F0001CA51010DF3500001C825E2
:10197000D96EF4500001C921DA6E000110EE19F0A1
:101980000001CC51E1260001CD51E222E7500001D7
:10199000CB6F0001CB51010D0F0EF326000EF42288
:1019A000F3500001CC25E16EF4500001CD21E26E30
:1019B000DFCFE7FF000120EE19F00001CC51D9265E
:1019C0000001CD51DA22DF2A000120EE19F00001DA
:1019D000CC51D9260001CD51DA22DF500001CA6F67
:1019E0000101A2510001CA5DD8A0B0D7000120EECC
:1019F00019F00001CC51D9260001CD51DA220101A4
:101A0000A2C1DFFF000120EE1AF00001CC51D9265F
:101A10000001CD51DA22010EDF6E000120EE0FF041
:101A20000001CC51D9260001CD51DA22DF50C96E18
:101A3000C68812000101AAC1AFF10101B06B01011A
:101A400020EE34F00101A851D9260101A951DA2272
:101A5000DF500101B16F0101B1510D0DF3500101D2
:101A6000A8250101B26FF4500101A9210101B36F52
:101A7000B2C1D9FFB3C1DAFFDF50D8B402D0FF0E34
:101A80001200010120EE01F00101B251D92601013D
:101A9000B351DA220101AAC1DFFF010120EE02F0F9
:101AA0000101B251D9260101B351DA220101ABC1C2
:101AB000DFFF030E0101B2250101A26F000E01013B
:101AC000B3210101A36F0101ADC1A5F10101ACC1B9
:101AD000A4F1AFC1A6F1B0C1A7F100EC11F0010172
:101AE00020EE34F00101A851D9260101A951DA22D2
:101AF000010110EE34F00101A851E1260101A951C4
:101B0000E222E7500101AE6F0101AE29030BDF6E47
:101B1000B2C1D9FFB3C1DAFF010EDF6E010E1200B0
:101B20000001A2C0A7F00001A86B000120EE34F074
:101B30000001A051D9260001A151DA22DF50000195
:101B4000A96F0001A9510D0DF3500001A02500015E
:101B5000AA6FF4500001A1210001AB6FAAC0D9FF08
:101B6000ABC0DAFFDF50D8B402D0FF0E1200000184
:101B700020EE01F00001AA51D9260001AB51DA2272
:101B80000001A2C0DFFF000120EE02F00001AA5117
:101B9000D9260001AB51DA220001A3C0DFFF030EFA
:101BA0000001AA250001966F000E0001AB21000183
:101BB000976F0001A5C099F00001A4C098F0A7C0DC
:101BC0009AF0A8C09BF057EC11F0000120EE34F021
:101BD0000001A051D9260001A151DA22000110EE26
:101BE00034F00001A051E1260001A151E222E750AA
:101BF0000001A66F0001A629030BDF6EAAC0D9FF62
:101C0000ABC0DAFF010EDF6E010E12000001966F0D
:101C1000000120EE0BF00001CC51D9260001CD517E
:101C2000DA22010EDF6E000120EE0AF00001CC5135
:101C3000D9260001CD51DA22000EDF6E0001965147
:101C4000D8B43DD0C7AA21D0000120EE0CF000018D
:101C5000CC51D9260001CD51DA22050EDF6E0001EC
:101C600020EE0EF00001CC51D9260001CD51DA2230
:101C7000DF2A000120EE0DF00001CC51D926000131
:101C8000CD51DA22050EDF6E1200C7A40CD0000180
:101C900020EE0CF00001CC51D9260001CD51DA2202
:101CA000080EDF6E1200000120EE0CF00001CC5196
:101CB000D9260001CD51DA22070EDF6E1200000195
:101CC00020EE0CF00001CC51D9260001CD51DA22D2
:101CD000060EDF6E12000DC012F0136A20EE34F013
:101CE0000B50D9260C50DA22DF50146E14500D0D13
:101CF000F3500B24156EF4500C20166E15C0D9FF4E
:101D000016C0DAFFDF50D8B402D0FF0E120020EE6A
:101D100001F01550D9261650DA220DC0DFFF20EE53
:101D200002F01550D9261650DA220EC0DFFF030E3E
:101D30001524016E000E1620026E10C004F00FC0B4
:101D400003F012C005F013C006F07FEC11F020EE96
:101D500034F00B50D9260C50DA2210EE34F00B5030
:101D6000E1260C50E222E750116E1128030BDF6EC2
:101D700015C0D9FF16C0DAFF010EDF6E010E12008A
:101D8000EACFBDF0E1CFBEF0E2CFBFF0D9CFC0F0D7
:101D9000DACFC1F0F3CFC2F0F4CFC3F0F6CFC4F086
:101DA000F7CFC5F0F8CFC6F0F5CFC7F09EA603D0A9
:101DB0009E9682EC07F0F2A403D0F29478EC0FF038
:101DC0009EAC03D09E9C40EC0FF0A3EC10F0C7C07B
:101DD000F5FFC6C0F8FFC5C0F7FFC4C0F6FFC3C01B
:101DE000F4FFC2C0F3FFC1C0DAFFC0C0D9FFBFC05B
:101DF000E2FFBEC0E1FFBDC0EAFFBCC0E9FFBBC05F
:101E0000FBFFBAC0FAFF1100000E0101A46F000E23
:101E10000101A36F0001CB51CA11D8B42CD0010E1F
:101E20000101A26F06D00001D890CA37CB3701015B
:101E3000A22B0001CBAFF7D70101D890A337A4376D
:101E40000001CA510001C85D0001CB510001C95910
:101E5000D8A00AD00001CA510001C85F0001CB51CF
:101E60000001C95B0101A3810001D890CB33CA33C3
:101E70000101A22FE1D7A3C1C8F0A4C1C9F012008B
:101E8000000E0001B46F000E0001B36F8C78C450D7
:101E90000001B16FB06B0001B3510001B01100013E
:101EA000B36F0001B4510001B1110001B46F000122
:101EB000B351C3100001B36F0001B4510001B46FFE
:101EC0008C7A320E0001AC6F0001000E0001AE6F83
:101ED0000001B30E0001AD6F010EF66E0F0EF76E2E
:101EE0000800F5502DEC13F00001B26FC292120001
:101EF000000E0001976F000E0001966FE3EC13F0E7
:101F00000001000E0001AF6F0001B50E0001AE6FC1
:101F10000001000E0001B16F0001B70E0001B06FAB
:101F2000020E4FEC12F00001B36F0001B46B000120
:101F3000B3BFB4070001B351020AB411D8A4120010
:101F40000A0E0001AC6F0001000E0001AE6F00012F
:101F5000B70E0001AD6F020E2DEC13F01200000160
:101F6000C9C0CDF00001C8C0CCF0000120EE0AF0DD
:101F70000001CC51D9260001CD51DA22000EDF6ECE
:101F8000000120EE0BF00001CC51D9260001CD510B
:101F9000DA22000EDF6E000120EE0CF00001CC51C1
:101FA000D9260001CD51DA22050EDF6E000120EEA8
:101FB0000EF00001CC51D9260001CD51DA22000EDD
:101FC000DF6E1200000120EE34F00001C851D92666
:101FD0000001C951DA22000EDF6E000120EE35F05B
:101FE0000001C851D9260001C951DA22000EDF6E66
:101FF000000E0001CA6F030E0001CA6501D0120075
:102000000001CA510D0DF3500001C825D96EF450DE
:102010000001C921DA6E000EDF6E0001CA2B030E2B
:102020000001CA65EDD71200948E949C7E86AD8423
:10203000000E7F6ECF0EB06EAD98AC8E9F989D98BF
:102040009D8AAD8AAC88000E3A6E000E3B6E3A5007
:10205000010D360EF324D96E000EF420DA6E000E58
:10206000DF6E000E3C6E000E336E000E346E335089
:10207000010D2F0EF324D96E000EF420DA6E000E3F
:10208000DF6E000E356E12000001CB51CA11D8B4BC
:1020900026D0010E0101A26F06D00001D890CA37E8
:1020A000CB370101A22B0001CBAFF7D70001CA51FA
:1020B0000001C85D0001CB510001C959D8A008D06A
:1020C0000001CA510001C85F0001CB510001C95B8A
:1020D0000001D890CB33CA330101A22FE7D7C8C083
:1020E000C8F0C9C0C9F01200B8C1D9FFB9C1DAFF40
:1020F000DE2A000EDD22B8C1D9FFB9C1DAFF000126
:10210000DECFC8F00001DDCFC9F0000E0001CB6FBB
:102110000A0E0001CA6F44EC10F00001C851090A10
:102120000001C911D8A41200140E0101B46F0101FD
:10213000B9C1B6F10101B8C1B5F1020E16EC13F048
:102140000101C06F12002E6601D01200BEEC11F02A
:102150000001995100019811D8A41200F4EC13F079
:102160000001975100019611D8B412000101010E2F
:102170000001976F01016C0E0001966FCEEC12F01A
:102180000009D8A412000001000E0001976F0001A1
:10219000600E0001966FCEEC12F00009D8B400EC8E
:1021A00014F01200DDEC11F00101A3510101A211A4
:1021B000D8B41200010E2E6E0101010E0001C96F8C
:1021C00001016C0E0001C86FB5EC12F00009D8B423
:1021D00003D0000E2E6E12000001000E0001C96F28
:1021E0000001600E0001C86FB5EC12F00009D8B410
:1021F00003D0000E2E6E12000A0EB5EC13F0DCD7E1
:1022000001010001A5C1CBF001010001A4C1CAF088
:1022100001010001A3C1C9F001010001A2C1C8F080
:1022200010D0CAC0D9FFCBC0DAFFC8C0E1FFC9C017
:10223000E2FFDFCFE7FF0001CA4BCB2B0001C84B09
:10224000C92B0101A607D8A0A7070101A629D8B468
:10225000A729D8B41200E5D7000E2E6E0001000E9B
:102260000001C96F0001600E0001C86FE2EC0FF0C1
:102270000101010E0001C96F01016C0E0001C86F60
:10228000E2EC0FF00101010E0001C96F0101360EF1
:102290000001C86FE2EC0FF00101010E0001C96FEF
:1022A0000101000E0001C86FE2EC0FF01200000106
:1022B00099C09FF0000198C09EF0000197C09DF06A
:1022C000000196C09CF010D09EC0D9FF9FC0DAFFDD
:1022D0009CC0E1FF9DC0E2FFDFCFE7FF00019E4B06
:1022E0009F2B00019C4B9D2B00019A07D8A09B07B8
:1022F00000019A29D8B49B29D8B41200E5D704C0AC
:102300000AF003C009F002C008F001C007F00ED0C7
:1023100009C0D9FF0AC0DAFF07C0E1FF08C0E2FF29
:10232000DFCFE7FF094A0A2A074A082A0506D8A08C
:1023300006060528D8B40628D8B41200E9D7F2ACAE
:1023400007D0000E0001CB6F000E0001CA6F120013
:10235000ECEC13F00001C9510001C811D8B407D04A
:10236000000E0001CB6F000E0001CA6F1200000EBC
:102370000001CB6F010E0001CA6F1200F2AC07D052
:10238000000E0001996F000E0001986F1200F4EC2E
:1023900013F00001975100019611D8B407D0000E38
:1023A0000001996F000E0001986F1200000E0001ED
:1023B000996F010E0001986F12009FEC11F000015F
:1023C000CB510001CA11D8A40FD0ECEC13F00001DE
:1023D000C9510001C811D8A407D0000E0101A36F94
:1023E000010E0101A26F1200000E0101A36F000E89
:1023F0000101A26F12000001CA6F0001C851F30B66
:102400009A6ECAC0C9F07F0E0001C9170001D890AA
:10241000C935CD6E000ECF6E000ECE6E9E900001BF
:10242000CAAF02D09D8001D09D909ABE9A86CD8081
:1024300012000101BA6F0001000E0101A96F000135
:10244000600E0101A86FBAC1AAF10101B7C1ACF1D8
:102450000101B6C1ABF10101B9C1AEF10101B8C1D1
:10246000ADF17AEC0BF012000101BA6F0101010E1F
:102470000101A96F01016C0E0101A86FBAC1AAF197
:102480000101B7C1ACF10101B6C1ABF10101B9C1A4
:10249000AEF10101B8C1ADF17AEC0BF01200000110
:1024A000B26F0101010E0001A16F0101000E0001D8
:1024B000A06FB2C0A2F00001AFC0A4F00001AEC096
:1024C000A3F00001B1C0A6F00001B0C0A5F009EC76
:1024D0000CF012000001C86F20EE3CF0030EDF6428
:1024E00001D012003B50010D360EF324D96E000EC0
:1024F000F420DA6E0001C8C0DFFF3B28030B3B6EFF
:102500003C2A9D8812000101A4511E0AA511D8B4CD
:1025100012000101A4511F0AA511D8A41200010143
:10252000A6510101A825D96E0101A7510101A921D8
:10253000DA6E000EDF6E120092909598959A959C37
:10254000C29EC29CC250C30B0809C26EC292C18E09
:10255000C19CC186C188C18AC150F80B0609C16EF1
:10256000C2809E9C9D8CF28E1200000120EE35F000
:102570000001C851D9260001C951DA22DF500001FB
:10258000CA6F0001CA510D0DF3500001C825D96E64
:10259000F4500001C921DA6EDF501200000120EE74
:1025A00035F000019651D92600019751DA22DF500B
:1025B0000001986F000198510D0DF3500001962510
:1025C000D96EF45000019721DA6EDF501200897045
:1025D000C282DAEC13F001C01BF002C01CF00B0E3B
:1025E000176E000E196E000E186E000E96EC13F0AA
:1025F000000E026E000E016ED1EC13F0120001EE1F
:1026000000F0A20EEE6AE806FDE100EE60F0360E84
:10261000EE6AE806FDE100EE2EF00F0EEE6AE80627
:10262000FDE1000EF86E000138EF0AF00101B76F0E
:102630000101010E0101A96F0101000E0101A86F46
:10264000B7C1AAF1B4C1ABF10101B6C1ADF101014D
:10265000B5C1ACF11AEC0DF012000001AF6F010131
:10266000010E0001A16F01016C0E0001A06FAFC04F
:10267000A2F0ACC0A3F00001AEC0A5F00001ADC057
:10268000A4F090EC0DF0120020EE35F0030EDF64A4
:1026900002D09D9A12003450010D2F0EF324D96EF2
:1026A000000EF420DA6EAFCFDFFF3428030B346E58
:1026B000352A12003C6601D012003A50010D360E48
:1026C000F324D96E000EF420DA6EDF50AE6E3A2895
:1026D000030B3A6E3C063C6612009D981200000106
:1026E000C86F9388938AC8C0C8FF000EC76E000EDB
:1026F000C66E000EC56E0E0EC612C78E8188818A08
:10270000C580C68A12000001C86F0001C8517F0B46
:10271000D56E000ED76E000ED66EF2940001C8AFD3
:1027200002D0F28A01D0F29AD58E12001A6E000100
:10273000000E0C6E0001600E0B6E1AC00DF017C07B
:102740000EF0106A18C00FF06BEC0EF012003C6631
:1027500007D0000E3C6E000E026E010E016E1200DC
:10276000000E026E000E016E12000001C86FFA0E1C
:1027700000F0E82EFDD70001C82FF9D712000101A3
:102780000001A9C1C9F001010001A8C1C8F01200EF
:10279000C8C0D9FFC9C0DAFF000EDE6E000EDD6EC4
:1027A000120001C003F002C004F004C0CFFF03C058
:1027B000CEFF1200CECF03F0CFCF04F003C001F064
:1027C00004C002F0120096C098F097C099F099C02A
:1027D000D7FF98C0D6FF1200000EF2AE010E000126
:1027E000C86F0001C96B1200000EF2AE010E0001AD
:1027F000966F0001976B1200D08EF28EF28C120051
:06280000D38E030012005C
:08FFF8008AF795FFF2F9FFF111
:00000001FF
